{
  "_format": "hh-sol-artifact-1",
  "contractName": "TGTNFT",
  "sourceName": "contracts/TokenNFTERC721.sol",
  "abi": [
    {
      "inputs": [],
      "stateMutability": "nonpayable",
      "type": "constructor"
    },
    {
      "anonymous": false,
      "inputs": [
        {
          "indexed": true,
          "internalType": "address",
          "name": "owner",
          "type": "address"
        },
        {
          "indexed": true,
          "internalType": "address",
          "name": "approved",
          "type": "address"
        },
        {
          "indexed": true,
          "internalType": "uint256",
          "name": "tokenId",
          "type": "uint256"
        }
      ],
      "name": "Approval",
      "type": "event"
    },
    {
      "anonymous": false,
      "inputs": [
        {
          "indexed": true,
          "internalType": "address",
          "name": "owner",
          "type": "address"
        },
        {
          "indexed": true,
          "internalType": "address",
          "name": "operator",
          "type": "address"
        },
        {
          "indexed": false,
          "internalType": "bool",
          "name": "approved",
          "type": "bool"
        }
      ],
      "name": "ApprovalForAll",
      "type": "event"
    },
    {
      "anonymous": false,
      "inputs": [
        {
          "indexed": true,
          "internalType": "address",
          "name": "previousOwner",
          "type": "address"
        },
        {
          "indexed": true,
          "internalType": "address",
          "name": "newOwner",
          "type": "address"
        }
      ],
      "name": "OwnershipTransferred",
      "type": "event"
    },
    {
      "anonymous": false,
      "inputs": [
        {
          "indexed": true,
          "internalType": "address",
          "name": "from",
          "type": "address"
        },
        {
          "indexed": true,
          "internalType": "address",
          "name": "to",
          "type": "address"
        },
        {
          "indexed": true,
          "internalType": "uint256",
          "name": "tokenId",
          "type": "uint256"
        }
      ],
      "name": "Transfer",
      "type": "event"
    },
    {
      "inputs": [
        {
          "internalType": "address",
          "name": "to",
          "type": "address"
        },
        {
          "internalType": "uint256",
          "name": "tokenId",
          "type": "uint256"
        }
      ],
      "name": "approve",
      "outputs": [],
      "stateMutability": "nonpayable",
      "type": "function"
    },
    {
      "inputs": [
        {
          "internalType": "address",
          "name": "owner",
          "type": "address"
        }
      ],
      "name": "balanceOf",
      "outputs": [
        {
          "internalType": "uint256",
          "name": "",
          "type": "uint256"
        }
      ],
      "stateMutability": "view",
      "type": "function"
    },
    {
      "inputs": [
        {
          "internalType": "uint256",
          "name": "tokenId",
          "type": "uint256"
        }
      ],
      "name": "burn",
      "outputs": [],
      "stateMutability": "nonpayable",
      "type": "function"
    },
    {
      "inputs": [
        {
          "internalType": "uint256",
          "name": "tokenId",
          "type": "uint256"
        }
      ],
      "name": "getApproved",
      "outputs": [
        {
          "internalType": "address",
          "name": "",
          "type": "address"
        }
      ],
      "stateMutability": "view",
      "type": "function"
    },
    {
      "inputs": [
        {
          "internalType": "address",
          "name": "owner",
          "type": "address"
        },
        {
          "internalType": "address",
          "name": "operator",
          "type": "address"
        }
      ],
      "name": "isApprovedForAll",
      "outputs": [
        {
          "internalType": "bool",
          "name": "",
          "type": "bool"
        }
      ],
      "stateMutability": "view",
      "type": "function"
    },
    {
      "inputs": [],
      "name": "name",
      "outputs": [
        {
          "internalType": "string",
          "name": "",
          "type": "string"
        }
      ],
      "stateMutability": "view",
      "type": "function"
    },
    {
      "inputs": [],
      "name": "owner",
      "outputs": [
        {
          "internalType": "address",
          "name": "",
          "type": "address"
        }
      ],
      "stateMutability": "view",
      "type": "function"
    },
    {
      "inputs": [
        {
          "internalType": "uint256",
          "name": "tokenId",
          "type": "uint256"
        }
      ],
      "name": "ownerOf",
      "outputs": [
        {
          "internalType": "address",
          "name": "",
          "type": "address"
        }
      ],
      "stateMutability": "view",
      "type": "function"
    },
    {
      "inputs": [],
      "name": "renounceOwnership",
      "outputs": [],
      "stateMutability": "nonpayable",
      "type": "function"
    },
    {
      "inputs": [
        {
          "internalType": "address",
          "name": "to",
          "type": "address"
        },
        {
          "internalType": "string",
          "name": "uri",
          "type": "string"
        }
      ],
      "name": "safeMint",
      "outputs": [],
      "stateMutability": "nonpayable",
      "type": "function"
    },
    {
      "inputs": [
        {
          "internalType": "address",
          "name": "from",
          "type": "address"
        },
        {
          "internalType": "address",
          "name": "to",
          "type": "address"
        },
        {
          "internalType": "uint256",
          "name": "tokenId",
          "type": "uint256"
        }
      ],
      "name": "safeTransferFrom",
      "outputs": [],
      "stateMutability": "nonpayable",
      "type": "function"
    },
    {
      "inputs": [
        {
          "internalType": "address",
          "name": "from",
          "type": "address"
        },
        {
          "internalType": "address",
          "name": "to",
          "type": "address"
        },
        {
          "internalType": "uint256",
          "name": "tokenId",
          "type": "uint256"
        },
        {
          "internalType": "bytes",
          "name": "data",
          "type": "bytes"
        }
      ],
      "name": "safeTransferFrom",
      "outputs": [],
      "stateMutability": "nonpayable",
      "type": "function"
    },
    {
      "inputs": [
        {
          "internalType": "address",
          "name": "operator",
          "type": "address"
        },
        {
          "internalType": "bool",
          "name": "approved",
          "type": "bool"
        }
      ],
      "name": "setApprovalForAll",
      "outputs": [],
      "stateMutability": "nonpayable",
      "type": "function"
    },
    {
      "inputs": [
        {
          "internalType": "bytes4",
          "name": "interfaceId",
          "type": "bytes4"
        }
      ],
      "name": "supportsInterface",
      "outputs": [
        {
          "internalType": "bool",
          "name": "",
          "type": "bool"
        }
      ],
      "stateMutability": "view",
      "type": "function"
    },
    {
      "inputs": [],
      "name": "symbol",
      "outputs": [
        {
          "internalType": "string",
          "name": "",
          "type": "string"
        }
      ],
      "stateMutability": "view",
      "type": "function"
    },
    {
      "inputs": [
        {
          "internalType": "uint256",
          "name": "index",
          "type": "uint256"
        }
      ],
      "name": "tokenByIndex",
      "outputs": [
        {
          "internalType": "uint256",
          "name": "",
          "type": "uint256"
        }
      ],
      "stateMutability": "view",
      "type": "function"
    },
    {
      "inputs": [
        {
          "internalType": "address",
          "name": "owner",
          "type": "address"
        },
        {
          "internalType": "uint256",
          "name": "index",
          "type": "uint256"
        }
      ],
      "name": "tokenOfOwnerByIndex",
      "outputs": [
        {
          "internalType": "uint256",
          "name": "",
          "type": "uint256"
        }
      ],
      "stateMutability": "view",
      "type": "function"
    },
    {
      "inputs": [
        {
          "internalType": "uint256",
          "name": "tokenId",
          "type": "uint256"
        }
      ],
      "name": "tokenURI",
      "outputs": [
        {
          "internalType": "string",
          "name": "",
          "type": "string"
        }
      ],
      "stateMutability": "view",
      "type": "function"
    },
    {
      "inputs": [],
      "name": "totalSupply",
      "outputs": [
        {
          "internalType": "uint256",
          "name": "",
          "type": "uint256"
        }
      ],
      "stateMutability": "view",
      "type": "function"
    },
    {
      "inputs": [
        {
          "internalType": "address",
          "name": "from",
          "type": "address"
        },
        {
          "internalType": "address",
          "name": "to",
          "type": "address"
        },
        {
          "internalType": "uint256",
          "name": "tokenId",
          "type": "uint256"
        }
      ],
      "name": "transferFrom",
      "outputs": [],
      "stateMutability": "nonpayable",
      "type": "function"
    },
    {
      "inputs": [
        {
          "internalType": "address",
          "name": "newOwner",
          "type": "address"
        }
      ],
      "name": "transferOwnership",
      "outputs": [],
      "stateMutability": "nonpayable",
      "type": "function"
    }
  ],
  "bytecode": "0x60806040523480156200001157600080fd5b506040518060400160405280600681526020017f5447544e465400000000000000000000000000000000000000000000000000008152506040518060400160405280600681526020017f5447544e4654000000000000000000000000000000000000000000000000000081525081600090816200008f919062000412565b508060019081620000a1919062000412565b505050620000c4620000b8620000ca60201b60201c565b620000d260201b60201c565b620004f9565b600033905090565b6000600b60009054906101000a900473ffffffffffffffffffffffffffffffffffffffff16905081600b60006101000a81548173ffffffffffffffffffffffffffffffffffffffff021916908373ffffffffffffffffffffffffffffffffffffffff1602179055508173ffffffffffffffffffffffffffffffffffffffff168173ffffffffffffffffffffffffffffffffffffffff167f8be0079c531659141344cd1fd0a4f28419497f9722a3daafe3b4186f6b6457e060405160405180910390a35050565b600081519050919050565b7f4e487b7100000000000000000000000000000000000000000000000000000000600052604160045260246000fd5b7f4e487b7100000000000000000000000000000000000000000000000000000000600052602260045260246000fd5b600060028204905060018216806200021a57607f821691505b60208210810362000230576200022f620001d2565b5b50919050565b60008190508160005260206000209050919050565b60006020601f8301049050919050565b600082821b905092915050565b6000600883026200029a7fffffffffffffffffffffffffffffffffffffffffffffffffffffffffffffffff826200025b565b620002a686836200025b565b95508019841693508086168417925050509392505050565b6000819050919050565b6000819050919050565b6000620002f3620002ed620002e784620002be565b620002c8565b620002be565b9050919050565b6000819050919050565b6200030f83620002d2565b620003276200031e82620002fa565b84845462000268565b825550505050565b600090565b6200033e6200032f565b6200034b81848462000304565b505050565b5b8181101562000373576200036760008262000334565b60018101905062000351565b5050565b601f821115620003c2576200038c8162000236565b62000397846200024b565b81016020851015620003a7578190505b620003bf620003b6856200024b565b83018262000350565b50505b505050565b600082821c905092915050565b6000620003e760001984600802620003c7565b1980831691505092915050565b6000620004028383620003d4565b9150826002028217905092915050565b6200041d8262000198565b67ffffffffffffffff811115620004395762000438620001a3565b5b62000445825462000201565b6200045282828562000377565b600060209050601f8311600181146200048a576000841562000475578287015190505b620004818582620003f4565b865550620004f1565b601f1984166200049a8662000236565b60005b82811015620004c4578489015182556001820191506020850194506020810190506200049d565b86831015620004e45784890151620004e0601f891682620003d4565b8355505b6001600288020188555050505b505050505050565b613b8a80620005096000396000f3fe608060405234801561001057600080fd5b50600436106101375760003560e01c80636352211e116100b8578063a22cb4651161007c578063a22cb4651461034e578063b88d4fde1461036a578063c87b56dd14610386578063d204c45e146103b6578063e985e9c5146103d2578063f2fde38b1461040257610137565b80636352211e146102a857806370a08231146102d8578063715018a6146103085780638da5cb5b1461031257806395d89b411461033057610137565b806323b872dd116100ff57806323b872dd146101f45780632f745c591461021057806342842e0e1461024057806342966c681461025c5780634f6ccce71461027857610137565b806301ffc9a71461013c57806306fdde031461016c578063081812fc1461018a578063095ea7b3146101ba57806318160ddd146101d6575b600080fd5b61015660048036038101906101519190612693565b61041e565b60405161016391906126db565b60405180910390f35b610174610430565b6040516101819190612786565b60405180910390f35b6101a4600480360381019061019f91906127de565b6104c2565b6040516101b1919061284c565b60405180910390f35b6101d460048036038101906101cf9190612893565b610508565b005b6101de61061f565b6040516101eb91906128e2565b60405180910390f35b61020e600480360381019061020991906128fd565b61062c565b005b61022a60048036038101906102259190612893565b61068c565b60405161023791906128e2565b60405180910390f35b61025a600480360381019061025591906128fd565b610731565b005b610276600480360381019061027191906127de565b610751565b005b610292600480360381019061028d91906127de565b6107ad565b60405161029f91906128e2565b60405180910390f35b6102c260048036038101906102bd91906127de565b61081e565b6040516102cf919061284c565b60405180910390f35b6102f260048036038101906102ed9190612950565b6108a4565b6040516102ff91906128e2565b60405180910390f35b61031061095b565b005b61031a61096f565b604051610327919061284c565b60405180910390f35b610338610999565b6040516103459190612786565b60405180910390f35b610368600480360381019061036391906129a9565b610a2b565b005b610384600480360381019061037f9190612b1e565b610a41565b005b6103a0600480360381019061039b91906127de565b610aa3565b6040516103ad9190612786565b60405180910390f35b6103d060048036038101906103cb9190612c42565b610ab5565b005b6103ec60048036038101906103e79190612c9e565b610aee565b6040516103f991906126db565b60405180910390f35b61041c60048036038101906104179190612950565b610b82565b005b600061042982610c05565b9050919050565b60606000805461043f90612d0d565b80601f016020809104026020016040519081016040528092919081815260200182805461046b90612d0d565b80156104b85780601f1061048d576101008083540402835291602001916104b8565b820191906000526020600020905b81548152906001019060200180831161049b57829003601f168201915b5050505050905090565b60006104cd82610c7f565b6004600083815260200190815260200160002060009054906101000a900473ffffffffffffffffffffffffffffffffffffffff169050919050565b60006105138261081e565b90508073ffffffffffffffffffffffffffffffffffffffff168373ffffffffffffffffffffffffffffffffffffffff1603610583576040517f08c379a000000000000000000000000000000000000000000000000000000000815260040161057a90612db0565b60405180910390fd5b8073ffffffffffffffffffffffffffffffffffffffff166105a2610cca565b73ffffffffffffffffffffffffffffffffffffffff1614806105d157506105d0816105cb610cca565b610aee565b5b610610576040517f08c379a000000000000000000000000000000000000000000000000000000000815260040161060790612e42565b60405180910390fd5b61061a8383610cd2565b505050565b6000600880549050905090565b61063d610637610cca565b82610d8b565b61067c576040517f08c379a000000000000000000000000000000000000000000000000000000000815260040161067390612ed4565b60405180910390fd5b610687838383610e20565b505050565b6000610697836108a4565b82106106d8576040517f08c379a00000000000000000000000000000000000000000000000000000000081526004016106cf90612f66565b60405180910390fd5b600660008473ffffffffffffffffffffffffffffffffffffffff1673ffffffffffffffffffffffffffffffffffffffff168152602001908152602001600020600083815260200190815260200160002054905092915050565b61074c83838360405180602001604052806000815250610a41565b505050565b61076261075c610cca565b82610d8b565b6107a1576040517f08c379a000000000000000000000000000000000000000000000000000000000815260040161079890612ed4565b60405180910390fd5b6107aa81611119565b50565b60006107b761061f565b82106107f8576040517f08c379a00000000000000000000000000000000000000000000000000000000081526004016107ef90612ff8565b60405180910390fd5b6008828154811061080c5761080b613018565b5b90600052602060002001549050919050565b60008061082a83611125565b9050600073ffffffffffffffffffffffffffffffffffffffff168173ffffffffffffffffffffffffffffffffffffffff160361089b576040517f08c379a000000000000000000000000000000000000000000000000000000000815260040161089290613093565b60405180910390fd5b80915050919050565b60008073ffffffffffffffffffffffffffffffffffffffff168273ffffffffffffffffffffffffffffffffffffffff1603610914576040517f08c379a000000000000000000000000000000000000000000000000000000000815260040161090b90613125565b60405180910390fd5b600360008373ffffffffffffffffffffffffffffffffffffffff1673ffffffffffffffffffffffffffffffffffffffff168152602001908152602001600020549050919050565b610963611162565b61096d60006111e0565b565b6000600b60009054906101000a900473ffffffffffffffffffffffffffffffffffffffff16905090565b6060600180546109a890612d0d565b80601f01602080910402602001604051908101604052809291908181526020018280546109d490612d0d565b8015610a215780601f106109f657610100808354040283529160200191610a21565b820191906000526020600020905b815481529060010190602001808311610a0457829003601f168201915b5050505050905090565b610a3d610a36610cca565b83836112a6565b5050565b610a52610a4c610cca565b83610d8b565b610a91576040517f08c379a0000000000000000000000000000000000000000000000000000000008152600401610a8890612ed4565b60405180910390fd5b610a9d84848484611412565b50505050565b6060610aae8261146e565b9050919050565b610abd611162565b6000610ac9600c611580565b9050610ad5600c61158e565b610adf83826115a4565b610ae981836115c2565b505050565b6000600560008473ffffffffffffffffffffffffffffffffffffffff1673ffffffffffffffffffffffffffffffffffffffff16815260200190815260200160002060008373ffffffffffffffffffffffffffffffffffffffff1673ffffffffffffffffffffffffffffffffffffffff16815260200190815260200160002060009054906101000a900460ff16905092915050565b610b8a611162565b600073ffffffffffffffffffffffffffffffffffffffff168173ffffffffffffffffffffffffffffffffffffffff1603610bf9576040517f08c379a0000000000000000000000000000000000000000000000000000000008152600401610bf0906131b7565b60405180910390fd5b610c02816111e0565b50565b60007f780e9d63000000000000000000000000000000000000000000000000000000007bffffffffffffffffffffffffffffffffffffffffffffffffffffffff1916827bffffffffffffffffffffffffffffffffffffffffffffffffffffffff19161480610c785750610c778261162f565b5b9050919050565b610c8881611711565b610cc7576040517f08c379a0000000000000000000000000000000000000000000000000000000008152600401610cbe90613093565b60405180910390fd5b50565b600033905090565b816004600083815260200190815260200160002060006101000a81548173ffffffffffffffffffffffffffffffffffffffff021916908373ffffffffffffffffffffffffffffffffffffffff160217905550808273ffffffffffffffffffffffffffffffffffffffff16610d458361081e565b73ffffffffffffffffffffffffffffffffffffffff167f8c5be1e5ebec7d5bd14f71427d1e84f3dd0314c0f7b2291e5b200ac8c7c3b92560405160405180910390a45050565b600080610d978361081e565b90508073ffffffffffffffffffffffffffffffffffffffff168473ffffffffffffffffffffffffffffffffffffffff161480610dd95750610dd88185610aee565b5b80610e1757508373ffffffffffffffffffffffffffffffffffffffff16610dff846104c2565b73ffffffffffffffffffffffffffffffffffffffff16145b91505092915050565b8273ffffffffffffffffffffffffffffffffffffffff16610e408261081e565b73ffffffffffffffffffffffffffffffffffffffff1614610e96576040517f08c379a0000000000000000000000000000000000000000000000000000000008152600401610e8d90613249565b60405180910390fd5b600073ffffffffffffffffffffffffffffffffffffffff168273ffffffffffffffffffffffffffffffffffffffff1603610f05576040517f08c379a0000000000000000000000000000000000000000000000000000000008152600401610efc906132db565b60405180910390fd5b610f128383836001611752565b8273ffffffffffffffffffffffffffffffffffffffff16610f328261081e565b73ffffffffffffffffffffffffffffffffffffffff1614610f88576040517f08c379a0000000000000000000000000000000000000000000000000000000008152600401610f7f90613249565b60405180910390fd5b6004600082815260200190815260200160002060006101000a81549073ffffffffffffffffffffffffffffffffffffffff02191690556001600360008573ffffffffffffffffffffffffffffffffffffffff1673ffffffffffffffffffffffffffffffffffffffff168152602001908152602001600020600082825403925050819055506001600360008473ffffffffffffffffffffffffffffffffffffffff1673ffffffffffffffffffffffffffffffffffffffff16815260200190815260200160002060008282540192505081905550816002600083815260200190815260200160002060006101000a81548173ffffffffffffffffffffffffffffffffffffffff021916908373ffffffffffffffffffffffffffffffffffffffff160217905550808273ffffffffffffffffffffffffffffffffffffffff168473ffffffffffffffffffffffffffffffffffffffff167fddf252ad1be2c89b69c2b068fc378daa952ba7f163c4a11628f55a4df523b3ef60405160405180910390a46111148383836001611764565b505050565b6111228161176a565b50565b60006002600083815260200190815260200160002060009054906101000a900473ffffffffffffffffffffffffffffffffffffffff169050919050565b61116a610cca565b73ffffffffffffffffffffffffffffffffffffffff1661118861096f565b73ffffffffffffffffffffffffffffffffffffffff16146111de576040517f08c379a00000000000000000000000000000000000000000000000000000000081526004016111d590613347565b60405180910390fd5b565b6000600b60009054906101000a900473ffffffffffffffffffffffffffffffffffffffff16905081600b60006101000a81548173ffffffffffffffffffffffffffffffffffffffff021916908373ffffffffffffffffffffffffffffffffffffffff1602179055508173ffffffffffffffffffffffffffffffffffffffff168173ffffffffffffffffffffffffffffffffffffffff167f8be0079c531659141344cd1fd0a4f28419497f9722a3daafe3b4186f6b6457e060405160405180910390a35050565b8173ffffffffffffffffffffffffffffffffffffffff168373ffffffffffffffffffffffffffffffffffffffff1603611314576040517f08c379a000000000000000000000000000000000000000000000000000000000815260040161130b906133b3565b60405180910390fd5b80600560008573ffffffffffffffffffffffffffffffffffffffff1673ffffffffffffffffffffffffffffffffffffffff16815260200190815260200160002060008473ffffffffffffffffffffffffffffffffffffffff1673ffffffffffffffffffffffffffffffffffffffff16815260200190815260200160002060006101000a81548160ff0219169083151502179055508173ffffffffffffffffffffffffffffffffffffffff168373ffffffffffffffffffffffffffffffffffffffff167f17307eab39ab6107e8899845ad3d59bd9653f200f220920489ca2b5937696c318360405161140591906126db565b60405180910390a3505050565b61141d848484610e20565b611429848484846117bd565b611468576040517f08c379a000000000000000000000000000000000000000000000000000000000815260040161145f90613445565b60405180910390fd5b50505050565b606061147982610c7f565b6000600a6000848152602001908152602001600020805461149990612d0d565b80601f01602080910402602001604051908101604052809291908181526020018280546114c590612d0d565b80156115125780601f106114e757610100808354040283529160200191611512565b820191906000526020600020905b8154815290600101906020018083116114f557829003601f168201915b505050505090506000611523611944565b9050600081510361153857819250505061157b565b60008251111561156d5780826040516020016115559291906134a1565b6040516020818303038152906040529250505061157b565b61157684611964565b925050505b919050565b600081600001549050919050565b6001816000016000828254019250508190555050565b6115be8282604051806020016040528060008152506119cc565b5050565b6115cb82611711565b61160a576040517f08c379a000000000000000000000000000000000000000000000000000000000815260040161160190613537565b60405180910390fd5b80600a6000848152602001908152602001600020908161162a9190613703565b505050565b60007f80ac58cd000000000000000000000000000000000000000000000000000000007bffffffffffffffffffffffffffffffffffffffffffffffffffffffff1916827bffffffffffffffffffffffffffffffffffffffffffffffffffffffff191614806116fa57507f5b5e139f000000000000000000000000000000000000000000000000000000007bffffffffffffffffffffffffffffffffffffffffffffffffffffffff1916827bffffffffffffffffffffffffffffffffffffffffffffffffffffffff1916145b8061170a575061170982611a27565b5b9050919050565b60008073ffffffffffffffffffffffffffffffffffffffff1661173383611125565b73ffffffffffffffffffffffffffffffffffffffff1614159050919050565b61175e84848484611a91565b50505050565b50505050565b61177381611bef565b6000600a6000838152602001908152602001600020805461179390612d0d565b9050146117ba57600a600082815260200190815260200160002060006117b991906125ca565b5b50565b60006117de8473ffffffffffffffffffffffffffffffffffffffff16611d3d565b15611937578373ffffffffffffffffffffffffffffffffffffffff1663150b7a02611807610cca565b8786866040518563ffffffff1660e01b8152600401611829949392919061382a565b6020604051808303816000875af192505050801561186557506040513d601f19601f82011682018060405250810190611862919061388b565b60015b6118e7573d8060008114611895576040519150601f19603f3d011682016040523d82523d6000602084013e61189a565b606091505b5060008151036118df576040517f08c379a00000000000000000000000000000000000000000000000000000000081526004016118d690613445565b60405180910390fd5b805181602001fd5b63150b7a0260e01b7bffffffffffffffffffffffffffffffffffffffffffffffffffffffff1916817bffffffffffffffffffffffffffffffffffffffffffffffffffffffff19161491505061193c565b600190505b949350505050565b60606040518060600160405280603d8152602001613b18603d9139905090565b606061196f82610c7f565b6000611979611944565b9050600081511161199957604051806020016040528060008152506119c4565b806119a384611d60565b6040516020016119b49291906134a1565b6040516020818303038152906040525b915050919050565b6119d68383611e2e565b6119e360008484846117bd565b611a22576040517f08c379a0000000000000000000000000000000000000000000000000000000008152600401611a1990613445565b60405180910390fd5b505050565b60007f01ffc9a7000000000000000000000000000000000000000000000000000000007bffffffffffffffffffffffffffffffffffffffffffffffffffffffff1916827bffffffffffffffffffffffffffffffffffffffffffffffffffffffff1916149050919050565b611a9d8484848461204b565b6001811115611ae1576040517f08c379a0000000000000000000000000000000000000000000000000000000008152600401611ad89061392a565b60405180910390fd5b6000829050600073ffffffffffffffffffffffffffffffffffffffff168573ffffffffffffffffffffffffffffffffffffffff1603611b2857611b2381612171565b611b67565b8373ffffffffffffffffffffffffffffffffffffffff168573ffffffffffffffffffffffffffffffffffffffff1614611b6657611b6585826121ba565b5b5b600073ffffffffffffffffffffffffffffffffffffffff168473ffffffffffffffffffffffffffffffffffffffff1603611ba957611ba481612327565b611be8565b8473ffffffffffffffffffffffffffffffffffffffff168473ffffffffffffffffffffffffffffffffffffffff1614611be757611be684826123f8565b5b5b5050505050565b6000611bfa8261081e565b9050611c0a816000846001611752565b611c138261081e565b90506004600083815260200190815260200160002060006101000a81549073ffffffffffffffffffffffffffffffffffffffff02191690556001600360008373ffffffffffffffffffffffffffffffffffffffff1673ffffffffffffffffffffffffffffffffffffffff168152602001908152602001600020600082825403925050819055506002600083815260200190815260200160002060006101000a81549073ffffffffffffffffffffffffffffffffffffffff021916905581600073ffffffffffffffffffffffffffffffffffffffff168273ffffffffffffffffffffffffffffffffffffffff167fddf252ad1be2c89b69c2b068fc378daa952ba7f163c4a11628f55a4df523b3ef60405160405180910390a4611d39816000846001611764565b5050565b6000808273ffffffffffffffffffffffffffffffffffffffff163b119050919050565b606060006001611d6f84612477565b01905060008167ffffffffffffffff811115611d8e57611d8d6129f3565b5b6040519080825280601f01601f191660200182016040528015611dc05781602001600182028036833780820191505090505b509050600082602001820190505b600115611e23578080600190039150507f3031323334353637383961626364656600000000000000000000000000000000600a86061a8153600a8581611e1757611e1661394a565b5b04945060008503611dce575b819350505050919050565b600073ffffffffffffffffffffffffffffffffffffffff168273ffffffffffffffffffffffffffffffffffffffff1603611e9d576040517f08c379a0000000000000000000000000000000000000000000000000000000008152600401611e94906139c5565b60405180910390fd5b611ea681611711565b15611ee6576040517f08c379a0000000000000000000000000000000000000000000000000000000008152600401611edd90613a31565b60405180910390fd5b611ef4600083836001611752565b611efd81611711565b15611f3d576040517f08c379a0000000000000000000000000000000000000000000000000000000008152600401611f3490613a31565b60405180910390fd5b6001600360008473ffffffffffffffffffffffffffffffffffffffff1673ffffffffffffffffffffffffffffffffffffffff16815260200190815260200160002060008282540192505081905550816002600083815260200190815260200160002060006101000a81548173ffffffffffffffffffffffffffffffffffffffff021916908373ffffffffffffffffffffffffffffffffffffffff160217905550808273ffffffffffffffffffffffffffffffffffffffff16600073ffffffffffffffffffffffffffffffffffffffff167fddf252ad1be2c89b69c2b068fc378daa952ba7f163c4a11628f55a4df523b3ef60405160405180910390a4612047600083836001611764565b5050565b600181111561216b57600073ffffffffffffffffffffffffffffffffffffffff168473ffffffffffffffffffffffffffffffffffffffff16146120df5780600360008673ffffffffffffffffffffffffffffffffffffffff1673ffffffffffffffffffffffffffffffffffffffff16815260200190815260200160002060008282546120d79190613a80565b925050819055505b600073ffffffffffffffffffffffffffffffffffffffff168373ffffffffffffffffffffffffffffffffffffffff161461216a5780600360008573ffffffffffffffffffffffffffffffffffffffff1673ffffffffffffffffffffffffffffffffffffffff16815260200190815260200160002060008282546121629190613ab4565b925050819055505b5b50505050565b6008805490506009600083815260200190815260200160002081905550600881908060018154018082558091505060019003906000526020600020016000909190919091505550565b600060016121c7846108a4565b6121d19190613a80565b90506000600760008481526020019081526020016000205490508181146122b6576000600660008673ffffffffffffffffffffffffffffffffffffffff1673ffffffffffffffffffffffffffffffffffffffff168152602001908152602001600020600084815260200190815260200160002054905080600660008773ffffffffffffffffffffffffffffffffffffffff1673ffffffffffffffffffffffffffffffffffffffff168152602001908152602001600020600084815260200190815260200160002081905550816007600083815260200190815260200160002081905550505b6007600084815260200190815260200160002060009055600660008573ffffffffffffffffffffffffffffffffffffffff1673ffffffffffffffffffffffffffffffffffffffff16815260200190815260200160002060008381526020019081526020016000206000905550505050565b6000600160088054905061233b9190613a80565b905060006009600084815260200190815260200160002054905060006008838154811061236b5761236a613018565b5b90600052602060002001549050806008838154811061238d5761238c613018565b5b9060005260206000200181905550816009600083815260200190815260200160002081905550600960008581526020019081526020016000206000905560088054806123dc576123db613ae8565b5b6001900381819060005260206000200160009055905550505050565b6000612403836108a4565b905081600660008573ffffffffffffffffffffffffffffffffffffffff1673ffffffffffffffffffffffffffffffffffffffff168152602001908152602001600020600083815260200190815260200160002081905550806007600084815260200190815260200160002081905550505050565b600080600090507a184f03e93ff9f4daa797ed6e38ed64bf6a1f01000000000000000083106124d5577a184f03e93ff9f4daa797ed6e38ed64bf6a1f01000000000000000083816124cb576124ca61394a565b5b0492506040810190505b6d04ee2d6d415b85acef81000000008310612512576d04ee2d6d415b85acef810000000083816125085761250761394a565b5b0492506020810190505b662386f26fc10000831061254157662386f26fc1000083816125375761253661394a565b5b0492506010810190505b6305f5e100831061256a576305f5e10083816125605761255f61394a565b5b0492506008810190505b612710831061258f5761271083816125855761258461394a565b5b0492506004810190505b606483106125b257606483816125a8576125a761394a565b5b0492506002810190505b600a83106125c1576001810190505b80915050919050565b5080546125d690612d0d565b6000825580601f106125e85750612607565b601f016020900490600052602060002090810190612606919061260a565b5b50565b5b8082111561262357600081600090555060010161260b565b5090565b6000604051905090565b600080fd5b600080fd5b60007fffffffff0000000000000000000000000000000000000000000000000000000082169050919050565b6126708161263b565b811461267b57600080fd5b50565b60008135905061268d81612667565b92915050565b6000602082840312156126a9576126a8612631565b5b60006126b78482850161267e565b91505092915050565b60008115159050919050565b6126d5816126c0565b82525050565b60006020820190506126f060008301846126cc565b92915050565b600081519050919050565b600082825260208201905092915050565b60005b83811015612730578082015181840152602081019050612715565b60008484015250505050565b6000601f19601f8301169050919050565b6000612758826126f6565b6127628185612701565b9350612772818560208601612712565b61277b8161273c565b840191505092915050565b600060208201905081810360008301526127a0818461274d565b905092915050565b6000819050919050565b6127bb816127a8565b81146127c657600080fd5b50565b6000813590506127d8816127b2565b92915050565b6000602082840312156127f4576127f3612631565b5b6000612802848285016127c9565b91505092915050565b600073ffffffffffffffffffffffffffffffffffffffff82169050919050565b60006128368261280b565b9050919050565b6128468161282b565b82525050565b6000602082019050612861600083018461283d565b92915050565b6128708161282b565b811461287b57600080fd5b50565b60008135905061288d81612867565b92915050565b600080604083850312156128aa576128a9612631565b5b60006128b88582860161287e565b92505060206128c9858286016127c9565b9150509250929050565b6128dc816127a8565b82525050565b60006020820190506128f760008301846128d3565b92915050565b60008060006060848603121561291657612915612631565b5b60006129248682870161287e565b93505060206129358682870161287e565b9250506040612946868287016127c9565b9150509250925092565b60006020828403121561296657612965612631565b5b60006129748482850161287e565b91505092915050565b612986816126c0565b811461299157600080fd5b50565b6000813590506129a38161297d565b92915050565b600080604083850312156129c0576129bf612631565b5b60006129ce8582860161287e565b92505060206129df85828601612994565b9150509250929050565b600080fd5b600080fd5b7f4e487b7100000000000000000000000000000000000000000000000000000000600052604160045260246000fd5b612a2b8261273c565b810181811067ffffffffffffffff82111715612a4a57612a496129f3565b5b80604052505050565b6000612a5d612627565b9050612a698282612a22565b919050565b600067ffffffffffffffff821115612a8957612a886129f3565b5b612a928261273c565b9050602081019050919050565b82818337600083830152505050565b6000612ac1612abc84612a6e565b612a53565b905082815260208101848484011115612add57612adc6129ee565b5b612ae8848285612a9f565b509392505050565b600082601f830112612b0557612b046129e9565b5b8135612b15848260208601612aae565b91505092915050565b60008060008060808587031215612b3857612b37612631565b5b6000612b468782880161287e565b9450506020612b578782880161287e565b9350506040612b68878288016127c9565b925050606085013567ffffffffffffffff811115612b8957612b88612636565b5b612b9587828801612af0565b91505092959194509250565b600067ffffffffffffffff821115612bbc57612bbb6129f3565b5b612bc58261273c565b9050602081019050919050565b6000612be5612be084612ba1565b612a53565b905082815260208101848484011115612c0157612c006129ee565b5b612c0c848285612a9f565b509392505050565b600082601f830112612c2957612c286129e9565b5b8135612c39848260208601612bd2565b91505092915050565b60008060408385031215612c5957612c58612631565b5b6000612c678582860161287e565b925050602083013567ffffffffffffffff811115612c8857612c87612636565b5b612c9485828601612c14565b9150509250929050565b60008060408385031215612cb557612cb4612631565b5b6000612cc38582860161287e565b9250506020612cd48582860161287e565b9150509250929050565b7f4e487b7100000000000000000000000000000000000000000000000000000000600052602260045260246000fd5b60006002820490506001821680612d2557607f821691505b602082108103612d3857612d37612cde565b5b50919050565b7f4552433732313a20617070726f76616c20746f2063757272656e74206f776e6560008201527f7200000000000000000000000000000000000000000000000000000000000000602082015250565b6000612d9a602183612701565b9150612da582612d3e565b604082019050919050565b60006020820190508181036000830152612dc981612d8d565b9050919050565b7f4552433732313a20617070726f76652063616c6c6572206973206e6f7420746f60008201527f6b656e206f776e6572206f7220617070726f76656420666f7220616c6c000000602082015250565b6000612e2c603d83612701565b9150612e3782612dd0565b604082019050919050565b60006020820190508181036000830152612e5b81612e1f565b9050919050565b7f4552433732313a2063616c6c6572206973206e6f7420746f6b656e206f776e6560008201527f72206f7220617070726f76656400000000000000000000000000000000000000602082015250565b6000612ebe602d83612701565b9150612ec982612e62565b604082019050919050565b60006020820190508181036000830152612eed81612eb1565b9050919050565b7f455243373231456e756d657261626c653a206f776e657220696e646578206f7560008201527f74206f6620626f756e6473000000000000000000000000000000000000000000602082015250565b6000612f50602b83612701565b9150612f5b82612ef4565b604082019050919050565b60006020820190508181036000830152612f7f81612f43565b9050919050565b7f455243373231456e756d657261626c653a20676c6f62616c20696e646578206f60008201527f7574206f6620626f756e64730000000000000000000000000000000000000000602082015250565b6000612fe2602c83612701565b9150612fed82612f86565b604082019050919050565b6000602082019050818103600083015261301181612fd5565b9050919050565b7f4e487b7100000000000000000000000000000000000000000000000000000000600052603260045260246000fd5b7f4552433732313a20696e76616c696420746f6b656e2049440000000000000000600082015250565b600061307d601883612701565b915061308882613047565b602082019050919050565b600060208201905081810360008301526130ac81613070565b9050919050565b7f4552433732313a2061646472657373207a65726f206973206e6f74206120766160008201527f6c6964206f776e65720000000000000000000000000000000000000000000000602082015250565b600061310f602983612701565b915061311a826130b3565b604082019050919050565b6000602082019050818103600083015261313e81613102565b9050919050565b7f4f776e61626c653a206e6577206f776e657220697320746865207a65726f206160008201527f6464726573730000000000000000000000000000000000000000000000000000602082015250565b60006131a1602683612701565b91506131ac82613145565b604082019050919050565b600060208201905081810360008301526131d081613194565b9050919050565b7f4552433732313a207472616e736665722066726f6d20696e636f72726563742060008201527f6f776e6572000000000000000000000000000000000000000000000000000000602082015250565b6000613233602583612701565b915061323e826131d7565b604082019050919050565b6000602082019050818103600083015261326281613226565b9050919050565b7f4552433732313a207472616e7366657220746f20746865207a65726f2061646460008201527f7265737300000000000000000000000000000000000000000000000000000000602082015250565b60006132c5602483612701565b91506132d082613269565b604082019050919050565b600060208201905081810360008301526132f4816132b8565b9050919050565b7f4f776e61626c653a2063616c6c6572206973206e6f7420746865206f776e6572600082015250565b6000613331602083612701565b915061333c826132fb565b602082019050919050565b6000602082019050818103600083015261336081613324565b9050919050565b7f4552433732313a20617070726f766520746f2063616c6c657200000000000000600082015250565b600061339d601983612701565b91506133a882613367565b602082019050919050565b600060208201905081810360008301526133cc81613390565b9050919050565b7f4552433732313a207472616e7366657220746f206e6f6e20455243373231526560008201527f63656976657220696d706c656d656e7465720000000000000000000000000000602082015250565b600061342f603283612701565b915061343a826133d3565b604082019050919050565b6000602082019050818103600083015261345e81613422565b9050919050565b600081905092915050565b600061347b826126f6565b6134858185613465565b9350613495818560208601612712565b80840191505092915050565b60006134ad8285613470565b91506134b98284613470565b91508190509392505050565b7f45524337323155524953746f726167653a2055524920736574206f66206e6f6e60008201527f6578697374656e7420746f6b656e000000000000000000000000000000000000602082015250565b6000613521602e83612701565b915061352c826134c5565b604082019050919050565b6000602082019050818103600083015261355081613514565b9050919050565b60008190508160005260206000209050919050565b60006020601f8301049050919050565b600082821b905092915050565b6000600883026135b97fffffffffffffffffffffffffffffffffffffffffffffffffffffffffffffffff8261357c565b6135c3868361357c565b95508019841693508086168417925050509392505050565b6000819050919050565b60006136006135fb6135f6846127a8565b6135db565b6127a8565b9050919050565b6000819050919050565b61361a836135e5565b61362e61362682613607565b848454613589565b825550505050565b600090565b613643613636565b61364e818484613611565b505050565b5b818110156136725761366760008261363b565b600181019050613654565b5050565b601f8211156136b75761368881613557565b6136918461356c565b810160208510156136a0578190505b6136b46136ac8561356c565b830182613653565b50505b505050565b600082821c905092915050565b60006136da600019846008026136bc565b1980831691505092915050565b60006136f383836136c9565b9150826002028217905092915050565b61370c826126f6565b67ffffffffffffffff811115613725576137246129f3565b5b61372f8254612d0d565b61373a828285613676565b600060209050601f83116001811461376d576000841561375b578287015190505b61376585826136e7565b8655506137cd565b601f19841661377b86613557565b60005b828110156137a35784890151825560018201915060208501945060208101905061377e565b868310156137c057848901516137bc601f8916826136c9565b8355505b6001600288020188555050505b505050505050565b600081519050919050565b600082825260208201905092915050565b60006137fc826137d5565b61380681856137e0565b9350613816818560208601612712565b61381f8161273c565b840191505092915050565b600060808201905061383f600083018761283d565b61384c602083018661283d565b61385960408301856128d3565b818103606083015261386b81846137f1565b905095945050505050565b60008151905061388581612667565b92915050565b6000602082840312156138a1576138a0612631565b5b60006138af84828501613876565b91505092915050565b7f455243373231456e756d657261626c653a20636f6e736563757469766520747260008201527f616e7366657273206e6f7420737570706f727465640000000000000000000000602082015250565b6000613914603583612701565b915061391f826138b8565b604082019050919050565b6000602082019050818103600083015261394381613907565b9050919050565b7f4e487b7100000000000000000000000000000000000000000000000000000000600052601260045260246000fd5b7f4552433732313a206d696e7420746f20746865207a65726f2061646472657373600082015250565b60006139af602083612701565b91506139ba82613979565b602082019050919050565b600060208201905081810360008301526139de816139a2565b9050919050565b7f4552433732313a20746f6b656e20616c7265616479206d696e74656400000000600082015250565b6000613a1b601c83612701565b9150613a26826139e5565b602082019050919050565b60006020820190508181036000830152613a4a81613a0e565b9050919050565b7f4e487b7100000000000000000000000000000000000000000000000000000000600052601160045260246000fd5b6000613a8b826127a8565b9150613a96836127a8565b9250828203905081811115613aae57613aad613a51565b5b92915050565b6000613abf826127a8565b9150613aca836127a8565b9250828201905080821115613ae257613ae1613a51565b5b92915050565b7f4e487b7100000000000000000000000000000000000000000000000000000000600052603160045260246000fdfe68747470733a2f2f7467742d6861636b6174686f6e2d63656c6f2e6769746875622e696f2f686172646861742d626f696c6572706c6163652f6e66742fa2646970667358221220f03c027046dce6d47045239bc2e2a3663bac5cfb20bb3b9ba702ed70e78c3f8764736f6c63430008110033",
  "linkReferences": {},
  "deployedLinkReferences": {}
}