{
  "_format": "hh-sol-artifact-1",
  "contractName": "OdoyaNFT",
  "sourceName": "contracts/OdoyaNFT.sol",
  "abi": [
    {
      "inputs": [
        {
          "internalType": "string",
          "name": "_title",
          "type": "string"
        },
        {
          "internalType": "string",
          "name": "_symbol",
          "type": "string"
        }
      ],
      "stateMutability": "nonpayable",
      "type": "constructor"
    },
    {
      "anonymous": false,
      "inputs": [
        {
          "indexed": true,
          "internalType": "address",
          "name": "owner",
          "type": "address"
        },
        {
          "indexed": true,
          "internalType": "address",
          "name": "approved",
          "type": "address"
        },
        {
          "indexed": true,
          "internalType": "uint256",
          "name": "tokenId",
          "type": "uint256"
        }
      ],
      "name": "Approval",
      "type": "event"
    },
    {
      "anonymous": false,
      "inputs": [
        {
          "indexed": true,
          "internalType": "address",
          "name": "owner",
          "type": "address"
        },
        {
          "indexed": true,
          "internalType": "address",
          "name": "operator",
          "type": "address"
        },
        {
          "indexed": false,
          "internalType": "bool",
          "name": "approved",
          "type": "bool"
        }
      ],
      "name": "ApprovalForAll",
      "type": "event"
    },
    {
      "anonymous": false,
      "inputs": [
        {
          "indexed": true,
          "internalType": "address",
          "name": "previousOwner",
          "type": "address"
        },
        {
          "indexed": true,
          "internalType": "address",
          "name": "newOwner",
          "type": "address"
        }
      ],
      "name": "OwnershipTransferred",
      "type": "event"
    },
    {
      "anonymous": false,
      "inputs": [
        {
          "indexed": true,
          "internalType": "address",
          "name": "from",
          "type": "address"
        },
        {
          "indexed": true,
          "internalType": "address",
          "name": "to",
          "type": "address"
        },
        {
          "indexed": true,
          "internalType": "uint256",
          "name": "tokenId",
          "type": "uint256"
        }
      ],
      "name": "Transfer",
      "type": "event"
    },
    {
      "inputs": [
        {
          "internalType": "address",
          "name": "to",
          "type": "address"
        },
        {
          "internalType": "uint256",
          "name": "tokenId",
          "type": "uint256"
        }
      ],
      "name": "approve",
      "outputs": [],
      "stateMutability": "nonpayable",
      "type": "function"
    },
    {
      "inputs": [
        {
          "internalType": "address",
          "name": "owner",
          "type": "address"
        }
      ],
      "name": "balanceOf",
      "outputs": [
        {
          "internalType": "uint256",
          "name": "",
          "type": "uint256"
        }
      ],
      "stateMutability": "view",
      "type": "function"
    },
    {
      "inputs": [
        {
          "internalType": "uint256",
          "name": "tokenId",
          "type": "uint256"
        }
      ],
      "name": "burn",
      "outputs": [],
      "stateMutability": "nonpayable",
      "type": "function"
    },
    {
      "inputs": [
        {
          "internalType": "uint256",
          "name": "tokenId",
          "type": "uint256"
        }
      ],
      "name": "getApproved",
      "outputs": [
        {
          "internalType": "address",
          "name": "",
          "type": "address"
        }
      ],
      "stateMutability": "view",
      "type": "function"
    },
    {
      "inputs": [
        {
          "internalType": "address",
          "name": "owner",
          "type": "address"
        },
        {
          "internalType": "address",
          "name": "operator",
          "type": "address"
        }
      ],
      "name": "isApprovedForAll",
      "outputs": [
        {
          "internalType": "bool",
          "name": "",
          "type": "bool"
        }
      ],
      "stateMutability": "view",
      "type": "function"
    },
    {
      "inputs": [],
      "name": "name",
      "outputs": [
        {
          "internalType": "string",
          "name": "",
          "type": "string"
        }
      ],
      "stateMutability": "view",
      "type": "function"
    },
    {
      "inputs": [],
      "name": "owner",
      "outputs": [
        {
          "internalType": "address",
          "name": "",
          "type": "address"
        }
      ],
      "stateMutability": "view",
      "type": "function"
    },
    {
      "inputs": [
        {
          "internalType": "uint256",
          "name": "tokenId",
          "type": "uint256"
        }
      ],
      "name": "ownerOf",
      "outputs": [
        {
          "internalType": "address",
          "name": "",
          "type": "address"
        }
      ],
      "stateMutability": "view",
      "type": "function"
    },
    {
      "inputs": [],
      "name": "renounceOwnership",
      "outputs": [],
      "stateMutability": "nonpayable",
      "type": "function"
    },
    {
      "inputs": [
        {
          "internalType": "address",
          "name": "to",
          "type": "address"
        }
      ],
      "name": "safeMint",
      "outputs": [],
      "stateMutability": "nonpayable",
      "type": "function"
    },
    {
      "inputs": [
        {
          "internalType": "address",
          "name": "from",
          "type": "address"
        },
        {
          "internalType": "address",
          "name": "to",
          "type": "address"
        },
        {
          "internalType": "uint256",
          "name": "tokenId",
          "type": "uint256"
        }
      ],
      "name": "safeTransferFrom",
      "outputs": [],
      "stateMutability": "nonpayable",
      "type": "function"
    },
    {
      "inputs": [
        {
          "internalType": "address",
          "name": "from",
          "type": "address"
        },
        {
          "internalType": "address",
          "name": "to",
          "type": "address"
        },
        {
          "internalType": "uint256",
          "name": "tokenId",
          "type": "uint256"
        },
        {
          "internalType": "bytes",
          "name": "data",
          "type": "bytes"
        }
      ],
      "name": "safeTransferFrom",
      "outputs": [],
      "stateMutability": "nonpayable",
      "type": "function"
    },
    {
      "inputs": [
        {
          "internalType": "address",
          "name": "operator",
          "type": "address"
        },
        {
          "internalType": "bool",
          "name": "approved",
          "type": "bool"
        }
      ],
      "name": "setApprovalForAll",
      "outputs": [],
      "stateMutability": "nonpayable",
      "type": "function"
    },
    {
      "inputs": [
        {
          "internalType": "bytes4",
          "name": "interfaceId",
          "type": "bytes4"
        }
      ],
      "name": "supportsInterface",
      "outputs": [
        {
          "internalType": "bool",
          "name": "",
          "type": "bool"
        }
      ],
      "stateMutability": "view",
      "type": "function"
    },
    {
      "inputs": [],
      "name": "symbol",
      "outputs": [
        {
          "internalType": "string",
          "name": "",
          "type": "string"
        }
      ],
      "stateMutability": "view",
      "type": "function"
    },
    {
      "inputs": [
        {
          "internalType": "uint256",
          "name": "index",
          "type": "uint256"
        }
      ],
      "name": "tokenByIndex",
      "outputs": [
        {
          "internalType": "uint256",
          "name": "",
          "type": "uint256"
        }
      ],
      "stateMutability": "view",
      "type": "function"
    },
    {
      "inputs": [
        {
          "internalType": "address",
          "name": "owner",
          "type": "address"
        },
        {
          "internalType": "uint256",
          "name": "index",
          "type": "uint256"
        }
      ],
      "name": "tokenOfOwnerByIndex",
      "outputs": [
        {
          "internalType": "uint256",
          "name": "",
          "type": "uint256"
        }
      ],
      "stateMutability": "view",
      "type": "function"
    },
    {
      "inputs": [
        {
          "internalType": "uint256",
          "name": "tokenId",
          "type": "uint256"
        }
      ],
      "name": "tokenURI",
      "outputs": [
        {
          "internalType": "string",
          "name": "",
          "type": "string"
        }
      ],
      "stateMutability": "view",
      "type": "function"
    },
    {
      "inputs": [],
      "name": "totalSupply",
      "outputs": [
        {
          "internalType": "uint256",
          "name": "",
          "type": "uint256"
        }
      ],
      "stateMutability": "view",
      "type": "function"
    },
    {
      "inputs": [
        {
          "internalType": "address",
          "name": "from",
          "type": "address"
        },
        {
          "internalType": "address",
          "name": "to",
          "type": "address"
        },
        {
          "internalType": "uint256",
          "name": "tokenId",
          "type": "uint256"
        }
      ],
      "name": "transferFrom",
      "outputs": [],
      "stateMutability": "nonpayable",
      "type": "function"
    },
    {
      "inputs": [
        {
          "internalType": "address",
          "name": "newOwner",
          "type": "address"
        }
      ],
      "name": "transferOwnership",
      "outputs": [],
      "stateMutability": "nonpayable",
      "type": "function"
    }
  ],
  "bytecode": "0x60806040523480156200001157600080fd5b50604051620021f3380380620021f3833981016040819052620000349162000193565b818160006200004483826200028c565b5060016200005382826200028c565b505050620000706200006a6200007860201b60201c565b6200007c565b505062000358565b3390565b600b80546001600160a01b038381166001600160a01b0319831681179093556040519116919082907f8be0079c531659141344cd1fd0a4f28419497f9722a3daafe3b4186f6b6457e090600090a35050565b634e487b7160e01b600052604160045260246000fd5b600082601f830112620000f657600080fd5b81516001600160401b0380821115620001135762000113620000ce565b604051601f8301601f19908116603f011681019082821181831017156200013e576200013e620000ce565b816040528381526020925086838588010111156200015b57600080fd5b600091505b838210156200017f578582018301518183018401529082019062000160565b600093810190920192909252949350505050565b60008060408385031215620001a757600080fd5b82516001600160401b0380821115620001bf57600080fd5b620001cd86838701620000e4565b93506020850151915080821115620001e457600080fd5b50620001f385828601620000e4565b9150509250929050565b600181811c908216806200021257607f821691505b6020821081036200023357634e487b7160e01b600052602260045260246000fd5b50919050565b601f8211156200028757600081815260208120601f850160051c81016020861015620002625750805b601f850160051c820191505b8181101562000283578281556001016200026e565b5050505b505050565b81516001600160401b03811115620002a857620002a8620000ce565b620002c081620002b98454620001fd565b8462000239565b602080601f831160018114620002f85760008415620002df5750858301515b600019600386901b1c1916600185901b17855562000283565b600085815260208120601f198616915b82811015620003295788860151825594840194600190910190840162000308565b5085821015620003485787850151600019600388901b60f8161c191681555b5050505050600190811b01905550565b611e8b80620003686000396000f3fe608060405234801561001057600080fd5b50600436106101375760003560e01c80634f6ccce7116100b857806395d89b411161007c57806395d89b411461027c578063a22cb46514610284578063b88d4fde14610297578063c87b56dd146102ab578063e985e9c5146102be578063f2fde38b146102fa57600080fd5b80634f6ccce71461022a5780636352211e1461023d57806370a0823114610250578063715018a6146102635780638da5cb5b1461026b57600080fd5b806323b872dd116100ff57806323b872dd146101cb5780632f745c59146101de57806340d097c3146101f157806342842e0e1461020457806342966c681461021757600080fd5b806301ffc9a71461013c57806306fdde0314610164578063081812fc14610179578063095ea7b3146101a457806318160ddd146101b9575b600080fd5b61014f61014a36600461183b565b61030d565b60405190151581526020015b60405180910390f35b61016c61031e565b60405161015b91906118a8565b61018c6101873660046118bb565b6103b0565b6040516001600160a01b03909116815260200161015b565b6101b76101b23660046118f0565b6103d7565b005b6008545b60405190815260200161015b565b6101b76101d936600461191a565b6104ec565b6101bd6101ec3660046118f0565b61051e565b6101b76101ff366004611956565b6105b4565b6101b761021236600461191a565b505050565b6101b76102253660046118bb565b610617565b6101bd6102383660046118bb565b610648565b61018c61024b3660046118bb565b6106db565b6101bd61025e366004611956565b61073b565b6101b76107c1565b600b546001600160a01b031661018c565b61016c6107d5565b6101b7610292366004611971565b6107e4565b6101b76102a53660046119c3565b50505050565b61016c6102b93660046118bb565b6107f3565b61014f6102cc366004611a9f565b6001600160a01b03918216600090815260056020908152604080832093909416825291909152205460ff1690565b6101b7610308366004611956565b6107fe565b600061031882610874565b92915050565b60606000805461032d90611ad2565b80601f016020809104026020016040519081016040528092919081815260200182805461035990611ad2565b80156103a65780601f1061037b576101008083540402835291602001916103a6565b820191906000526020600020905b81548152906001019060200180831161038957829003601f168201915b5050505050905090565b60006103bb82610899565b506000908152600460205260409020546001600160a01b031690565b60006103e2826106db565b9050806001600160a01b0316836001600160a01b0316036104545760405162461bcd60e51b815260206004820152602160248201527f4552433732313a20617070726f76616c20746f2063757272656e74206f776e656044820152603960f91b60648201526084015b60405180910390fd5b336001600160a01b0382161480610470575061047081336102cc565b6104e25760405162461bcd60e51b815260206004820152603d60248201527f4552433732313a20617070726f76652063616c6c6572206973206e6f7420746f60448201527f6b656e206f776e6572206f7220617070726f76656420666f7220616c6c000000606482015260840161044b565b61021283836108f8565b6104f7335b82610966565b6105135760405162461bcd60e51b815260040161044b90611b0c565b6102128383836109e5565b60006105298361073b565b821061058b5760405162461bcd60e51b815260206004820152602b60248201527f455243373231456e756d657261626c653a206f776e657220696e646578206f7560448201526a74206f6620626f756e647360a81b606482015260840161044b565b506001600160a01b03919091166000908152600660209081526040808320938352929052205490565b6105bc610b56565b60006105c7600c5490565b90506105d7600c80546001019055565b6105e18282610bb0565b60006105ec82610bca565b6040516020016105fc9190611b59565b60405160208183030381529060405290506102128282610c5d565b610620336104f1565b61063c5760405162461bcd60e51b815260040161044b90611b0c565b61064581610cf0565b50565b600061065360085490565b82106106b65760405162461bcd60e51b815260206004820152602c60248201527f455243373231456e756d657261626c653a20676c6f62616c20696e646578206f60448201526b7574206f6620626f756e647360a01b606482015260840161044b565b600882815481106106c9576106c9611b82565b90600052602060002001549050919050565b6000818152600260205260408120546001600160a01b0316806103185760405162461bcd60e51b8152602060048201526018602482015277115490cdcc8c4e881a5b9d985b1a59081d1bdad95b88125160421b604482015260640161044b565b60006001600160a01b0382166107a55760405162461bcd60e51b815260206004820152602960248201527f4552433732313a2061646472657373207a65726f206973206e6f7420612076616044820152683634b21037bbb732b960b91b606482015260840161044b565b506001600160a01b031660009081526003602052604090205490565b6107c9610b56565b6107d36000610cf9565b565b60606001805461032d90611ad2565b6107ef338383610d4b565b5050565b606061031882610e19565b610806610b56565b6001600160a01b03811661086b5760405162461bcd60e51b815260206004820152602660248201527f4f776e61626c653a206e6577206f776e657220697320746865207a65726f206160448201526564647265737360d01b606482015260840161044b565b61064581610cf9565b60006001600160e01b0319821663780e9d6360e01b1480610318575061031882610f14565b6000818152600260205260409020546001600160a01b03166106455760405162461bcd60e51b8152602060048201526018602482015277115490cdcc8c4e881a5b9d985b1a59081d1bdad95b88125160421b604482015260640161044b565b600081815260046020526040902080546001600160a01b0319166001600160a01b038416908117909155819061092d826106db565b6001600160a01b03167f8c5be1e5ebec7d5bd14f71427d1e84f3dd0314c0f7b2291e5b200ac8c7c3b92560405160405180910390a45050565b600080610972836106db565b9050806001600160a01b0316846001600160a01b031614806109b957506001600160a01b0380821660009081526005602090815260408083209388168352929052205460ff165b806109dd5750836001600160a01b03166109d2846103b0565b6001600160a01b0316145b949350505050565b826001600160a01b03166109f8826106db565b6001600160a01b031614610a1e5760405162461bcd60e51b815260040161044b90611b98565b6001600160a01b038216610a805760405162461bcd60e51b8152602060048201526024808201527f4552433732313a207472616e7366657220746f20746865207a65726f206164646044820152637265737360e01b606482015260840161044b565b610a8d8383836001610f64565b826001600160a01b0316610aa0826106db565b6001600160a01b031614610ac65760405162461bcd60e51b815260040161044b90611b98565b600081815260046020908152604080832080546001600160a01b03199081169091556001600160a01b0387811680865260038552838620805460001901905590871680865283862080546001019055868652600290945282852080549092168417909155905184937fddf252ad1be2c89b69c2b068fc378daa952ba7f163c4a11628f55a4df523b3ef91a4505050565b600b546001600160a01b031633146107d35760405162461bcd60e51b815260206004820181905260248201527f4f776e61626c653a2063616c6c6572206973206e6f7420746865206f776e6572604482015260640161044b565b6107ef828260405180602001604052806000815250610f70565b60606000610bd783610fa3565b600101905060008167ffffffffffffffff811115610bf757610bf76119ad565b6040519080825280601f01601f191660200182016040528015610c21576020820181803683370190505b5090508181016020015b600019016f181899199a1a9b1b9c1cb0b131b232b360811b600a86061a8153600a8504945084610c2b57509392505050565b6000828152600260205260409020546001600160a01b0316610cd85760405162461bcd60e51b815260206004820152602e60248201527f45524337323155524953746f726167653a2055524920736574206f66206e6f6e60448201526d32bc34b9ba32b73a103a37b5b2b760911b606482015260840161044b565b6000828152600a602052604090206102128282611c2b565b6106458161107b565b600b80546001600160a01b038381166001600160a01b0319831681179093556040519116919082907f8be0079c531659141344cd1fd0a4f28419497f9722a3daafe3b4186f6b6457e090600090a35050565b816001600160a01b0316836001600160a01b031603610dac5760405162461bcd60e51b815260206004820152601960248201527f4552433732313a20617070726f766520746f2063616c6c657200000000000000604482015260640161044b565b6001600160a01b03838116600081815260056020908152604080832094871680845294825291829020805460ff191686151590811790915591519182527f17307eab39ab6107e8899845ad3d59bd9653f200f220920489ca2b5937696c31910160405180910390a3505050565b6060610e2482610899565b6000828152600a602052604081208054610e3d90611ad2565b80601f0160208091040260200160405190810160405280929190818152602001828054610e6990611ad2565b8015610eb65780601f10610e8b57610100808354040283529160200191610eb6565b820191906000526020600020905b815481529060010190602001808311610e9957829003601f168201915b505050505090506000610ec76110bb565b90508051600003610ed9575092915050565b815115610f0b578082604051602001610ef3929190611ceb565b60405160208183030381529060405292505050919050565b6109dd846110db565b60006001600160e01b031982166380ac58cd60e01b1480610f4557506001600160e01b03198216635b5e139f60e01b145b8061031857506301ffc9a760e01b6001600160e01b0319831614610318565b6102a584848484611142565b610f7a8383611282565b610f87600084848461141b565b6102125760405162461bcd60e51b815260040161044b90611d1a565b60008072184f03e93ff9f4daa797ed6e38ed64bf6a1f0160401b8310610fe25772184f03e93ff9f4daa797ed6e38ed64bf6a1f0160401b830492506040015b6d04ee2d6d415b85acef8100000000831061100e576d04ee2d6d415b85acef8100000000830492506020015b662386f26fc10000831061102c57662386f26fc10000830492506010015b6305f5e1008310611044576305f5e100830492506008015b612710831061105857612710830492506004015b6064831061106a576064830492506002015b600a83106103185760010192915050565b6110848161151c565b6000818152600a60205260409020805461109d90611ad2565b159050610645576000818152600a60205260408120610645916117d7565b60606040518060600160405280603d8152602001611e19603d9139905090565b60606110e682610899565b60006110f06110bb565b90506000815111611110576040518060200160405280600081525061113b565b8061111a84610bca565b60405160200161112b929190611ceb565b6040516020818303038152906040525b9392505050565b61114e848484846115bf565b60018111156111bd5760405162461bcd60e51b815260206004820152603560248201527f455243373231456e756d657261626c653a20636f6e7365637574697665207472604482015274185b9cd9995c9cc81b9bdd081cdd5c1c1bdc9d1959605a1b606482015260840161044b565b816001600160a01b0385166112195761121481600880546000838152600960205260408120829055600182018355919091527ff3f7a9fe364faab93b216da50a3214154f22a0a2b415b23a84c8169e8b636ee30155565b61123c565b836001600160a01b0316856001600160a01b03161461123c5761123c8582611647565b6001600160a01b03841661125857611253816116e4565b61127b565b846001600160a01b0316846001600160a01b03161461127b5761127b8482611793565b5050505050565b6001600160a01b0382166112d85760405162461bcd60e51b815260206004820181905260248201527f4552433732313a206d696e7420746f20746865207a65726f2061646472657373604482015260640161044b565b6000818152600260205260409020546001600160a01b03161561133d5760405162461bcd60e51b815260206004820152601c60248201527f4552433732313a20746f6b656e20616c7265616479206d696e74656400000000604482015260640161044b565b61134b600083836001610f64565b6000818152600260205260409020546001600160a01b0316156113b05760405162461bcd60e51b815260206004820152601c60248201527f4552433732313a20746f6b656e20616c7265616479206d696e74656400000000604482015260640161044b565b6001600160a01b038216600081815260036020908152604080832080546001019055848352600290915280822080546001600160a01b0319168417905551839291907fddf252ad1be2c89b69c2b068fc378daa952ba7f163c4a11628f55a4df523b3ef908290a45050565b60006001600160a01b0384163b1561151157604051630a85bd0160e11b81526001600160a01b0385169063150b7a029061145f903390899088908890600401611d6c565b6020604051808303816000875af192505050801561149a575060408051601f3d908101601f1916820190925261149791810190611da9565b60015b6114f7573d8080156114c8576040519150601f19603f3d011682016040523d82523d6000602084013e6114cd565b606091505b5080516000036114ef5760405162461bcd60e51b815260040161044b90611d1a565b805181602001fd5b6001600160e01b031916630a85bd0160e11b1490506109dd565b506001949350505050565b6000611527826106db565b9050611537816000846001610f64565b611540826106db565b600083815260046020908152604080832080546001600160a01b03199081169091556001600160a01b0385168085526003845282852080546000190190558785526002909352818420805490911690555192935084927fddf252ad1be2c89b69c2b068fc378daa952ba7f163c4a11628f55a4df523b3ef908390a45050565b60018111156102a5576001600160a01b03841615611605576001600160a01b038416600090815260036020526040812080548392906115ff908490611ddc565b90915550505b6001600160a01b038316156102a5576001600160a01b0383166000908152600360205260408120805483929061163c908490611def565b909155505050505050565b600060016116548461073b565b61165e9190611ddc565b6000838152600760205260409020549091508082146116b1576001600160a01b03841660009081526006602090815260408083208584528252808320548484528184208190558352600790915290208190555b5060009182526007602090815260408084208490556001600160a01b039094168352600681528383209183525290812055565b6008546000906116f690600190611ddc565b6000838152600960205260408120546008805493945090928490811061171e5761171e611b82565b90600052602060002001549050806008838154811061173f5761173f611b82565b600091825260208083209091019290925582815260099091526040808220849055858252812055600880548061177757611777611e02565b6001900381819060005260206000200160009055905550505050565b600061179e8361073b565b6001600160a01b039093166000908152600660209081526040808320868452825280832085905593825260079052919091209190915550565b5080546117e390611ad2565b6000825580601f106117f3575050565b601f01602090049060005260206000209081019061064591905b80821115611821576000815560010161180d565b5090565b6001600160e01b03198116811461064557600080fd5b60006020828403121561184d57600080fd5b813561113b81611825565b60005b8381101561187357818101518382015260200161185b565b50506000910152565b60008151808452611894816020860160208601611858565b601f01601f19169290920160200192915050565b60208152600061113b602083018461187c565b6000602082840312156118cd57600080fd5b5035919050565b80356001600160a01b03811681146118eb57600080fd5b919050565b6000806040838503121561190357600080fd5b61190c836118d4565b946020939093013593505050565b60008060006060848603121561192f57600080fd5b611938846118d4565b9250611946602085016118d4565b9150604084013590509250925092565b60006020828403121561196857600080fd5b61113b826118d4565b6000806040838503121561198457600080fd5b61198d836118d4565b9150602083013580151581146119a257600080fd5b809150509250929050565b634e487b7160e01b600052604160045260246000fd5b600080600080608085870312156119d957600080fd5b6119e2856118d4565b93506119f0602086016118d4565b925060408501359150606085013567ffffffffffffffff80821115611a1457600080fd5b818701915087601f830112611a2857600080fd5b813581811115611a3a57611a3a6119ad565b604051601f8201601f19908116603f01168101908382118183101715611a6257611a626119ad565b816040528281528a6020848701011115611a7b57600080fd5b82602086016020830137600060208483010152809550505050505092959194509250565b60008060408385031215611ab257600080fd5b611abb836118d4565b9150611ac9602084016118d4565b90509250929050565b600181811c90821680611ae657607f821691505b602082108103611b0657634e487b7160e01b600052602260045260246000fd5b50919050565b6020808252602d908201527f4552433732313a2063616c6c6572206973206e6f7420746f6b656e206f776e6560408201526c1c881bdc88185c1c1c9bdd9959609a1b606082015260800190565b60008251611b6b818460208701611858565b64173539b7b760d91b920191825250600501919050565b634e487b7160e01b600052603260045260246000fd5b60208082526025908201527f4552433732313a207472616e736665722066726f6d20696e636f72726563742060408201526437bbb732b960d91b606082015260800190565b601f82111561021257600081815260208120601f850160051c81016020861015611c045750805b601f850160051c820191505b81811015611c2357828155600101611c10565b505050505050565b815167ffffffffffffffff811115611c4557611c456119ad565b611c5981611c538454611ad2565b84611bdd565b602080601f831160018114611c8e5760008415611c765750858301515b600019600386901b1c1916600185901b178555611c23565b600085815260208120601f198616915b82811015611cbd57888601518255948401946001909101908401611c9e565b5085821015611cdb5787850151600019600388901b60f8161c191681555b5050505050600190811b01905550565b60008351611cfd818460208801611858565b835190830190611d11818360208801611858565b01949350505050565b60208082526032908201527f4552433732313a207472616e7366657220746f206e6f6e20455243373231526560408201527131b2b4bb32b91034b6b83632b6b2b73a32b960711b606082015260800190565b6001600160a01b0385811682528416602082015260408101839052608060608201819052600090611d9f9083018461187c565b9695505050505050565b600060208284031215611dbb57600080fd5b815161113b81611825565b634e487b7160e01b600052601160045260246000fd5b8181038181111561031857610318611dc6565b8082018082111561031857610318611dc6565b634e487b7160e01b600052603160045260246000fdfe68747470733a2f2f7467742d6861636b6174686f6e2d63656c6f2e6769746875622e696f2f686172646861742d626f696c6572706c6163652f6e66742fa264697066735822122022b42094d09f2265ff4b65c5fa7e5b68129a5e010500271e6cace747901f711564736f6c63430008110033",
  "linkReferences": {},
  "deployedLinkReferences": {}
}