{
  "_format": "hh-sol-artifact-1",
  "contractName": "OdoyaNFT",
  "sourceName": "contracts/OdoyaNFT.sol",
  "abi": [
    {
      "inputs": [
        {
          "internalType": "string",
          "name": "_title",
          "type": "string"
        },
        {
          "internalType": "string",
          "name": "_symbol",
          "type": "string"
        }
      ],
      "stateMutability": "nonpayable",
      "type": "constructor"
    },
    {
      "anonymous": false,
      "inputs": [
        {
          "indexed": true,
          "internalType": "address",
          "name": "owner",
          "type": "address"
        },
        {
          "indexed": true,
          "internalType": "address",
          "name": "approved",
          "type": "address"
        },
        {
          "indexed": true,
          "internalType": "uint256",
          "name": "tokenId",
          "type": "uint256"
        }
      ],
      "name": "Approval",
      "type": "event"
    },
    {
      "anonymous": false,
      "inputs": [
        {
          "indexed": true,
          "internalType": "address",
          "name": "owner",
          "type": "address"
        },
        {
          "indexed": true,
          "internalType": "address",
          "name": "operator",
          "type": "address"
        },
        {
          "indexed": false,
          "internalType": "bool",
          "name": "approved",
          "type": "bool"
        }
      ],
      "name": "ApprovalForAll",
      "type": "event"
    },
    {
      "anonymous": false,
      "inputs": [
        {
          "indexed": true,
          "internalType": "address",
          "name": "previousOwner",
          "type": "address"
        },
        {
          "indexed": true,
          "internalType": "address",
          "name": "newOwner",
          "type": "address"
        }
      ],
      "name": "OwnershipTransferred",
      "type": "event"
    },
    {
      "anonymous": false,
      "inputs": [
        {
          "indexed": true,
          "internalType": "address",
          "name": "from",
          "type": "address"
        },
        {
          "indexed": true,
          "internalType": "address",
          "name": "to",
          "type": "address"
        },
        {
          "indexed": true,
          "internalType": "uint256",
          "name": "tokenId",
          "type": "uint256"
        }
      ],
      "name": "Transfer",
      "type": "event"
    },
    {
      "inputs": [
        {
          "internalType": "address",
          "name": "to",
          "type": "address"
        },
        {
          "internalType": "uint256",
          "name": "tokenId",
          "type": "uint256"
        }
      ],
      "name": "approve",
      "outputs": [],
      "stateMutability": "nonpayable",
      "type": "function"
    },
    {
      "inputs": [
        {
          "internalType": "address",
          "name": "owner",
          "type": "address"
        }
      ],
      "name": "balanceOf",
      "outputs": [
        {
          "internalType": "uint256",
          "name": "",
          "type": "uint256"
        }
      ],
      "stateMutability": "view",
      "type": "function"
    },
    {
      "inputs": [
        {
          "internalType": "uint256",
          "name": "tokenId",
          "type": "uint256"
        }
      ],
      "name": "burn",
      "outputs": [],
      "stateMutability": "nonpayable",
      "type": "function"
    },
    {
      "inputs": [
        {
          "internalType": "uint256",
          "name": "tokenId",
          "type": "uint256"
        }
      ],
      "name": "getApproved",
      "outputs": [
        {
          "internalType": "address",
          "name": "",
          "type": "address"
        }
      ],
      "stateMutability": "view",
      "type": "function"
    },
    {
      "inputs": [
        {
          "internalType": "address",
          "name": "owner",
          "type": "address"
        },
        {
          "internalType": "address",
          "name": "operator",
          "type": "address"
        }
      ],
      "name": "isApprovedForAll",
      "outputs": [
        {
          "internalType": "bool",
          "name": "",
          "type": "bool"
        }
      ],
      "stateMutability": "view",
      "type": "function"
    },
    {
      "inputs": [],
      "name": "name",
      "outputs": [
        {
          "internalType": "string",
          "name": "",
          "type": "string"
        }
      ],
      "stateMutability": "view",
      "type": "function"
    },
    {
      "inputs": [],
      "name": "owner",
      "outputs": [
        {
          "internalType": "address",
          "name": "",
          "type": "address"
        }
      ],
      "stateMutability": "view",
      "type": "function"
    },
    {
      "inputs": [
        {
          "internalType": "uint256",
          "name": "tokenId",
          "type": "uint256"
        }
      ],
      "name": "ownerOf",
      "outputs": [
        {
          "internalType": "address",
          "name": "",
          "type": "address"
        }
      ],
      "stateMutability": "view",
      "type": "function"
    },
    {
      "inputs": [],
      "name": "renounceOwnership",
      "outputs": [],
      "stateMutability": "nonpayable",
      "type": "function"
    },
    {
      "inputs": [
        {
          "internalType": "address",
          "name": "to",
          "type": "address"
        },
        {
          "internalType": "string",
          "name": "uri",
          "type": "string"
        }
      ],
      "name": "safeMint",
      "outputs": [],
      "stateMutability": "nonpayable",
      "type": "function"
    },
    {
      "inputs": [
        {
          "internalType": "address",
          "name": "from",
          "type": "address"
        },
        {
          "internalType": "address",
          "name": "to",
          "type": "address"
        },
        {
          "internalType": "uint256",
          "name": "tokenId",
          "type": "uint256"
        }
      ],
      "name": "safeTransferFrom",
      "outputs": [],
      "stateMutability": "nonpayable",
      "type": "function"
    },
    {
      "inputs": [
        {
          "internalType": "address",
          "name": "from",
          "type": "address"
        },
        {
          "internalType": "address",
          "name": "to",
          "type": "address"
        },
        {
          "internalType": "uint256",
          "name": "tokenId",
          "type": "uint256"
        },
        {
          "internalType": "bytes",
          "name": "data",
          "type": "bytes"
        }
      ],
      "name": "safeTransferFrom",
      "outputs": [],
      "stateMutability": "nonpayable",
      "type": "function"
    },
    {
      "inputs": [
        {
          "internalType": "address",
          "name": "operator",
          "type": "address"
        },
        {
          "internalType": "bool",
          "name": "approved",
          "type": "bool"
        }
      ],
      "name": "setApprovalForAll",
      "outputs": [],
      "stateMutability": "nonpayable",
      "type": "function"
    },
    {
      "inputs": [
        {
          "internalType": "bytes4",
          "name": "interfaceId",
          "type": "bytes4"
        }
      ],
      "name": "supportsInterface",
      "outputs": [
        {
          "internalType": "bool",
          "name": "",
          "type": "bool"
        }
      ],
      "stateMutability": "view",
      "type": "function"
    },
    {
      "inputs": [],
      "name": "symbol",
      "outputs": [
        {
          "internalType": "string",
          "name": "",
          "type": "string"
        }
      ],
      "stateMutability": "view",
      "type": "function"
    },
    {
      "inputs": [
        {
          "internalType": "uint256",
          "name": "index",
          "type": "uint256"
        }
      ],
      "name": "tokenByIndex",
      "outputs": [
        {
          "internalType": "uint256",
          "name": "",
          "type": "uint256"
        }
      ],
      "stateMutability": "view",
      "type": "function"
    },
    {
      "inputs": [
        {
          "internalType": "address",
          "name": "owner",
          "type": "address"
        },
        {
          "internalType": "uint256",
          "name": "index",
          "type": "uint256"
        }
      ],
      "name": "tokenOfOwnerByIndex",
      "outputs": [
        {
          "internalType": "uint256",
          "name": "",
          "type": "uint256"
        }
      ],
      "stateMutability": "view",
      "type": "function"
    },
    {
      "inputs": [
        {
          "internalType": "uint256",
          "name": "tokenId",
          "type": "uint256"
        }
      ],
      "name": "tokenURI",
      "outputs": [
        {
          "internalType": "string",
          "name": "",
          "type": "string"
        }
      ],
      "stateMutability": "view",
      "type": "function"
    },
    {
      "inputs": [],
      "name": "totalSupply",
      "outputs": [
        {
          "internalType": "uint256",
          "name": "",
          "type": "uint256"
        }
      ],
      "stateMutability": "view",
      "type": "function"
    },
    {
      "inputs": [
        {
          "internalType": "address",
          "name": "from",
          "type": "address"
        },
        {
          "internalType": "address",
          "name": "to",
          "type": "address"
        },
        {
          "internalType": "uint256",
          "name": "tokenId",
          "type": "uint256"
        }
      ],
      "name": "transferFrom",
      "outputs": [],
      "stateMutability": "nonpayable",
      "type": "function"
    },
    {
      "inputs": [
        {
          "internalType": "address",
          "name": "newOwner",
          "type": "address"
        }
      ],
      "name": "transferOwnership",
      "outputs": [],
      "stateMutability": "nonpayable",
      "type": "function"
    }
  ],
  "bytecode": "0x60806040523480156200001157600080fd5b50604051620022a0380380620022a0833981016040819052620000349162000193565b818160006200004483826200028c565b5060016200005382826200028c565b505050620000706200006a6200007860201b60201c565b6200007c565b505062000358565b3390565b600b80546001600160a01b038381166001600160a01b0319831681179093556040519116919082907f8be0079c531659141344cd1fd0a4f28419497f9722a3daafe3b4186f6b6457e090600090a35050565b634e487b7160e01b600052604160045260246000fd5b600082601f830112620000f657600080fd5b81516001600160401b0380821115620001135762000113620000ce565b604051601f8301601f19908116603f011681019082821181831017156200013e576200013e620000ce565b816040528381526020925086838588010111156200015b57600080fd5b600091505b838210156200017f578582018301518183018401529082019062000160565b600093810190920192909252949350505050565b60008060408385031215620001a757600080fd5b82516001600160401b0380821115620001bf57600080fd5b620001cd86838701620000e4565b93506020850151915080821115620001e457600080fd5b50620001f385828601620000e4565b9150509250929050565b600181811c908216806200021257607f821691505b6020821081036200023357634e487b7160e01b600052602260045260246000fd5b50919050565b601f8211156200028757600081815260208120601f850160051c81016020861015620002625750805b601f850160051c820191505b8181101562000283578281556001016200026e565b5050505b505050565b81516001600160401b03811115620002a857620002a8620000ce565b620002c081620002b98454620001fd565b8462000239565b602080601f831160018114620002f85760008415620002df5750858301515b600019600386901b1c1916600185901b17855562000283565b600085815260208120601f198616915b82811015620003295788860151825594840194600190910190840162000308565b5085821015620003485787850151600019600388901b60f8161c191681555b5050505050600190811b01905550565b611f3880620003686000396000f3fe608060405234801561001057600080fd5b50600436106101375760003560e01c80636352211e116100b8578063a22cb4651161007c578063a22cb46514610271578063b88d4fde14610284578063c87b56dd14610297578063d204c45e146102aa578063e985e9c5146102bd578063f2fde38b146102f957600080fd5b80636352211e1461022a57806370a082311461023d578063715018a6146102505780638da5cb5b1461025857806395d89b411461026957600080fd5b806323b872dd116100ff57806323b872dd146101cb5780632f745c59146101de57806342842e0e146101f157806342966c68146102045780634f6ccce71461021757600080fd5b806301ffc9a71461013c57806306fdde0314610164578063081812fc14610179578063095ea7b3146101a457806318160ddd146101b9575b600080fd5b61014f61014a366004611899565b61030c565b60405190151581526020015b60405180910390f35b61016c61031d565b60405161015b9190611906565b61018c610187366004611919565b6103af565b6040516001600160a01b03909116815260200161015b565b6101b76101b236600461194e565b6103d6565b005b6008545b60405190815260200161015b565b6101b76101d9366004611978565b6104f0565b6101bd6101ec36600461194e565b610522565b6101b76101ff366004611978565b6105b8565b6101b7610212366004611919565b6105d3565b6101bd610225366004611919565b610604565b61018c610238366004611919565b610697565b6101bd61024b3660046119b4565b6106f7565b6101b761077d565b600b546001600160a01b031661018c565b61016c610791565b6101b761027f3660046119cf565b6107a0565b6101b7610292366004611a97565b6107af565b61016c6102a5366004611919565b6107e7565b6101b76102b8366004611b13565b6107f2565b61014f6102cb366004611b75565b6001600160a01b03918216600090815260056020908152604080832093909416825291909152205460ff1690565b6101b76103073660046119b4565b610829565b60006103178261089f565b92915050565b60606000805461032c90611ba8565b80601f016020809104026020016040519081016040528092919081815260200182805461035890611ba8565b80156103a55780601f1061037a576101008083540402835291602001916103a5565b820191906000526020600020905b81548152906001019060200180831161038857829003601f168201915b5050505050905090565b60006103ba826108c4565b506000908152600460205260409020546001600160a01b031690565b60006103e182610697565b9050806001600160a01b0316836001600160a01b0316036104535760405162461bcd60e51b815260206004820152602160248201527f4552433732313a20617070726f76616c20746f2063757272656e74206f776e656044820152603960f91b60648201526084015b60405180910390fd5b336001600160a01b038216148061046f575061046f81336102cb565b6104e15760405162461bcd60e51b815260206004820152603d60248201527f4552433732313a20617070726f76652063616c6c6572206973206e6f7420746f60448201527f6b656e206f776e6572206f7220617070726f76656420666f7220616c6c000000606482015260840161044a565b6104eb8383610923565b505050565b6104fb335b82610991565b6105175760405162461bcd60e51b815260040161044a90611be2565b6104eb838383610a10565b600061052d836106f7565b821061058f5760405162461bcd60e51b815260206004820152602b60248201527f455243373231456e756d657261626c653a206f776e657220696e646578206f7560448201526a74206f6620626f756e647360a81b606482015260840161044a565b506001600160a01b03919091166000908152600660209081526040808320938352929052205490565b6104eb838383604051806020016040528060008152506107af565b6105dc336104f5565b6105f85760405162461bcd60e51b815260040161044a90611be2565b61060181610b81565b50565b600061060f60085490565b82106106725760405162461bcd60e51b815260206004820152602c60248201527f455243373231456e756d657261626c653a20676c6f62616c20696e646578206f60448201526b7574206f6620626f756e647360a01b606482015260840161044a565b6008828154811061068557610685611c2f565b90600052602060002001549050919050565b6000818152600260205260408120546001600160a01b0316806103175760405162461bcd60e51b8152602060048201526018602482015277115490cdcc8c4e881a5b9d985b1a59081d1bdad95b88125160421b604482015260640161044a565b60006001600160a01b0382166107615760405162461bcd60e51b815260206004820152602960248201527f4552433732313a2061646472657373207a65726f206973206e6f7420612076616044820152683634b21037bbb732b960b91b606482015260840161044a565b506001600160a01b031660009081526003602052604090205490565b610785610b8a565b61078f6000610be4565b565b60606001805461032c90611ba8565b6107ab338383610c36565b5050565b6107b93383610991565b6107d55760405162461bcd60e51b815260040161044a90611be2565b6107e184848484610d04565b50505050565b606061031782610d37565b6107fa610b8a565b6000610805600c5490565b9050610815600c80546001019055565b61081f8382610e32565b6104eb8183610e4c565b610831610b8a565b6001600160a01b0381166108965760405162461bcd60e51b815260206004820152602660248201527f4f776e61626c653a206e6577206f776e657220697320746865207a65726f206160448201526564647265737360d01b606482015260840161044a565b61060181610be4565b60006001600160e01b0319821663780e9d6360e01b1480610317575061031782610edf565b6000818152600260205260409020546001600160a01b03166106015760405162461bcd60e51b8152602060048201526018602482015277115490cdcc8c4e881a5b9d985b1a59081d1bdad95b88125160421b604482015260640161044a565b600081815260046020526040902080546001600160a01b0319166001600160a01b038416908117909155819061095882610697565b6001600160a01b03167f8c5be1e5ebec7d5bd14f71427d1e84f3dd0314c0f7b2291e5b200ac8c7c3b92560405160405180910390a45050565b60008061099d83610697565b9050806001600160a01b0316846001600160a01b031614806109e457506001600160a01b0380821660009081526005602090815260408083209388168352929052205460ff165b80610a085750836001600160a01b03166109fd846103af565b6001600160a01b0316145b949350505050565b826001600160a01b0316610a2382610697565b6001600160a01b031614610a495760405162461bcd60e51b815260040161044a90611c45565b6001600160a01b038216610aab5760405162461bcd60e51b8152602060048201526024808201527f4552433732313a207472616e7366657220746f20746865207a65726f206164646044820152637265737360e01b606482015260840161044a565b610ab88383836001610f2f565b826001600160a01b0316610acb82610697565b6001600160a01b031614610af15760405162461bcd60e51b815260040161044a90611c45565b600081815260046020908152604080832080546001600160a01b03199081169091556001600160a01b0387811680865260038552838620805460001901905590871680865283862080546001019055868652600290945282852080549092168417909155905184937fddf252ad1be2c89b69c2b068fc378daa952ba7f163c4a11628f55a4df523b3ef91a4505050565b61060181610f3b565b600b546001600160a01b0316331461078f5760405162461bcd60e51b815260206004820181905260248201527f4f776e61626c653a2063616c6c6572206973206e6f7420746865206f776e6572604482015260640161044a565b600b80546001600160a01b038381166001600160a01b0319831681179093556040519116919082907f8be0079c531659141344cd1fd0a4f28419497f9722a3daafe3b4186f6b6457e090600090a35050565b816001600160a01b0316836001600160a01b031603610c975760405162461bcd60e51b815260206004820152601960248201527f4552433732313a20617070726f766520746f2063616c6c657200000000000000604482015260640161044a565b6001600160a01b03838116600081815260056020908152604080832094871680845294825291829020805460ff191686151590811790915591519182527f17307eab39ab6107e8899845ad3d59bd9653f200f220920489ca2b5937696c31910160405180910390a3505050565b610d0f848484610a10565b610d1b84848484610f7b565b6107e15760405162461bcd60e51b815260040161044a90611c8a565b6060610d42826108c4565b6000828152600a602052604081208054610d5b90611ba8565b80601f0160208091040260200160405190810160405280929190818152602001828054610d8790611ba8565b8015610dd45780601f10610da957610100808354040283529160200191610dd4565b820191906000526020600020905b815481529060010190602001808311610db757829003601f168201915b505050505090506000610de561107c565b90508051600003610df7575092915050565b815115610e29578082604051602001610e11929190611cdc565b60405160208183030381529060405292505050919050565b610a088461109c565b6107ab828260405180602001604052806000815250611103565b6000828152600260205260409020546001600160a01b0316610ec75760405162461bcd60e51b815260206004820152602e60248201527f45524337323155524953746f726167653a2055524920736574206f66206e6f6e60448201526d32bc34b9ba32b73a103a37b5b2b760911b606482015260840161044a565b6000828152600a602052604090206104eb8282611d59565b60006001600160e01b031982166380ac58cd60e01b1480610f1057506001600160e01b03198216635b5e139f60e01b145b8061031757506301ffc9a760e01b6001600160e01b0319831614610317565b6107e184848484611136565b610f4481611276565b6000818152600a602052604090208054610f5d90611ba8565b159050610601576000818152600a6020526040812061060191611835565b60006001600160a01b0384163b1561107157604051630a85bd0160e11b81526001600160a01b0385169063150b7a0290610fbf903390899088908890600401611e19565b6020604051808303816000875af1925050508015610ffa575060408051601f3d908101601f19168201909252610ff791810190611e56565b60015b611057573d808015611028576040519150601f19603f3d011682016040523d82523d6000602084013e61102d565b606091505b50805160000361104f5760405162461bcd60e51b815260040161044a90611c8a565b805181602001fd5b6001600160e01b031916630a85bd0160e11b149050610a08565b506001949350505050565b60606040518060600160405280603d8152602001611ec6603d9139905090565b60606110a7826108c4565b60006110b161107c565b905060008151116110d157604051806020016040528060008152506110fc565b806110db84611319565b6040516020016110ec929190611cdc565b6040516020818303038152906040525b9392505050565b61110d83836113ac565b61111a6000848484610f7b565b6104eb5760405162461bcd60e51b815260040161044a90611c8a565b61114284848484611545565b60018111156111b15760405162461bcd60e51b815260206004820152603560248201527f455243373231456e756d657261626c653a20636f6e7365637574697665207472604482015274185b9cd9995c9cc81b9bdd081cdd5c1c1bdc9d1959605a1b606482015260840161044a565b816001600160a01b03851661120d5761120881600880546000838152600960205260408120829055600182018355919091527ff3f7a9fe364faab93b216da50a3214154f22a0a2b415b23a84c8169e8b636ee30155565b611230565b836001600160a01b0316856001600160a01b0316146112305761123085826115cd565b6001600160a01b03841661124c576112478161166a565b61126f565b846001600160a01b0316846001600160a01b03161461126f5761126f8482611719565b5050505050565b600061128182610697565b9050611291816000846001610f2f565b61129a82610697565b600083815260046020908152604080832080546001600160a01b03199081169091556001600160a01b0385168085526003845282852080546000190190558785526002909352818420805490911690555192935084927fddf252ad1be2c89b69c2b068fc378daa952ba7f163c4a11628f55a4df523b3ef908390a45050565b606060006113268361175d565b600101905060008167ffffffffffffffff81111561134657611346611a0b565b6040519080825280601f01601f191660200182016040528015611370576020820181803683370190505b5090508181016020015b600019016f181899199a1a9b1b9c1cb0b131b232b360811b600a86061a8153600a850494508461137a57509392505050565b6001600160a01b0382166114025760405162461bcd60e51b815260206004820181905260248201527f4552433732313a206d696e7420746f20746865207a65726f2061646472657373604482015260640161044a565b6000818152600260205260409020546001600160a01b0316156114675760405162461bcd60e51b815260206004820152601c60248201527f4552433732313a20746f6b656e20616c7265616479206d696e74656400000000604482015260640161044a565b611475600083836001610f2f565b6000818152600260205260409020546001600160a01b0316156114da5760405162461bcd60e51b815260206004820152601c60248201527f4552433732313a20746f6b656e20616c7265616479206d696e74656400000000604482015260640161044a565b6001600160a01b038216600081815260036020908152604080832080546001019055848352600290915280822080546001600160a01b0319168417905551839291907fddf252ad1be2c89b69c2b068fc378daa952ba7f163c4a11628f55a4df523b3ef908290a45050565b60018111156107e1576001600160a01b0384161561158b576001600160a01b03841660009081526003602052604081208054839290611585908490611e89565b90915550505b6001600160a01b038316156107e1576001600160a01b038316600090815260036020526040812080548392906115c2908490611e9c565b909155505050505050565b600060016115da846106f7565b6115e49190611e89565b600083815260076020526040902054909150808214611637576001600160a01b03841660009081526006602090815260408083208584528252808320548484528184208190558352600790915290208190555b5060009182526007602090815260408084208490556001600160a01b039094168352600681528383209183525290812055565b60085460009061167c90600190611e89565b600083815260096020526040812054600880549394509092849081106116a4576116a4611c2f565b9060005260206000200154905080600883815481106116c5576116c5611c2f565b60009182526020808320909101929092558281526009909152604080822084905585825281205560088054806116fd576116fd611eaf565b6001900381819060005260206000200160009055905550505050565b6000611724836106f7565b6001600160a01b039093166000908152600660209081526040808320868452825280832085905593825260079052919091209190915550565b60008072184f03e93ff9f4daa797ed6e38ed64bf6a1f0160401b831061179c5772184f03e93ff9f4daa797ed6e38ed64bf6a1f0160401b830492506040015b6d04ee2d6d415b85acef810000000083106117c8576d04ee2d6d415b85acef8100000000830492506020015b662386f26fc1000083106117e657662386f26fc10000830492506010015b6305f5e10083106117fe576305f5e100830492506008015b612710831061181257612710830492506004015b60648310611824576064830492506002015b600a83106103175760010192915050565b50805461184190611ba8565b6000825580601f10611851575050565b601f01602090049060005260206000209081019061060191905b8082111561187f576000815560010161186b565b5090565b6001600160e01b03198116811461060157600080fd5b6000602082840312156118ab57600080fd5b81356110fc81611883565b60005b838110156118d15781810151838201526020016118b9565b50506000910152565b600081518084526118f28160208601602086016118b6565b601f01601f19169290920160200192915050565b6020815260006110fc60208301846118da565b60006020828403121561192b57600080fd5b5035919050565b80356001600160a01b038116811461194957600080fd5b919050565b6000806040838503121561196157600080fd5b61196a83611932565b946020939093013593505050565b60008060006060848603121561198d57600080fd5b61199684611932565b92506119a460208501611932565b9150604084013590509250925092565b6000602082840312156119c657600080fd5b6110fc82611932565b600080604083850312156119e257600080fd5b6119eb83611932565b915060208301358015158114611a0057600080fd5b809150509250929050565b634e487b7160e01b600052604160045260246000fd5b600067ffffffffffffffff80841115611a3c57611a3c611a0b565b604051601f8501601f19908116603f01168101908282118183101715611a6457611a64611a0b565b81604052809350858152868686011115611a7d57600080fd5b858560208301376000602087830101525050509392505050565b60008060008060808587031215611aad57600080fd5b611ab685611932565b9350611ac460208601611932565b925060408501359150606085013567ffffffffffffffff811115611ae757600080fd5b8501601f81018713611af857600080fd5b611b0787823560208401611a21565b91505092959194509250565b60008060408385031215611b2657600080fd5b611b2f83611932565b9150602083013567ffffffffffffffff811115611b4b57600080fd5b8301601f81018513611b5c57600080fd5b611b6b85823560208401611a21565b9150509250929050565b60008060408385031215611b8857600080fd5b611b9183611932565b9150611b9f60208401611932565b90509250929050565b600181811c90821680611bbc57607f821691505b602082108103611bdc57634e487b7160e01b600052602260045260246000fd5b50919050565b6020808252602d908201527f4552433732313a2063616c6c6572206973206e6f7420746f6b656e206f776e6560408201526c1c881bdc88185c1c1c9bdd9959609a1b606082015260800190565b634e487b7160e01b600052603260045260246000fd5b60208082526025908201527f4552433732313a207472616e736665722066726f6d20696e636f72726563742060408201526437bbb732b960d91b606082015260800190565b60208082526032908201527f4552433732313a207472616e7366657220746f206e6f6e20455243373231526560408201527131b2b4bb32b91034b6b83632b6b2b73a32b960711b606082015260800190565b60008351611cee8184602088016118b6565b835190830190611d028183602088016118b6565b01949350505050565b601f8211156104eb57600081815260208120601f850160051c81016020861015611d325750805b601f850160051c820191505b81811015611d5157828155600101611d3e565b505050505050565b815167ffffffffffffffff811115611d7357611d73611a0b565b611d8781611d818454611ba8565b84611d0b565b602080601f831160018114611dbc5760008415611da45750858301515b600019600386901b1c1916600185901b178555611d51565b600085815260208120601f198616915b82811015611deb57888601518255948401946001909101908401611dcc565b5085821015611e095787850151600019600388901b60f8161c191681555b5050505050600190811b01905550565b6001600160a01b0385811682528416602082015260408101839052608060608201819052600090611e4c908301846118da565b9695505050505050565b600060208284031215611e6857600080fd5b81516110fc81611883565b634e487b7160e01b600052601160045260246000fd5b8181038181111561031757610317611e73565b8082018082111561031757610317611e73565b634e487b7160e01b600052603160045260246000fdfe68747470733a2f2f7467742d6861636b6174686f6e2d63656c6f2e6769746875622e696f2f686172646861742d626f696c6572706c6163652f6e66742fa264697066735822122054311ba0fd4768b25c5df88b484594b39c948a3501bd184a8c6341668785ae5664736f6c63430008110033",
  "linkReferences": {},
  "deployedLinkReferences": {}
}