{
  "_format": "hh-sol-artifact-1",
  "contractName": "OdoyaNFT",
  "sourceName": "contracts/OdoyaNFT.sol",
  "abi": [
    {
      "inputs": [
        {
          "internalType": "string",
          "name": "_title",
          "type": "string"
        },
        {
          "internalType": "string",
          "name": "_symbol",
          "type": "string"
        }
      ],
      "stateMutability": "nonpayable",
      "type": "constructor"
    },
    {
      "anonymous": false,
      "inputs": [
        {
          "indexed": true,
          "internalType": "address",
          "name": "owner",
          "type": "address"
        },
        {
          "indexed": true,
          "internalType": "address",
          "name": "approved",
          "type": "address"
        },
        {
          "indexed": true,
          "internalType": "uint256",
          "name": "tokenId",
          "type": "uint256"
        }
      ],
      "name": "Approval",
      "type": "event"
    },
    {
      "anonymous": false,
      "inputs": [
        {
          "indexed": true,
          "internalType": "address",
          "name": "owner",
          "type": "address"
        },
        {
          "indexed": true,
          "internalType": "address",
          "name": "operator",
          "type": "address"
        },
        {
          "indexed": false,
          "internalType": "bool",
          "name": "approved",
          "type": "bool"
        }
      ],
      "name": "ApprovalForAll",
      "type": "event"
    },
    {
      "anonymous": false,
      "inputs": [
        {
          "indexed": true,
          "internalType": "address",
          "name": "previousOwner",
          "type": "address"
        },
        {
          "indexed": true,
          "internalType": "address",
          "name": "newOwner",
          "type": "address"
        }
      ],
      "name": "OwnershipTransferred",
      "type": "event"
    },
    {
      "anonymous": false,
      "inputs": [
        {
          "indexed": true,
          "internalType": "address",
          "name": "from",
          "type": "address"
        },
        {
          "indexed": true,
          "internalType": "address",
          "name": "to",
          "type": "address"
        },
        {
          "indexed": true,
          "internalType": "uint256",
          "name": "tokenId",
          "type": "uint256"
        }
      ],
      "name": "Transfer",
      "type": "event"
    },
    {
      "inputs": [
        {
          "internalType": "address",
          "name": "to",
          "type": "address"
        },
        {
          "internalType": "uint256",
          "name": "tokenId",
          "type": "uint256"
        }
      ],
      "name": "approve",
      "outputs": [],
      "stateMutability": "nonpayable",
      "type": "function"
    },
    {
      "inputs": [
        {
          "internalType": "address",
          "name": "owner",
          "type": "address"
        }
      ],
      "name": "balanceOf",
      "outputs": [
        {
          "internalType": "uint256",
          "name": "",
          "type": "uint256"
        }
      ],
      "stateMutability": "view",
      "type": "function"
    },
    {
      "inputs": [
        {
          "internalType": "uint256",
          "name": "tokenId",
          "type": "uint256"
        }
      ],
      "name": "burn",
      "outputs": [],
      "stateMutability": "nonpayable",
      "type": "function"
    },
    {
      "inputs": [
        {
          "internalType": "uint256",
          "name": "tokenId",
          "type": "uint256"
        }
      ],
      "name": "getApproved",
      "outputs": [
        {
          "internalType": "address",
          "name": "",
          "type": "address"
        }
      ],
      "stateMutability": "view",
      "type": "function"
    },
    {
      "inputs": [
        {
          "internalType": "address",
          "name": "owner",
          "type": "address"
        },
        {
          "internalType": "address",
          "name": "operator",
          "type": "address"
        }
      ],
      "name": "isApprovedForAll",
      "outputs": [
        {
          "internalType": "bool",
          "name": "",
          "type": "bool"
        }
      ],
      "stateMutability": "view",
      "type": "function"
    },
    {
      "inputs": [],
      "name": "name",
      "outputs": [
        {
          "internalType": "string",
          "name": "",
          "type": "string"
        }
      ],
      "stateMutability": "view",
      "type": "function"
    },
    {
      "inputs": [],
      "name": "owner",
      "outputs": [
        {
          "internalType": "address",
          "name": "",
          "type": "address"
        }
      ],
      "stateMutability": "view",
      "type": "function"
    },
    {
      "inputs": [
        {
          "internalType": "uint256",
          "name": "tokenId",
          "type": "uint256"
        }
      ],
      "name": "ownerOf",
      "outputs": [
        {
          "internalType": "address",
          "name": "",
          "type": "address"
        }
      ],
      "stateMutability": "view",
      "type": "function"
    },
    {
      "inputs": [],
      "name": "renounceOwnership",
      "outputs": [],
      "stateMutability": "nonpayable",
      "type": "function"
    },
    {
      "inputs": [
        {
          "internalType": "address",
          "name": "to",
          "type": "address"
        }
      ],
      "name": "safeMint",
      "outputs": [],
      "stateMutability": "nonpayable",
      "type": "function"
    },
    {
      "inputs": [
        {
          "internalType": "address",
          "name": "from",
          "type": "address"
        },
        {
          "internalType": "address",
          "name": "to",
          "type": "address"
        },
        {
          "internalType": "uint256",
          "name": "tokenId",
          "type": "uint256"
        }
      ],
      "name": "safeTransferFrom",
      "outputs": [],
      "stateMutability": "nonpayable",
      "type": "function"
    },
    {
      "inputs": [
        {
          "internalType": "address",
          "name": "from",
          "type": "address"
        },
        {
          "internalType": "address",
          "name": "to",
          "type": "address"
        },
        {
          "internalType": "uint256",
          "name": "tokenId",
          "type": "uint256"
        },
        {
          "internalType": "bytes",
          "name": "data",
          "type": "bytes"
        }
      ],
      "name": "safeTransferFrom",
      "outputs": [],
      "stateMutability": "nonpayable",
      "type": "function"
    },
    {
      "inputs": [
        {
          "internalType": "address",
          "name": "operator",
          "type": "address"
        },
        {
          "internalType": "bool",
          "name": "approved",
          "type": "bool"
        }
      ],
      "name": "setApprovalForAll",
      "outputs": [],
      "stateMutability": "nonpayable",
      "type": "function"
    },
    {
      "inputs": [
        {
          "internalType": "bytes4",
          "name": "interfaceId",
          "type": "bytes4"
        }
      ],
      "name": "supportsInterface",
      "outputs": [
        {
          "internalType": "bool",
          "name": "",
          "type": "bool"
        }
      ],
      "stateMutability": "view",
      "type": "function"
    },
    {
      "inputs": [],
      "name": "symbol",
      "outputs": [
        {
          "internalType": "string",
          "name": "",
          "type": "string"
        }
      ],
      "stateMutability": "view",
      "type": "function"
    },
    {
      "inputs": [
        {
          "internalType": "uint256",
          "name": "index",
          "type": "uint256"
        }
      ],
      "name": "tokenByIndex",
      "outputs": [
        {
          "internalType": "uint256",
          "name": "",
          "type": "uint256"
        }
      ],
      "stateMutability": "view",
      "type": "function"
    },
    {
      "inputs": [
        {
          "internalType": "address",
          "name": "owner",
          "type": "address"
        },
        {
          "internalType": "uint256",
          "name": "index",
          "type": "uint256"
        }
      ],
      "name": "tokenOfOwnerByIndex",
      "outputs": [
        {
          "internalType": "uint256",
          "name": "",
          "type": "uint256"
        }
      ],
      "stateMutability": "view",
      "type": "function"
    },
    {
      "inputs": [
        {
          "internalType": "uint256",
          "name": "tokenId",
          "type": "uint256"
        }
      ],
      "name": "tokenURI",
      "outputs": [
        {
          "internalType": "string",
          "name": "",
          "type": "string"
        }
      ],
      "stateMutability": "pure",
      "type": "function"
    },
    {
      "inputs": [],
      "name": "totalSupply",
      "outputs": [
        {
          "internalType": "uint256",
          "name": "",
          "type": "uint256"
        }
      ],
      "stateMutability": "view",
      "type": "function"
    },
    {
      "inputs": [
        {
          "internalType": "address",
          "name": "from",
          "type": "address"
        },
        {
          "internalType": "address",
          "name": "to",
          "type": "address"
        },
        {
          "internalType": "uint256",
          "name": "tokenId",
          "type": "uint256"
        }
      ],
      "name": "transferFrom",
      "outputs": [],
      "stateMutability": "nonpayable",
      "type": "function"
    },
    {
      "inputs": [
        {
          "internalType": "address",
          "name": "newOwner",
          "type": "address"
        }
      ],
      "name": "transferOwnership",
      "outputs": [],
      "stateMutability": "nonpayable",
      "type": "function"
    }
  ],
  "bytecode": "0x60806040523480156200001157600080fd5b50604051620020bb380380620020bb833981016040819052620000349162000193565b818160006200004483826200028c565b5060016200005382826200028c565b505050620000706200006a6200007860201b60201c565b6200007c565b505062000358565b3390565b600b80546001600160a01b038381166001600160a01b0319831681179093556040519116919082907f8be0079c531659141344cd1fd0a4f28419497f9722a3daafe3b4186f6b6457e090600090a35050565b634e487b7160e01b600052604160045260246000fd5b600082601f830112620000f657600080fd5b81516001600160401b0380821115620001135762000113620000ce565b604051601f8301601f19908116603f011681019082821181831017156200013e576200013e620000ce565b816040528381526020925086838588010111156200015b57600080fd5b600091505b838210156200017f578582018301518183018401529082019062000160565b600093810190920192909252949350505050565b60008060408385031215620001a757600080fd5b82516001600160401b0380821115620001bf57600080fd5b620001cd86838701620000e4565b93506020850151915080821115620001e457600080fd5b50620001f385828601620000e4565b9150509250929050565b600181811c908216806200021257607f821691505b6020821081036200023357634e487b7160e01b600052602260045260246000fd5b50919050565b601f8211156200028757600081815260208120601f850160051c81016020861015620002625750805b601f850160051c820191505b8181101562000283578281556001016200026e565b5050505b505050565b81516001600160401b03811115620002a857620002a8620000ce565b620002c081620002b98454620001fd565b8462000239565b602080601f831160018114620002f85760008415620002df5750858301515b600019600386901b1c1916600185901b17855562000283565b600085815260208120601f198616915b82811015620003295788860151825594840194600190910190840162000308565b5085821015620003485787850151600019600388901b60f8161c191681555b5050505050600190811b01905550565b611d5380620003686000396000f3fe608060405234801561001057600080fd5b50600436106101375760003560e01c80634f6ccce7116100b857806395d89b411161007c57806395d89b411461027c578063a22cb46514610284578063b88d4fde14610297578063c87b56dd146102ab578063e985e9c5146102be578063f2fde38b146102fa57600080fd5b80634f6ccce71461022a5780636352211e1461023d57806370a0823114610250578063715018a6146102635780638da5cb5b1461026b57600080fd5b806323b872dd116100ff57806323b872dd146101cb5780632f745c59146101de57806340d097c3146101f157806342842e0e1461020457806342966c681461021757600080fd5b806301ffc9a71461013c57806306fdde0314610164578063081812fc14610179578063095ea7b3146101a457806318160ddd146101b9575b600080fd5b61014f61014a366004611701565b61030d565b60405190151581526020015b60405180910390f35b61016c61031e565b60405161015b9190611775565b61018c610187366004611788565b6103b0565b6040516001600160a01b03909116815260200161015b565b6101b76101b23660046117bd565b6103d7565b005b6008545b60405190815260200161015b565b6101b76101d93660046117e7565b6104ec565b6101bd6101ec3660046117bd565b61051e565b6101b76101ff366004611823565b6105b4565b6101b76102123660046117e7565b505050565b6101b7610225366004611788565b610617565b6101bd610238366004611788565b610648565b61018c61024b366004611788565b6106db565b6101bd61025e366004611823565b61073b565b6101b76107c1565b600b546001600160a01b031661018c565b61016c6107d5565b6101b761029236600461183e565b6107e4565b6101b76102a5366004611890565b50505050565b61016c6102b9366004611788565b6107f3565b61014f6102cc36600461196c565b6001600160a01b03918216600090815260056020908152604080832093909416825291909152205460ff1690565b6101b7610308366004611823565b610826565b60006103188261089c565b92915050565b60606000805461032d9061199f565b80601f01602080910402602001604051908101604052809291908181526020018280546103599061199f565b80156103a65780601f1061037b576101008083540402835291602001916103a6565b820191906000526020600020905b81548152906001019060200180831161038957829003601f168201915b5050505050905090565b60006103bb826108c1565b506000908152600460205260409020546001600160a01b031690565b60006103e2826106db565b9050806001600160a01b0316836001600160a01b0316036104545760405162461bcd60e51b815260206004820152602160248201527f4552433732313a20617070726f76616c20746f2063757272656e74206f776e656044820152603960f91b60648201526084015b60405180910390fd5b336001600160a01b0382161480610470575061047081336102cc565b6104e25760405162461bcd60e51b815260206004820152603d60248201527f4552433732313a20617070726f76652063616c6c6572206973206e6f7420746f60448201527f6b656e206f776e6572206f7220617070726f76656420666f7220616c6c000000606482015260840161044b565b6102128383610920565b6104f7335b8261098e565b6105135760405162461bcd60e51b815260040161044b906119d9565b610212838383610a0d565b60006105298361073b565b821061058b5760405162461bcd60e51b815260206004820152602b60248201527f455243373231456e756d657261626c653a206f776e657220696e646578206f7560448201526a74206f6620626f756e647360a81b606482015260840161044b565b506001600160a01b03919091166000908152600660209081526040808320938352929052205490565b6105bc610b7e565b60006105c7600c5490565b90506105d7600c80546001019055565b6105e18282610bd8565b60006105ec82610bf2565b6040516020016105fc9190611a26565b60405160208183030381529060405290506102128282610c85565b610620336104f1565b61063c5760405162461bcd60e51b815260040161044b906119d9565b61064581610d18565b50565b600061065360085490565b82106106b65760405162461bcd60e51b815260206004820152602c60248201527f455243373231456e756d657261626c653a20676c6f62616c20696e646578206f60448201526b7574206f6620626f756e647360a01b606482015260840161044b565b600882815481106106c9576106c9611a4f565b90600052602060002001549050919050565b6000818152600260205260408120546001600160a01b0316806103185760405162461bcd60e51b8152602060048201526018602482015277115490cdcc8c4e881a5b9d985b1a59081d1bdad95b88125160421b604482015260640161044b565b60006001600160a01b0382166107a55760405162461bcd60e51b815260206004820152602960248201527f4552433732313a2061646472657373207a65726f206973206e6f7420612076616044820152683634b21037bbb732b960b91b606482015260840161044b565b506001600160a01b031660009081526003602052604090205490565b6107c9610b7e565b6107d36000610d21565b565b60606001805461032d9061199f565b6107ef338383610d73565b5050565b606060006107ff610e41565b60405160200161080f9190611a65565b60408051601f198184030181529190529392505050565b61082e610b7e565b6001600160a01b0381166108935760405162461bcd60e51b815260206004820152602660248201527f4f776e61626c653a206e6577206f776e657220697320746865207a65726f206160448201526564647265737360d01b606482015260840161044b565b61064581610d21565b60006001600160e01b0319821663780e9d6360e01b1480610318575061031882610e61565b6000818152600260205260409020546001600160a01b03166106455760405162461bcd60e51b8152602060048201526018602482015277115490cdcc8c4e881a5b9d985b1a59081d1bdad95b88125160421b604482015260640161044b565b600081815260046020526040902080546001600160a01b0319166001600160a01b0384169081179091558190610955826106db565b6001600160a01b03167f8c5be1e5ebec7d5bd14f71427d1e84f3dd0314c0f7b2291e5b200ac8c7c3b92560405160405180910390a45050565b60008061099a836106db565b9050806001600160a01b0316846001600160a01b031614806109e157506001600160a01b0380821660009081526005602090815260408083209388168352929052205460ff165b80610a055750836001600160a01b03166109fa846103b0565b6001600160a01b0316145b949350505050565b826001600160a01b0316610a20826106db565b6001600160a01b031614610a465760405162461bcd60e51b815260040161044b90611a96565b6001600160a01b038216610aa85760405162461bcd60e51b8152602060048201526024808201527f4552433732313a207472616e7366657220746f20746865207a65726f206164646044820152637265737360e01b606482015260840161044b565b610ab58383836001610eb1565b826001600160a01b0316610ac8826106db565b6001600160a01b031614610aee5760405162461bcd60e51b815260040161044b90611a96565b600081815260046020908152604080832080546001600160a01b03199081169091556001600160a01b0387811680865260038552838620805460001901905590871680865283862080546001019055868652600290945282852080549092168417909155905184937fddf252ad1be2c89b69c2b068fc378daa952ba7f163c4a11628f55a4df523b3ef91a4505050565b600b546001600160a01b031633146107d35760405162461bcd60e51b815260206004820181905260248201527f4f776e61626c653a2063616c6c6572206973206e6f7420746865206f776e6572604482015260640161044b565b6107ef828260405180602001604052806000815250610ebd565b60606000610bff83610ef0565b600101905060008167ffffffffffffffff811115610c1f57610c1f61187a565b6040519080825280601f01601f191660200182016040528015610c49576020820181803683370190505b5090508181016020015b600019016f181899199a1a9b1b9c1cb0b131b232b360811b600a86061a8153600a8504945084610c5357509392505050565b6000828152600260205260409020546001600160a01b0316610d005760405162461bcd60e51b815260206004820152602e60248201527f45524337323155524953746f726167653a2055524920736574206f66206e6f6e60448201526d32bc34b9ba32b73a103a37b5b2b760911b606482015260840161044b565b6000828152600a602052604090206102128282611b29565b61064581610fc8565b600b80546001600160a01b038381166001600160a01b0319831681179093556040519116919082907f8be0079c531659141344cd1fd0a4f28419497f9722a3daafe3b4186f6b6457e090600090a35050565b816001600160a01b0316836001600160a01b031603610dd45760405162461bcd60e51b815260206004820152601960248201527f4552433732313a20617070726f766520746f2063616c6c657200000000000000604482015260640161044b565b6001600160a01b03838116600081815260056020908152604080832094871680845294825291829020805460ff191686151590811790915591519182527f17307eab39ab6107e8899845ad3d59bd9653f200f220920489ca2b5937696c31910160405180910390a3505050565b6060604051806060016040528060368152602001611ce860369139905090565b60006001600160e01b031982166380ac58cd60e01b1480610e9257506001600160e01b03198216635b5e139f60e01b145b8061031857506301ffc9a760e01b6001600160e01b0319831614610318565b6102a584848484611008565b610ec78383611148565b610ed460008484846112e1565b6102125760405162461bcd60e51b815260040161044b90611be9565b60008072184f03e93ff9f4daa797ed6e38ed64bf6a1f0160401b8310610f2f5772184f03e93ff9f4daa797ed6e38ed64bf6a1f0160401b830492506040015b6d04ee2d6d415b85acef81000000008310610f5b576d04ee2d6d415b85acef8100000000830492506020015b662386f26fc100008310610f7957662386f26fc10000830492506010015b6305f5e1008310610f91576305f5e100830492506008015b6127108310610fa557612710830492506004015b60648310610fb7576064830492506002015b600a83106103185760010192915050565b610fd1816113e2565b6000818152600a602052604090208054610fea9061199f565b159050610645576000818152600a602052604081206106459161169d565b61101484848484611485565b60018111156110835760405162461bcd60e51b815260206004820152603560248201527f455243373231456e756d657261626c653a20636f6e7365637574697665207472604482015274185b9cd9995c9cc81b9bdd081cdd5c1c1bdc9d1959605a1b606482015260840161044b565b816001600160a01b0385166110df576110da81600880546000838152600960205260408120829055600182018355919091527ff3f7a9fe364faab93b216da50a3214154f22a0a2b415b23a84c8169e8b636ee30155565b611102565b836001600160a01b0316856001600160a01b03161461110257611102858261150d565b6001600160a01b03841661111e57611119816115aa565b611141565b846001600160a01b0316846001600160a01b031614611141576111418482611659565b5050505050565b6001600160a01b03821661119e5760405162461bcd60e51b815260206004820181905260248201527f4552433732313a206d696e7420746f20746865207a65726f2061646472657373604482015260640161044b565b6000818152600260205260409020546001600160a01b0316156112035760405162461bcd60e51b815260206004820152601c60248201527f4552433732313a20746f6b656e20616c7265616479206d696e74656400000000604482015260640161044b565b611211600083836001610eb1565b6000818152600260205260409020546001600160a01b0316156112765760405162461bcd60e51b815260206004820152601c60248201527f4552433732313a20746f6b656e20616c7265616479206d696e74656400000000604482015260640161044b565b6001600160a01b038216600081815260036020908152604080832080546001019055848352600290915280822080546001600160a01b0319168417905551839291907fddf252ad1be2c89b69c2b068fc378daa952ba7f163c4a11628f55a4df523b3ef908290a45050565b60006001600160a01b0384163b156113d757604051630a85bd0160e11b81526001600160a01b0385169063150b7a0290611325903390899088908890600401611c3b565b6020604051808303816000875af1925050508015611360575060408051601f3d908101601f1916820190925261135d91810190611c78565b60015b6113bd573d80801561138e576040519150601f19603f3d011682016040523d82523d6000602084013e611393565b606091505b5080516000036113b55760405162461bcd60e51b815260040161044b90611be9565b805181602001fd5b6001600160e01b031916630a85bd0160e11b149050610a05565b506001949350505050565b60006113ed826106db565b90506113fd816000846001610eb1565b611406826106db565b600083815260046020908152604080832080546001600160a01b03199081169091556001600160a01b0385168085526003845282852080546000190190558785526002909352818420805490911690555192935084927fddf252ad1be2c89b69c2b068fc378daa952ba7f163c4a11628f55a4df523b3ef908390a45050565b60018111156102a5576001600160a01b038416156114cb576001600160a01b038416600090815260036020526040812080548392906114c5908490611cab565b90915550505b6001600160a01b038316156102a5576001600160a01b03831660009081526003602052604081208054839290611502908490611cbe565b909155505050505050565b6000600161151a8461073b565b6115249190611cab565b600083815260076020526040902054909150808214611577576001600160a01b03841660009081526006602090815260408083208584528252808320548484528184208190558352600790915290208190555b5060009182526007602090815260408084208490556001600160a01b039094168352600681528383209183525290812055565b6008546000906115bc90600190611cab565b600083815260096020526040812054600880549394509092849081106115e4576115e4611a4f565b90600052602060002001549050806008838154811061160557611605611a4f565b600091825260208083209091019290925582815260099091526040808220849055858252812055600880548061163d5761163d611cd1565b6001900381819060005260206000200160009055905550505050565b60006116648361073b565b6001600160a01b039093166000908152600660209081526040808320868452825280832085905593825260079052919091209190915550565b5080546116a99061199f565b6000825580601f106116b9575050565b601f01602090049060005260206000209081019061064591905b808211156116e757600081556001016116d3565b5090565b6001600160e01b03198116811461064557600080fd5b60006020828403121561171357600080fd5b813561171e816116eb565b9392505050565b60005b83811015611740578181015183820152602001611728565b50506000910152565b60008151808452611761816020860160208601611725565b601f01601f19169290920160200192915050565b60208152600061171e6020830184611749565b60006020828403121561179a57600080fd5b5035919050565b80356001600160a01b03811681146117b857600080fd5b919050565b600080604083850312156117d057600080fd5b6117d9836117a1565b946020939093013593505050565b6000806000606084860312156117fc57600080fd5b611805846117a1565b9250611813602085016117a1565b9150604084013590509250925092565b60006020828403121561183557600080fd5b61171e826117a1565b6000806040838503121561185157600080fd5b61185a836117a1565b91506020830135801515811461186f57600080fd5b809150509250929050565b634e487b7160e01b600052604160045260246000fd5b600080600080608085870312156118a657600080fd5b6118af856117a1565b93506118bd602086016117a1565b925060408501359150606085013567ffffffffffffffff808211156118e157600080fd5b818701915087601f8301126118f557600080fd5b8135818111156119075761190761187a565b604051601f8201601f19908116603f0116810190838211818310171561192f5761192f61187a565b816040528281528a602084870101111561194857600080fd5b82602086016020830137600060208483010152809550505050505092959194509250565b6000806040838503121561197f57600080fd5b611988836117a1565b9150611996602084016117a1565b90509250929050565b600181811c908216806119b357607f821691505b6020821081036119d357634e487b7160e01b600052602260045260246000fd5b50919050565b6020808252602d908201527f4552433732313a2063616c6c6572206973206e6f7420746f6b656e206f776e6560408201526c1c881bdc88185c1c1c9bdd9959609a1b606082015260800190565b60008251611a38818460208701611725565b64173539b7b760d91b920191825250600501919050565b634e487b7160e01b600052603260045260246000fd5b60008251611a77818460208701611725565b6c36b2ba30b230ba30973539b7b760991b920191825250600d01919050565b60208082526025908201527f4552433732313a207472616e736665722066726f6d20696e636f72726563742060408201526437bbb732b960d91b606082015260800190565b601f82111561021257600081815260208120601f850160051c81016020861015611b025750805b601f850160051c820191505b81811015611b2157828155600101611b0e565b505050505050565b815167ffffffffffffffff811115611b4357611b4361187a565b611b5781611b51845461199f565b84611adb565b602080601f831160018114611b8c5760008415611b745750858301515b600019600386901b1c1916600185901b178555611b21565b600085815260208120601f198616915b82811015611bbb57888601518255948401946001909101908401611b9c565b5085821015611bd95787850151600019600388901b60f8161c191681555b5050505050600190811b01905550565b60208082526032908201527f4552433732313a207472616e7366657220746f206e6f6e20455243373231526560408201527131b2b4bb32b91034b6b83632b6b2b73a32b960711b606082015260800190565b6001600160a01b0385811682528416602082015260408101839052608060608201819052600090611c6e90830184611749565b9695505050505050565b600060208284031215611c8a57600080fd5b815161171e816116eb565b634e487b7160e01b600052601160045260246000fd5b8181038181111561031857610318611c95565b8082018082111561031857610318611c95565b634e487b7160e01b600052603160045260246000fdfe68747470733a2f2f7467742d6861636b6174686f6e2d63656c6f2e6769746875622e696f2f6f646f79612d746f6b656e732f6e66742fa2646970667358221220cab4f22e5fd6680bd405fcf9751a5817b832dd91626fa795a9a2856e8e964cba64736f6c63430008110033",
  "linkReferences": {},
  "deployedLinkReferences": {}
}