{
  "_format": "hh-sol-artifact-1",
  "contractName": "OdoyaRecompensa",
  "sourceName": "contracts/OdoyaRecompensa.sol",
  "abi": [
    {
      "inputs": [],
      "stateMutability": "nonpayable",
      "type": "constructor"
    },
    {
      "anonymous": false,
      "inputs": [
        {
          "indexed": true,
          "internalType": "address",
          "name": "owner",
          "type": "address"
        },
        {
          "indexed": true,
          "internalType": "address",
          "name": "spender",
          "type": "address"
        },
        {
          "indexed": false,
          "internalType": "uint256",
          "name": "value",
          "type": "uint256"
        }
      ],
      "name": "Approval",
      "type": "event"
    },
    {
      "anonymous": false,
      "inputs": [
        {
          "indexed": false,
          "internalType": "string",
          "name": "title",
          "type": "string"
        },
        {
          "indexed": false,
          "internalType": "uint256",
          "name": "when",
          "type": "uint256"
        },
        {
          "indexed": false,
          "internalType": "string",
          "name": "where",
          "type": "string"
        }
      ],
      "name": "NewRegenAction",
      "type": "event"
    },
    {
      "anonymous": false,
      "inputs": [
        {
          "indexed": true,
          "internalType": "address",
          "name": "previousOwner",
          "type": "address"
        },
        {
          "indexed": true,
          "internalType": "address",
          "name": "newOwner",
          "type": "address"
        }
      ],
      "name": "OwnershipTransferred",
      "type": "event"
    },
    {
      "anonymous": false,
      "inputs": [
        {
          "indexed": false,
          "internalType": "address",
          "name": "account",
          "type": "address"
        }
      ],
      "name": "Paused",
      "type": "event"
    },
    {
      "anonymous": false,
      "inputs": [
        {
          "indexed": true,
          "internalType": "address",
          "name": "from",
          "type": "address"
        },
        {
          "indexed": true,
          "internalType": "address",
          "name": "to",
          "type": "address"
        },
        {
          "indexed": false,
          "internalType": "uint256",
          "name": "value",
          "type": "uint256"
        }
      ],
      "name": "Transfer",
      "type": "event"
    },
    {
      "anonymous": false,
      "inputs": [
        {
          "indexed": false,
          "internalType": "address",
          "name": "account",
          "type": "address"
        }
      ],
      "name": "Unpaused",
      "type": "event"
    },
    {
      "inputs": [],
      "name": "DOMAIN_SEPARATOR",
      "outputs": [
        {
          "internalType": "bytes32",
          "name": "",
          "type": "bytes32"
        }
      ],
      "stateMutability": "view",
      "type": "function"
    },
    {
      "inputs": [
        {
          "internalType": "address",
          "name": "_newLeader",
          "type": "address"
        }
      ],
      "name": "addLeader",
      "outputs": [],
      "stateMutability": "nonpayable",
      "type": "function"
    },
    {
      "inputs": [
        {
          "internalType": "address",
          "name": "_leader",
          "type": "address"
        },
        {
          "internalType": "string",
          "name": "_title",
          "type": "string"
        },
        {
          "internalType": "string",
          "name": "_place",
          "type": "string"
        },
        {
          "internalType": "uint256",
          "name": "_when",
          "type": "uint256"
        },
        {
          "internalType": "uint256",
          "name": "_totalRewards",
          "type": "uint256"
        }
      ],
      "name": "addRegenAction",
      "outputs": [],
      "stateMutability": "nonpayable",
      "type": "function"
    },
    {
      "inputs": [
        {
          "internalType": "address",
          "name": "owner",
          "type": "address"
        },
        {
          "internalType": "address",
          "name": "spender",
          "type": "address"
        }
      ],
      "name": "allowance",
      "outputs": [
        {
          "internalType": "uint256",
          "name": "",
          "type": "uint256"
        }
      ],
      "stateMutability": "view",
      "type": "function"
    },
    {
      "inputs": [
        {
          "internalType": "address",
          "name": "",
          "type": "address"
        }
      ],
      "name": "allowedLeaders",
      "outputs": [
        {
          "internalType": "bool",
          "name": "",
          "type": "bool"
        }
      ],
      "stateMutability": "view",
      "type": "function"
    },
    {
      "inputs": [
        {
          "internalType": "address",
          "name": "spender",
          "type": "address"
        },
        {
          "internalType": "uint256",
          "name": "amount",
          "type": "uint256"
        }
      ],
      "name": "approve",
      "outputs": [
        {
          "internalType": "bool",
          "name": "",
          "type": "bool"
        }
      ],
      "stateMutability": "nonpayable",
      "type": "function"
    },
    {
      "inputs": [
        {
          "internalType": "address",
          "name": "account",
          "type": "address"
        }
      ],
      "name": "balanceOf",
      "outputs": [
        {
          "internalType": "uint256",
          "name": "",
          "type": "uint256"
        }
      ],
      "stateMutability": "view",
      "type": "function"
    },
    {
      "inputs": [
        {
          "internalType": "uint256",
          "name": "amount",
          "type": "uint256"
        }
      ],
      "name": "burn",
      "outputs": [],
      "stateMutability": "nonpayable",
      "type": "function"
    },
    {
      "inputs": [
        {
          "internalType": "address",
          "name": "account",
          "type": "address"
        },
        {
          "internalType": "uint256",
          "name": "amount",
          "type": "uint256"
        }
      ],
      "name": "burnFrom",
      "outputs": [],
      "stateMutability": "nonpayable",
      "type": "function"
    },
    {
      "inputs": [],
      "name": "decimals",
      "outputs": [
        {
          "internalType": "uint8",
          "name": "",
          "type": "uint8"
        }
      ],
      "stateMutability": "view",
      "type": "function"
    },
    {
      "inputs": [
        {
          "internalType": "address",
          "name": "spender",
          "type": "address"
        },
        {
          "internalType": "uint256",
          "name": "subtractedValue",
          "type": "uint256"
        }
      ],
      "name": "decreaseAllowance",
      "outputs": [
        {
          "internalType": "bool",
          "name": "",
          "type": "bool"
        }
      ],
      "stateMutability": "nonpayable",
      "type": "function"
    },
    {
      "inputs": [
        {
          "internalType": "address",
          "name": "spender",
          "type": "address"
        },
        {
          "internalType": "uint256",
          "name": "addedValue",
          "type": "uint256"
        }
      ],
      "name": "increaseAllowance",
      "outputs": [
        {
          "internalType": "bool",
          "name": "",
          "type": "bool"
        }
      ],
      "stateMutability": "nonpayable",
      "type": "function"
    },
    {
      "inputs": [
        {
          "internalType": "address",
          "name": "_to",
          "type": "address"
        },
        {
          "internalType": "uint256",
          "name": "_amount",
          "type": "uint256"
        },
        {
          "internalType": "uint256",
          "name": "_regenActionID",
          "type": "uint256"
        }
      ],
      "name": "mint",
      "outputs": [],
      "stateMutability": "nonpayable",
      "type": "function"
    },
    {
      "inputs": [],
      "name": "name",
      "outputs": [
        {
          "internalType": "string",
          "name": "",
          "type": "string"
        }
      ],
      "stateMutability": "view",
      "type": "function"
    },
    {
      "inputs": [
        {
          "internalType": "address",
          "name": "owner",
          "type": "address"
        }
      ],
      "name": "nonces",
      "outputs": [
        {
          "internalType": "uint256",
          "name": "",
          "type": "uint256"
        }
      ],
      "stateMutability": "view",
      "type": "function"
    },
    {
      "inputs": [],
      "name": "owner",
      "outputs": [
        {
          "internalType": "address",
          "name": "",
          "type": "address"
        }
      ],
      "stateMutability": "view",
      "type": "function"
    },
    {
      "inputs": [],
      "name": "pause",
      "outputs": [],
      "stateMutability": "nonpayable",
      "type": "function"
    },
    {
      "inputs": [],
      "name": "paused",
      "outputs": [
        {
          "internalType": "bool",
          "name": "",
          "type": "bool"
        }
      ],
      "stateMutability": "view",
      "type": "function"
    },
    {
      "inputs": [
        {
          "internalType": "address",
          "name": "owner",
          "type": "address"
        },
        {
          "internalType": "address",
          "name": "spender",
          "type": "address"
        },
        {
          "internalType": "uint256",
          "name": "value",
          "type": "uint256"
        },
        {
          "internalType": "uint256",
          "name": "deadline",
          "type": "uint256"
        },
        {
          "internalType": "uint8",
          "name": "v",
          "type": "uint8"
        },
        {
          "internalType": "bytes32",
          "name": "r",
          "type": "bytes32"
        },
        {
          "internalType": "bytes32",
          "name": "s",
          "type": "bytes32"
        }
      ],
      "name": "permit",
      "outputs": [],
      "stateMutability": "nonpayable",
      "type": "function"
    },
    {
      "inputs": [],
      "name": "regenActionCounter",
      "outputs": [
        {
          "internalType": "uint256",
          "name": "",
          "type": "uint256"
        }
      ],
      "stateMutability": "view",
      "type": "function"
    },
    {
      "inputs": [
        {
          "internalType": "uint256",
          "name": "",
          "type": "uint256"
        }
      ],
      "name": "regenActionPlanned",
      "outputs": [
        {
          "internalType": "address",
          "name": "leader",
          "type": "address"
        },
        {
          "internalType": "address",
          "name": "nft",
          "type": "address"
        },
        {
          "internalType": "string",
          "name": "title",
          "type": "string"
        },
        {
          "internalType": "string",
          "name": "place",
          "type": "string"
        },
        {
          "internalType": "uint256",
          "name": "when",
          "type": "uint256"
        },
        {
          "internalType": "uint256",
          "name": "totalRewards",
          "type": "uint256"
        },
        {
          "internalType": "uint256",
          "name": "totalRewardsAvailable",
          "type": "uint256"
        },
        {
          "internalType": "bool",
          "name": "stillValid",
          "type": "bool"
        }
      ],
      "stateMutability": "view",
      "type": "function"
    },
    {
      "inputs": [
        {
          "internalType": "address",
          "name": "_oldLeader",
          "type": "address"
        }
      ],
      "name": "removeLeader",
      "outputs": [],
      "stateMutability": "nonpayable",
      "type": "function"
    },
    {
      "inputs": [],
      "name": "renounceOwnership",
      "outputs": [],
      "stateMutability": "nonpayable",
      "type": "function"
    },
    {
      "inputs": [],
      "name": "symbol",
      "outputs": [
        {
          "internalType": "string",
          "name": "",
          "type": "string"
        }
      ],
      "stateMutability": "view",
      "type": "function"
    },
    {
      "inputs": [],
      "name": "totalSupply",
      "outputs": [
        {
          "internalType": "uint256",
          "name": "",
          "type": "uint256"
        }
      ],
      "stateMutability": "view",
      "type": "function"
    },
    {
      "inputs": [
        {
          "internalType": "address",
          "name": "to",
          "type": "address"
        },
        {
          "internalType": "uint256",
          "name": "amount",
          "type": "uint256"
        }
      ],
      "name": "transfer",
      "outputs": [
        {
          "internalType": "bool",
          "name": "",
          "type": "bool"
        }
      ],
      "stateMutability": "nonpayable",
      "type": "function"
    },
    {
      "inputs": [
        {
          "internalType": "address",
          "name": "from",
          "type": "address"
        },
        {
          "internalType": "address",
          "name": "to",
          "type": "address"
        },
        {
          "internalType": "uint256",
          "name": "amount",
          "type": "uint256"
        }
      ],
      "name": "transferFrom",
      "outputs": [
        {
          "internalType": "bool",
          "name": "",
          "type": "bool"
        }
      ],
      "stateMutability": "nonpayable",
      "type": "function"
    },
    {
      "inputs": [
        {
          "internalType": "address",
          "name": "newOwner",
          "type": "address"
        }
      ],
      "name": "transferOwnership",
      "outputs": [],
      "stateMutability": "nonpayable",
      "type": "function"
    },
    {
      "inputs": [],
      "name": "unpause",
      "outputs": [],
      "stateMutability": "nonpayable",
      "type": "function"
    }
  ],
  "bytecode": "0x6101406040523480156200001257600080fd5b506040518060400160405280600f81526020016e4f646f79615265636f6d70656e736160881b81525080604051806040016040528060018152602001603160f81b8152506040518060400160405280601081526020016f4f646f7961205265636f6d70656e736160801b815250604051806040016040528060058152602001644f444f594160d81b8152508160039081620000ae91906200030f565b506004620000bd82826200030f565b50506005805460ff1916905550620000d5336200017b565b815160209283012081519183019190912060e08290526101008190524660a0818152604080517f8b73c3c69bb8fe3d512ecc4cf759cc79239f7b179b0ffacaa9a75d522b39400f818801819052818301969096526060810194909452608080850193909352308483018190528151808603909301835260c094850190915281519190950120905291909152610120525060006009556200017533620001d5565b620003db565b600580546001600160a01b03838116610100818102610100600160a81b031985161790945560405193909204169182907f8be0079c531659141344cd1fd0a4f28419497f9722a3daafe3b4186f6b6457e090600090a35050565b620001df62000203565b6001600160a01b03166000908152600860205260409020805460ff19166001179055565b6005546001600160a01b03610100909104163314620002685760405162461bcd60e51b815260206004820181905260248201527f4f776e61626c653a2063616c6c6572206973206e6f7420746865206f776e6572604482015260640160405180910390fd5b565b634e487b7160e01b600052604160045260246000fd5b600181811c908216806200029557607f821691505b602082108103620002b657634e487b7160e01b600052602260045260246000fd5b50919050565b601f8211156200030a57600081815260208120601f850160051c81016020861015620002e55750805b601f850160051c820191505b818110156200030657828155600101620002f1565b5050505b505050565b81516001600160401b038111156200032b576200032b6200026a565b62000343816200033c845462000280565b84620002bc565b602080601f8311600181146200037b5760008415620003625750858301515b600019600386901b1c1916600185901b17855562000306565b600085815260208120601f198616915b82811015620003ac578886015182559484019460019091019084016200038b565b5085821015620003cb5787850151600019600388901b60f8161c191681555b5050505050600190811b01905550565b60805160a05160c05160e05161010051610120516143f16200042b60003960006115a8015260006115f7015260006115d201526000611529015260006115540152600061157f01526143f16000f3fe60806040523480156200001157600080fd5b5060043610620001f55760003560e01c8063715018a61162000119578063a0692fa411620000af578063dd62ed3e116200007a578063dd62ed3e146200042a578063e6aef2791462000441578063f1340382146200046e578063f2fde38b146200048557600080fd5b8063a0692fa414620003ce578063a457c2d714620003e5578063a9059cbb14620003fc578063d505accf146200041357600080fd5b80638456cb5911620000f05780638456cb5914620003795780638da5cb5b14620003835780639037f18214620003ad57806395d89b4114620003c457600080fd5b8063715018a6146200034157806379cc6790146200034b5780637ecebe00146200036257600080fd5b80633644e515116200018f57806342966c68116200016657806342966c6814620002cc5780635247906214620002e35780635c975abb146200030957806370a08231146200031557600080fd5b80633644e51514620002a15780633950935114620002ab5780633f4ba83a14620002c257600080fd5b806318160ddd11620001d057806318160ddd146200025d57806323b872dd1462000270578063313ce56714620002875780633619c8dc146200029757600080fd5b806306fdde0314620001fa578063095ea7b3146200021c578063156e29f61462000244575b600080fd5b620002046200049c565b60405162000213919062001c35565b60405180910390f35b620002336200022d36600462001c6e565b62000536565b604051901515815260200162000213565b6200025b6200025536600462001c9b565b62000552565b005b6002545b60405190815260200162000213565b620002336200028136600462001cd1565b62000737565b6040516012815260200162000213565b6200026160095481565b620002616200075f565b62000233620002bc36600462001c6e565b62000770565b6200025b62000798565b6200025b620002dd36600462001d12565b620007ae565b62000233620002f436600462001d2c565b60086020526000908152604090205460ff1681565b60055460ff1662000233565b620002616200032636600462001d2c565b6001600160a01b031660009081526020819052604090205490565b6200025b620007bd565b6200025b6200035c36600462001c6e565b620007d3565b620002616200037336600462001d2c565b620007f0565b6200025b6200080f565b60055461010090046001600160a01b03166040516001600160a01b03909116815260200162000213565b6200025b620003be36600462001d2c565b62000823565b62000204620008ce565b6200025b620003df36600462001df5565b620008df565b62000233620003f636600462001c6e565b62000c40565b620002336200040d36600462001c6e565b62000cc1565b6200025b6200042436600462001e84565b62000cd1565b620002616200043b36600462001efd565b62000e41565b620004586200045236600462001d12565b62000e6c565b6040516200021398979695949392919062001f35565b6200025b6200047f36600462001d2c565b62000fde565b6200025b6200049636600462001d2c565b6200100c565b606060038054620004ad9062001fa4565b80601f0160208091040260200160405190810160405280929190818152602001828054620004db9062001fa4565b80156200052c5780601f1062000500576101008083540402835291602001916200052c565b820191906000526020600020905b8154815290600101906020018083116200050e57829003601f168201915b5050505050905090565b6000336200054681858562001088565b60019150505b92915050565b6200055c620011b0565b6000818152600a60205260409020600781015460ff16620005cf5760405162461bcd60e51b815260206004820152602260248201527f54686520526567656e20416374696f6e206e6565647320746f2062652076616c6044820152611a5960f21b60648201526084015b60405180910390fd5b8281600601541015620006255760405162461bcd60e51b815260206004820152601c60248201527f5468657265206973206e6f2073756666696369656e742066756e6473000000006044820152606401620005c6565b80600401544210156200067b5760405162461bcd60e51b815260206004820152601f60248201527f546865206576656e74206d7573742068617665206765742073746172746564006044820152606401620005c6565b60048101546200068f906201518062001ff0565b421115620006a757600701805460ff19169055505050565b828160060154620006b9919062002006565b6006820155620006ca848462001212565b60018101546040516340d097c360e01b81526001600160a01b0386811660048301529091169081906340d097c390602401600060405180830381600087803b1580156200071657600080fd5b505af11580156200072b573d6000803e3d6000fd5b5050505050505b505050565b60003362000747858285620012e3565b6200075485858562001364565b506001949350505050565b60006200076b6200151c565b905090565b6000336200054681858562000786838362000e41565b62000792919062001ff0565b62001088565b620007a2620011b0565b620007ac62001645565b565b620007ba338262001699565b50565b620007c7620011b0565b620007ac6000620017dd565b620007e0823383620012e3565b620007ec828262001699565b5050565b6001600160a01b0381166000908152600660205260408120546200054c565b62000819620011b0565b620007ac62001837565b6200082d620011b0565b6001600160a01b03811660009081526008602052604090205460ff16620008ad5760405162461bcd60e51b815260206004820152602d60248201527f4f72206c6561646572206e6f74206578697374206f722069742077617320616c60448201526c1c9958591e481c995b5bdd9959609a1b6064820152608401620005c6565b6001600160a01b03166000908152600860205260409020805460ff19169055565b606060048054620004ad9062001fa4565b620008e9620011b0565b6001600160a01b03851660009081526008602052604090205460ff166200095e5760405162461bcd60e51b815260206004820152602260248201527f4c6561646572206d7573742062652070726576696f75736c7920617070726f76604482015261195960f21b6064820152608401620005c6565b428211620009bb5760405162461bcd60e51b8152602060048201526024808201527f416374696f6e206d75737420626520706c616e6e656420746f207468652066756044820152637475726560e01b6064820152608401620005c6565b6000811162000a1d5760405162461bcd60e51b815260206004820152602760248201527f546f74616c2052657761726473206d7573742062652067726561746572207468604482015266616e207a65726f60c81b6064820152608401620005c6565b62000a2b6012600162002119565b62000a3a90620f42406200212a565b811062000aa15760405162461bcd60e51b815260206004820152602e60248201527f546f74616c2052657761726473206d757374206265206c657373207468616e2060448201526d3130303030303020746f6b656e7360901b6064820152608401620005c6565b60008462000aae620008ce565b60405162000abc9062001bdf565b62000ac992919062002144565b604051809103906000f08015801562000ae6573d6000803e3d6000fd5b5060408051610100810182526001600160a01b03808a16825283166020820152908101879052606081018690526080810185905260a0810184905260c08101849052600160e082015260098054929350909190600062000b468362002176565b90915550506009546000908152600a6020908152604091829020835181546001600160a01b03199081166001600160a01b039283161783559285015160018301805490941691161790915590820151829190600282019062000ba99082620021e4565b506060820151600382019062000bc09082620021e4565b506080820151600482015560a0820151600582015560c0820151600682015560e0909101516007909101805460ff19169115159190911790556040517fae72f4f3bc8123f4bbd5f2a50a2a52aa9a944c7db4d4050904409b224b12141b9062000c2f90889087908990620022b1565b60405180910390a150505050505050565b6000338162000c50828662000e41565b90508381101562000cb25760405162461bcd60e51b815260206004820152602560248201527f45524332303a2064656372656173656420616c6c6f77616e63652062656c6f77604482015264207a65726f60d81b6064820152608401620005c6565b62000754828686840362001088565b6000336200054681858562001364565b8342111562000d235760405162461bcd60e51b815260206004820152601d60248201527f45524332305065726d69743a206578706972656420646561646c696e650000006044820152606401620005c6565b60007f6e71edae12b1b97f4d1f60370fef10105fa2faae0126114a169c64845d6126c988888862000d548c62001877565b6040805160208101969096526001600160a01b0394851690860152929091166060840152608083015260a082015260c0810186905260e001604051602081830303815290604052805190602001209050600062000db1826200189f565b9050600062000dc382878787620018f0565b9050896001600160a01b0316816001600160a01b03161462000e285760405162461bcd60e51b815260206004820152601e60248201527f45524332305065726d69743a20696e76616c6964207369676e617475726500006044820152606401620005c6565b62000e358a8a8a62001088565b50505050505050505050565b6001600160a01b03918216600090815260016020908152604080832093909416825291909152205490565b600a602052600090815260409020805460018201546002830180546001600160a01b0393841694929093169262000ea39062001fa4565b80601f016020809104026020016040519081016040528092919081815260200182805462000ed19062001fa4565b801562000f225780601f1062000ef65761010080835404028352916020019162000f22565b820191906000526020600020905b81548152906001019060200180831162000f0457829003601f168201915b50505050509080600301805462000f399062001fa4565b80601f016020809104026020016040519081016040528092919081815260200182805462000f679062001fa4565b801562000fb85780601f1062000f8c5761010080835404028352916020019162000fb8565b820191906000526020600020905b81548152906001019060200180831162000f9a57829003601f168201915b505050506004830154600584015460068501546007909501549394919390925060ff1688565b62000fe8620011b0565b6001600160a01b03166000908152600860205260409020805460ff19166001179055565b62001016620011b0565b6001600160a01b0381166200107d5760405162461bcd60e51b815260206004820152602660248201527f4f776e61626c653a206e6577206f776e657220697320746865207a65726f206160448201526564647265737360d01b6064820152608401620005c6565b620007ba81620017dd565b6001600160a01b038316620010ec5760405162461bcd60e51b8152602060048201526024808201527f45524332303a20617070726f76652066726f6d20746865207a65726f206164646044820152637265737360e01b6064820152608401620005c6565b6001600160a01b0382166200114f5760405162461bcd60e51b815260206004820152602260248201527f45524332303a20617070726f766520746f20746865207a65726f206164647265604482015261737360f01b6064820152608401620005c6565b6001600160a01b0383811660008181526001602090815260408083209487168084529482529182902085905590518481527f8c5be1e5ebec7d5bd14f71427d1e84f3dd0314c0f7b2291e5b200ac8c7c3b925910160405180910390a3505050565b6005546001600160a01b03610100909104163314620007ac5760405162461bcd60e51b815260206004820181905260248201527f4f776e61626c653a2063616c6c6572206973206e6f7420746865206f776e65726044820152606401620005c6565b6001600160a01b0382166200126a5760405162461bcd60e51b815260206004820152601f60248201527f45524332303a206d696e7420746f20746865207a65726f2061646472657373006044820152606401620005c6565b62001278600083836200191c565b80600260008282546200128c919062001ff0565b90915550506001600160a01b038216600081815260208181526040808320805486019055518481527fddf252ad1be2c89b69c2b068fc378daa952ba7f163c4a11628f55a4df523b3ef910160405180910390a35050565b6000620012f1848462000e41565b905060001981146200135e57818110156200134f5760405162461bcd60e51b815260206004820152601d60248201527f45524332303a20696e73756666696369656e7420616c6c6f77616e63650000006044820152606401620005c6565b6200135e848484840362001088565b50505050565b6001600160a01b038316620013ca5760405162461bcd60e51b815260206004820152602560248201527f45524332303a207472616e736665722066726f6d20746865207a65726f206164604482015264647265737360d81b6064820152608401620005c6565b6001600160a01b0382166200142e5760405162461bcd60e51b815260206004820152602360248201527f45524332303a207472616e7366657220746f20746865207a65726f206164647260448201526265737360e81b6064820152608401620005c6565b6200143b8383836200191c565b6001600160a01b03831660009081526020819052604090205481811015620014b55760405162461bcd60e51b815260206004820152602660248201527f45524332303a207472616e7366657220616d6f756e7420657863656564732062604482015265616c616e636560d01b6064820152608401620005c6565b6001600160a01b03848116600081815260208181526040808320878703905593871680835291849020805487019055925185815290927fddf252ad1be2c89b69c2b068fc378daa952ba7f163c4a11628f55a4df523b3ef910160405180910390a36200135e565b6000306001600160a01b037f0000000000000000000000000000000000000000000000000000000000000000161480156200157657507f000000000000000000000000000000000000000000000000000000000000000046145b15620015a157507f000000000000000000000000000000000000000000000000000000000000000090565b50604080517f00000000000000000000000000000000000000000000000000000000000000006020808301919091527f0000000000000000000000000000000000000000000000000000000000000000828401527f000000000000000000000000000000000000000000000000000000000000000060608301524660808301523060a0808401919091528351808403909101815260c0909201909252805191012090565b6200164f62001926565b6005805460ff191690557f5db9ee0a495bf2e6ff9c91a7834c1ba4fdd244a5e8aa4e537bd38aeae4b073aa335b6040516001600160a01b03909116815260200160405180910390a1565b6001600160a01b038216620016fb5760405162461bcd60e51b815260206004820152602160248201527f45524332303a206275726e2066726f6d20746865207a65726f206164647265736044820152607360f81b6064820152608401620005c6565b62001709826000836200191c565b6001600160a01b038216600090815260208190526040902054818110156200177f5760405162461bcd60e51b815260206004820152602260248201527f45524332303a206275726e20616d6f756e7420657863656564732062616c616e604482015261636560f01b6064820152608401620005c6565b6001600160a01b0383166000818152602081815260408083208686039055600280548790039055518581529192917fddf252ad1be2c89b69c2b068fc378daa952ba7f163c4a11628f55a4df523b3ef910160405180910390a3505050565b600580546001600160a01b03838116610100818102610100600160a81b031985161790945560405193909204169182907f8be0079c531659141344cd1fd0a4f28419497f9722a3daafe3b4186f6b6457e090600090a35050565b6200184162001971565b6005805460ff191660011790557f62e78cea01bee320cd4e420270b5ea74000d11b0c9f74754ebdbfc544b05a2586200167c3390565b6001600160a01b03811660009081526006602052604090208054600181018255905b50919050565b60006200054c620018af6200151c565b8360405161190160f01b6020820152602281018390526042810182905260009060620160405160208183030381529060405280519060200120905092915050565b60008060006200190387878787620019b9565b91509150620019128162001a82565b5095945050505050565b6200073262001971565b60055460ff16620007ac5760405162461bcd60e51b815260206004820152601460248201527314185d5cd8589b194e881b9bdd081c185d5cd95960621b6044820152606401620005c6565b60055460ff1615620007ac5760405162461bcd60e51b815260206004820152601060248201526f14185d5cd8589b194e881c185d5cd95960821b6044820152606401620005c6565b6000807f7fffffffffffffffffffffffffffffff5d576e7357a4501ddfe92f46681b20a0831115620019f2575060009050600362001a79565b6040805160008082526020820180845289905260ff881692820192909252606081018690526080810185905260019060a0016020604051602081039080840390855afa15801562001a47573d6000803e3d6000fd5b5050604051601f1901519150506001600160a01b03811662001a725760006001925092505062001a79565b9150600090505b94509492505050565b600081600481111562001a995762001a99620022ea565b0362001aa25750565b600181600481111562001ab95762001ab9620022ea565b0362001b085760405162461bcd60e51b815260206004820152601860248201527f45434453413a20696e76616c6964207369676e617475726500000000000000006044820152606401620005c6565b600281600481111562001b1f5762001b1f620022ea565b0362001b6e5760405162461bcd60e51b815260206004820152601f60248201527f45434453413a20696e76616c6964207369676e6174757265206c656e677468006044820152606401620005c6565b600381600481111562001b855762001b85620022ea565b03620007ba5760405162461bcd60e51b815260206004820152602260248201527f45434453413a20696e76616c6964207369676e6174757265202773272076616c604482015261756560f01b6064820152608401620005c6565b6120bb806200230183390190565b6000815180845260005b8181101562001c155760208185018101518683018201520162001bf7565b506000602082860101526020601f19601f83011685010191505092915050565b60208152600062001c4a602083018462001bed565b9392505050565b80356001600160a01b038116811462001c6957600080fd5b919050565b6000806040838503121562001c8257600080fd5b62001c8d8362001c51565b946020939093013593505050565b60008060006060848603121562001cb157600080fd5b62001cbc8462001c51565b95602085013595506040909401359392505050565b60008060006060848603121562001ce757600080fd5b62001cf28462001c51565b925062001d026020850162001c51565b9150604084013590509250925092565b60006020828403121562001d2557600080fd5b5035919050565b60006020828403121562001d3f57600080fd5b62001c4a8262001c51565b634e487b7160e01b600052604160045260246000fd5b600082601f83011262001d7257600080fd5b813567ffffffffffffffff8082111562001d905762001d9062001d4a565b604051601f8301601f19908116603f0116810190828211818310171562001dbb5762001dbb62001d4a565b8160405283815286602085880101111562001dd557600080fd5b836020870160208301376000602085830101528094505050505092915050565b600080600080600060a0868803121562001e0e57600080fd5b62001e198662001c51565b9450602086013567ffffffffffffffff8082111562001e3757600080fd5b62001e4589838a0162001d60565b9550604088013591508082111562001e5c57600080fd5b5062001e6b8882890162001d60565b9598949750949560608101359550608001359392505050565b600080600080600080600060e0888a03121562001ea057600080fd5b62001eab8862001c51565b965062001ebb6020890162001c51565b95506040880135945060608801359350608088013560ff8116811462001ee057600080fd5b9699959850939692959460a0840135945060c09093013592915050565b6000806040838503121562001f1157600080fd5b62001f1c8362001c51565b915062001f2c6020840162001c51565b90509250929050565b6001600160a01b038981168252881660208201526101006040820181905260009062001f648382018a62001bed565b9050828103606084015262001f7a818962001bed565b9150508560808301528460a08301528360c083015282151560e08301529998505050505050505050565b600181811c9082168062001fb957607f821691505b6020821081036200189957634e487b7160e01b600052602260045260246000fd5b634e487b7160e01b600052601160045260246000fd5b808201808211156200054c576200054c62001fda565b818103818111156200054c576200054c62001fda565b600181815b808511156200205d57816000190482111562002041576200204162001fda565b808516156200204f57918102915b93841c939080029062002021565b509250929050565b60008262002076575060016200054c565b8162002085575060006200054c565b81600181146200209e5760028114620020a957620020c9565b60019150506200054c565b60ff841115620020bd57620020bd62001fda565b50506001821b6200054c565b5060208310610133831016604e8410600b8410161715620020ee575081810a6200054c565b620020fa83836200201c565b806000190482111562002111576200211162001fda565b029392505050565b600062001c4a60ff84168362002065565b80820281158282048414176200054c576200054c62001fda565b60408152600062002159604083018562001bed565b82810360208401526200216d818562001bed565b95945050505050565b6000600182016200218b576200218b62001fda565b5060010190565b601f8211156200073257600081815260208120601f850160051c81016020861015620021bb5750805b601f850160051c820191505b81811015620021dc57828155600101620021c7565b505050505050565b815167ffffffffffffffff81111562002201576200220162001d4a565b620022198162002212845462001fa4565b8462002192565b602080601f831160018114620022515760008415620022385750858301515b600019600386901b1c1916600185901b178555620021dc565b600085815260208120601f198616915b82811015620022825788860151825594840194600190910190840162002261565b5085821015620022a15787850151600019600388901b60f8161c191681555b5050505050600190811b01905550565b606081526000620022c6606083018662001bed565b8460208401528281036040840152620022e0818562001bed565b9695505050505050565b634e487b7160e01b600052602160045260246000fdfe60806040523480156200001157600080fd5b50604051620020bb380380620020bb833981016040819052620000349162000193565b818160006200004483826200028c565b5060016200005382826200028c565b505050620000706200006a6200007860201b60201c565b6200007c565b505062000358565b3390565b600b80546001600160a01b038381166001600160a01b0319831681179093556040519116919082907f8be0079c531659141344cd1fd0a4f28419497f9722a3daafe3b4186f6b6457e090600090a35050565b634e487b7160e01b600052604160045260246000fd5b600082601f830112620000f657600080fd5b81516001600160401b0380821115620001135762000113620000ce565b604051601f8301601f19908116603f011681019082821181831017156200013e576200013e620000ce565b816040528381526020925086838588010111156200015b57600080fd5b600091505b838210156200017f578582018301518183018401529082019062000160565b600093810190920192909252949350505050565b60008060408385031215620001a757600080fd5b82516001600160401b0380821115620001bf57600080fd5b620001cd86838701620000e4565b93506020850151915080821115620001e457600080fd5b50620001f385828601620000e4565b9150509250929050565b600181811c908216806200021257607f821691505b6020821081036200023357634e487b7160e01b600052602260045260246000fd5b50919050565b601f8211156200028757600081815260208120601f850160051c81016020861015620002625750805b601f850160051c820191505b8181101562000283578281556001016200026e565b5050505b505050565b81516001600160401b03811115620002a857620002a8620000ce565b620002c081620002b98454620001fd565b8462000239565b602080601f831160018114620002f85760008415620002df5750858301515b600019600386901b1c1916600185901b17855562000283565b600085815260208120601f198616915b82811015620003295788860151825594840194600190910190840162000308565b5085821015620003485787850151600019600388901b60f8161c191681555b5050505050600190811b01905550565b611d5380620003686000396000f3fe608060405234801561001057600080fd5b50600436106101375760003560e01c80634f6ccce7116100b857806395d89b411161007c57806395d89b411461027c578063a22cb46514610284578063b88d4fde14610297578063c87b56dd146102ab578063e985e9c5146102be578063f2fde38b146102fa57600080fd5b80634f6ccce71461022a5780636352211e1461023d57806370a0823114610250578063715018a6146102635780638da5cb5b1461026b57600080fd5b806323b872dd116100ff57806323b872dd146101cb5780632f745c59146101de57806340d097c3146101f157806342842e0e1461020457806342966c681461021757600080fd5b806301ffc9a71461013c57806306fdde0314610164578063081812fc14610179578063095ea7b3146101a457806318160ddd146101b9575b600080fd5b61014f61014a366004611701565b61030d565b60405190151581526020015b60405180910390f35b61016c61031e565b60405161015b9190611775565b61018c610187366004611788565b6103b0565b6040516001600160a01b03909116815260200161015b565b6101b76101b23660046117bd565b6103d7565b005b6008545b60405190815260200161015b565b6101b76101d93660046117e7565b6104ec565b6101bd6101ec3660046117bd565b61051e565b6101b76101ff366004611823565b6105b4565b6101b76102123660046117e7565b505050565b6101b7610225366004611788565b610617565b6101bd610238366004611788565b610648565b61018c61024b366004611788565b6106db565b6101bd61025e366004611823565b61073b565b6101b76107c1565b600b546001600160a01b031661018c565b61016c6107d5565b6101b761029236600461183e565b6107e4565b6101b76102a5366004611890565b50505050565b61016c6102b9366004611788565b6107f3565b61014f6102cc36600461196c565b6001600160a01b03918216600090815260056020908152604080832093909416825291909152205460ff1690565b6101b7610308366004611823565b610826565b60006103188261089c565b92915050565b60606000805461032d9061199f565b80601f01602080910402602001604051908101604052809291908181526020018280546103599061199f565b80156103a65780601f1061037b576101008083540402835291602001916103a6565b820191906000526020600020905b81548152906001019060200180831161038957829003601f168201915b5050505050905090565b60006103bb826108c1565b506000908152600460205260409020546001600160a01b031690565b60006103e2826106db565b9050806001600160a01b0316836001600160a01b0316036104545760405162461bcd60e51b815260206004820152602160248201527f4552433732313a20617070726f76616c20746f2063757272656e74206f776e656044820152603960f91b60648201526084015b60405180910390fd5b336001600160a01b0382161480610470575061047081336102cc565b6104e25760405162461bcd60e51b815260206004820152603d60248201527f4552433732313a20617070726f76652063616c6c6572206973206e6f7420746f60448201527f6b656e206f776e6572206f7220617070726f76656420666f7220616c6c000000606482015260840161044b565b6102128383610920565b6104f7335b8261098e565b6105135760405162461bcd60e51b815260040161044b906119d9565b610212838383610a0d565b60006105298361073b565b821061058b5760405162461bcd60e51b815260206004820152602b60248201527f455243373231456e756d657261626c653a206f776e657220696e646578206f7560448201526a74206f6620626f756e647360a81b606482015260840161044b565b506001600160a01b03919091166000908152600660209081526040808320938352929052205490565b6105bc610b7e565b60006105c7600c5490565b90506105d7600c80546001019055565b6105e18282610bd8565b60006105ec82610bf2565b6040516020016105fc9190611a26565b60405160208183030381529060405290506102128282610c85565b610620336104f1565b61063c5760405162461bcd60e51b815260040161044b906119d9565b61064581610d18565b50565b600061065360085490565b82106106b65760405162461bcd60e51b815260206004820152602c60248201527f455243373231456e756d657261626c653a20676c6f62616c20696e646578206f60448201526b7574206f6620626f756e647360a01b606482015260840161044b565b600882815481106106c9576106c9611a4f565b90600052602060002001549050919050565b6000818152600260205260408120546001600160a01b0316806103185760405162461bcd60e51b8152602060048201526018602482015277115490cdcc8c4e881a5b9d985b1a59081d1bdad95b88125160421b604482015260640161044b565b60006001600160a01b0382166107a55760405162461bcd60e51b815260206004820152602960248201527f4552433732313a2061646472657373207a65726f206973206e6f7420612076616044820152683634b21037bbb732b960b91b606482015260840161044b565b506001600160a01b031660009081526003602052604090205490565b6107c9610b7e565b6107d36000610d21565b565b60606001805461032d9061199f565b6107ef338383610d73565b5050565b606060006107ff610e41565b60405160200161080f9190611a65565b60408051601f198184030181529190529392505050565b61082e610b7e565b6001600160a01b0381166108935760405162461bcd60e51b815260206004820152602660248201527f4f776e61626c653a206e6577206f776e657220697320746865207a65726f206160448201526564647265737360d01b606482015260840161044b565b61064581610d21565b60006001600160e01b0319821663780e9d6360e01b1480610318575061031882610e61565b6000818152600260205260409020546001600160a01b03166106455760405162461bcd60e51b8152602060048201526018602482015277115490cdcc8c4e881a5b9d985b1a59081d1bdad95b88125160421b604482015260640161044b565b600081815260046020526040902080546001600160a01b0319166001600160a01b0384169081179091558190610955826106db565b6001600160a01b03167f8c5be1e5ebec7d5bd14f71427d1e84f3dd0314c0f7b2291e5b200ac8c7c3b92560405160405180910390a45050565b60008061099a836106db565b9050806001600160a01b0316846001600160a01b031614806109e157506001600160a01b0380821660009081526005602090815260408083209388168352929052205460ff165b80610a055750836001600160a01b03166109fa846103b0565b6001600160a01b0316145b949350505050565b826001600160a01b0316610a20826106db565b6001600160a01b031614610a465760405162461bcd60e51b815260040161044b90611a96565b6001600160a01b038216610aa85760405162461bcd60e51b8152602060048201526024808201527f4552433732313a207472616e7366657220746f20746865207a65726f206164646044820152637265737360e01b606482015260840161044b565b610ab58383836001610eb1565b826001600160a01b0316610ac8826106db565b6001600160a01b031614610aee5760405162461bcd60e51b815260040161044b90611a96565b600081815260046020908152604080832080546001600160a01b03199081169091556001600160a01b0387811680865260038552838620805460001901905590871680865283862080546001019055868652600290945282852080549092168417909155905184937fddf252ad1be2c89b69c2b068fc378daa952ba7f163c4a11628f55a4df523b3ef91a4505050565b600b546001600160a01b031633146107d35760405162461bcd60e51b815260206004820181905260248201527f4f776e61626c653a2063616c6c6572206973206e6f7420746865206f776e6572604482015260640161044b565b6107ef828260405180602001604052806000815250610ebd565b60606000610bff83610ef0565b600101905060008167ffffffffffffffff811115610c1f57610c1f61187a565b6040519080825280601f01601f191660200182016040528015610c49576020820181803683370190505b5090508181016020015b600019016f181899199a1a9b1b9c1cb0b131b232b360811b600a86061a8153600a8504945084610c5357509392505050565b6000828152600260205260409020546001600160a01b0316610d005760405162461bcd60e51b815260206004820152602e60248201527f45524337323155524953746f726167653a2055524920736574206f66206e6f6e60448201526d32bc34b9ba32b73a103a37b5b2b760911b606482015260840161044b565b6000828152600a602052604090206102128282611b29565b61064581610fc8565b600b80546001600160a01b038381166001600160a01b0319831681179093556040519116919082907f8be0079c531659141344cd1fd0a4f28419497f9722a3daafe3b4186f6b6457e090600090a35050565b816001600160a01b0316836001600160a01b031603610dd45760405162461bcd60e51b815260206004820152601960248201527f4552433732313a20617070726f766520746f2063616c6c657200000000000000604482015260640161044b565b6001600160a01b03838116600081815260056020908152604080832094871680845294825291829020805460ff191686151590811790915591519182527f17307eab39ab6107e8899845ad3d59bd9653f200f220920489ca2b5937696c31910160405180910390a3505050565b6060604051806060016040528060368152602001611ce860369139905090565b60006001600160e01b031982166380ac58cd60e01b1480610e9257506001600160e01b03198216635b5e139f60e01b145b8061031857506301ffc9a760e01b6001600160e01b0319831614610318565b6102a584848484611008565b610ec78383611148565b610ed460008484846112e1565b6102125760405162461bcd60e51b815260040161044b90611be9565b60008072184f03e93ff9f4daa797ed6e38ed64bf6a1f0160401b8310610f2f5772184f03e93ff9f4daa797ed6e38ed64bf6a1f0160401b830492506040015b6d04ee2d6d415b85acef81000000008310610f5b576d04ee2d6d415b85acef8100000000830492506020015b662386f26fc100008310610f7957662386f26fc10000830492506010015b6305f5e1008310610f91576305f5e100830492506008015b6127108310610fa557612710830492506004015b60648310610fb7576064830492506002015b600a83106103185760010192915050565b610fd1816113e2565b6000818152600a602052604090208054610fea9061199f565b159050610645576000818152600a602052604081206106459161169d565b61101484848484611485565b60018111156110835760405162461bcd60e51b815260206004820152603560248201527f455243373231456e756d657261626c653a20636f6e7365637574697665207472604482015274185b9cd9995c9cc81b9bdd081cdd5c1c1bdc9d1959605a1b606482015260840161044b565b816001600160a01b0385166110df576110da81600880546000838152600960205260408120829055600182018355919091527ff3f7a9fe364faab93b216da50a3214154f22a0a2b415b23a84c8169e8b636ee30155565b611102565b836001600160a01b0316856001600160a01b03161461110257611102858261150d565b6001600160a01b03841661111e57611119816115aa565b611141565b846001600160a01b0316846001600160a01b031614611141576111418482611659565b5050505050565b6001600160a01b03821661119e5760405162461bcd60e51b815260206004820181905260248201527f4552433732313a206d696e7420746f20746865207a65726f2061646472657373604482015260640161044b565b6000818152600260205260409020546001600160a01b0316156112035760405162461bcd60e51b815260206004820152601c60248201527f4552433732313a20746f6b656e20616c7265616479206d696e74656400000000604482015260640161044b565b611211600083836001610eb1565b6000818152600260205260409020546001600160a01b0316156112765760405162461bcd60e51b815260206004820152601c60248201527f4552433732313a20746f6b656e20616c7265616479206d696e74656400000000604482015260640161044b565b6001600160a01b038216600081815260036020908152604080832080546001019055848352600290915280822080546001600160a01b0319168417905551839291907fddf252ad1be2c89b69c2b068fc378daa952ba7f163c4a11628f55a4df523b3ef908290a45050565b60006001600160a01b0384163b156113d757604051630a85bd0160e11b81526001600160a01b0385169063150b7a0290611325903390899088908890600401611c3b565b6020604051808303816000875af1925050508015611360575060408051601f3d908101601f1916820190925261135d91810190611c78565b60015b6113bd573d80801561138e576040519150601f19603f3d011682016040523d82523d6000602084013e611393565b606091505b5080516000036113b55760405162461bcd60e51b815260040161044b90611be9565b805181602001fd5b6001600160e01b031916630a85bd0160e11b149050610a05565b506001949350505050565b60006113ed826106db565b90506113fd816000846001610eb1565b611406826106db565b600083815260046020908152604080832080546001600160a01b03199081169091556001600160a01b0385168085526003845282852080546000190190558785526002909352818420805490911690555192935084927fddf252ad1be2c89b69c2b068fc378daa952ba7f163c4a11628f55a4df523b3ef908390a45050565b60018111156102a5576001600160a01b038416156114cb576001600160a01b038416600090815260036020526040812080548392906114c5908490611cab565b90915550505b6001600160a01b038316156102a5576001600160a01b03831660009081526003602052604081208054839290611502908490611cbe565b909155505050505050565b6000600161151a8461073b565b6115249190611cab565b600083815260076020526040902054909150808214611577576001600160a01b03841660009081526006602090815260408083208584528252808320548484528184208190558352600790915290208190555b5060009182526007602090815260408084208490556001600160a01b039094168352600681528383209183525290812055565b6008546000906115bc90600190611cab565b600083815260096020526040812054600880549394509092849081106115e4576115e4611a4f565b90600052602060002001549050806008838154811061160557611605611a4f565b600091825260208083209091019290925582815260099091526040808220849055858252812055600880548061163d5761163d611cd1565b6001900381819060005260206000200160009055905550505050565b60006116648361073b565b6001600160a01b039093166000908152600660209081526040808320868452825280832085905593825260079052919091209190915550565b5080546116a99061199f565b6000825580601f106116b9575050565b601f01602090049060005260206000209081019061064591905b808211156116e757600081556001016116d3565b5090565b6001600160e01b03198116811461064557600080fd5b60006020828403121561171357600080fd5b813561171e816116eb565b9392505050565b60005b83811015611740578181015183820152602001611728565b50506000910152565b60008151808452611761816020860160208601611725565b601f01601f19169290920160200192915050565b60208152600061171e6020830184611749565b60006020828403121561179a57600080fd5b5035919050565b80356001600160a01b03811681146117b857600080fd5b919050565b600080604083850312156117d057600080fd5b6117d9836117a1565b946020939093013593505050565b6000806000606084860312156117fc57600080fd5b611805846117a1565b9250611813602085016117a1565b9150604084013590509250925092565b60006020828403121561183557600080fd5b61171e826117a1565b6000806040838503121561185157600080fd5b61185a836117a1565b91506020830135801515811461186f57600080fd5b809150509250929050565b634e487b7160e01b600052604160045260246000fd5b600080600080608085870312156118a657600080fd5b6118af856117a1565b93506118bd602086016117a1565b925060408501359150606085013567ffffffffffffffff808211156118e157600080fd5b818701915087601f8301126118f557600080fd5b8135818111156119075761190761187a565b604051601f8201601f19908116603f0116810190838211818310171561192f5761192f61187a565b816040528281528a602084870101111561194857600080fd5b82602086016020830137600060208483010152809550505050505092959194509250565b6000806040838503121561197f57600080fd5b611988836117a1565b9150611996602084016117a1565b90509250929050565b600181811c908216806119b357607f821691505b6020821081036119d357634e487b7160e01b600052602260045260246000fd5b50919050565b6020808252602d908201527f4552433732313a2063616c6c6572206973206e6f7420746f6b656e206f776e6560408201526c1c881bdc88185c1c1c9bdd9959609a1b606082015260800190565b60008251611a38818460208701611725565b64173539b7b760d91b920191825250600501919050565b634e487b7160e01b600052603260045260246000fd5b60008251611a77818460208701611725565b6c36b2ba30b230ba30973539b7b760991b920191825250600d01919050565b60208082526025908201527f4552433732313a207472616e736665722066726f6d20696e636f72726563742060408201526437bbb732b960d91b606082015260800190565b601f82111561021257600081815260208120601f850160051c81016020861015611b025750805b601f850160051c820191505b81811015611b2157828155600101611b0e565b505050505050565b815167ffffffffffffffff811115611b4357611b4361187a565b611b5781611b51845461199f565b84611adb565b602080601f831160018114611b8c5760008415611b745750858301515b600019600386901b1c1916600185901b178555611b21565b600085815260208120601f198616915b82811015611bbb57888601518255948401946001909101908401611b9c565b5085821015611bd95787850151600019600388901b60f8161c191681555b5050505050600190811b01905550565b60208082526032908201527f4552433732313a207472616e7366657220746f206e6f6e20455243373231526560408201527131b2b4bb32b91034b6b83632b6b2b73a32b960711b606082015260800190565b6001600160a01b0385811682528416602082015260408101839052608060608201819052600090611c6e90830184611749565b9695505050505050565b600060208284031215611c8a57600080fd5b815161171e816116eb565b634e487b7160e01b600052601160045260246000fd5b8181038181111561031857610318611c95565b8082018082111561031857610318611c95565b634e487b7160e01b600052603160045260246000fdfe68747470733a2f2f7467742d6861636b6174686f6e2d63656c6f2e6769746875622e696f2f6f646f79612d746f6b656e732f6e66742fa2646970667358221220cab4f22e5fd6680bd405fcf9751a5817b832dd91626fa795a9a2856e8e964cba64736f6c63430008110033a2646970667358221220d0b1a4c4a1fb235378f7b5fc28275e159a224175d1ea2b029178b8362debb17b64736f6c63430008110033",
  "linkReferences": {},
  "deployedLinkReferences": {}
}