{
  "_format": "hh-sol-artifact-1",
  "contractName": "OdoyaRecompensa",
  "sourceName": "contracts/OdoyaRecompensa.sol",
  "abi": [
    {
      "inputs": [],
      "stateMutability": "nonpayable",
      "type": "constructor"
    },
    {
      "anonymous": false,
      "inputs": [
        {
          "indexed": true,
          "internalType": "address",
          "name": "owner",
          "type": "address"
        },
        {
          "indexed": true,
          "internalType": "address",
          "name": "spender",
          "type": "address"
        },
        {
          "indexed": false,
          "internalType": "uint256",
          "name": "value",
          "type": "uint256"
        }
      ],
      "name": "Approval",
      "type": "event"
    },
    {
      "anonymous": false,
      "inputs": [
        {
          "indexed": true,
          "internalType": "address",
          "name": "previousOwner",
          "type": "address"
        },
        {
          "indexed": true,
          "internalType": "address",
          "name": "newOwner",
          "type": "address"
        }
      ],
      "name": "OwnershipTransferred",
      "type": "event"
    },
    {
      "anonymous": false,
      "inputs": [
        {
          "indexed": false,
          "internalType": "address",
          "name": "account",
          "type": "address"
        }
      ],
      "name": "Paused",
      "type": "event"
    },
    {
      "anonymous": false,
      "inputs": [
        {
          "indexed": true,
          "internalType": "address",
          "name": "from",
          "type": "address"
        },
        {
          "indexed": true,
          "internalType": "address",
          "name": "to",
          "type": "address"
        },
        {
          "indexed": false,
          "internalType": "uint256",
          "name": "value",
          "type": "uint256"
        }
      ],
      "name": "Transfer",
      "type": "event"
    },
    {
      "anonymous": false,
      "inputs": [
        {
          "indexed": false,
          "internalType": "address",
          "name": "account",
          "type": "address"
        }
      ],
      "name": "Unpaused",
      "type": "event"
    },
    {
      "inputs": [],
      "name": "DOMAIN_SEPARATOR",
      "outputs": [
        {
          "internalType": "bytes32",
          "name": "",
          "type": "bytes32"
        }
      ],
      "stateMutability": "view",
      "type": "function"
    },
    {
      "inputs": [
        {
          "internalType": "address",
          "name": "_newLeader",
          "type": "address"
        }
      ],
      "name": "addLeader",
      "outputs": [],
      "stateMutability": "nonpayable",
      "type": "function"
    },
    {
      "inputs": [
        {
          "internalType": "address",
          "name": "_leader",
          "type": "address"
        },
        {
          "internalType": "string",
          "name": "_title",
          "type": "string"
        },
        {
          "internalType": "string",
          "name": "_place",
          "type": "string"
        },
        {
          "internalType": "uint256",
          "name": "_when",
          "type": "uint256"
        },
        {
          "internalType": "uint256",
          "name": "_totalRewards",
          "type": "uint256"
        }
      ],
      "name": "addRegenAction",
      "outputs": [],
      "stateMutability": "nonpayable",
      "type": "function"
    },
    {
      "inputs": [
        {
          "internalType": "address",
          "name": "owner",
          "type": "address"
        },
        {
          "internalType": "address",
          "name": "spender",
          "type": "address"
        }
      ],
      "name": "allowance",
      "outputs": [
        {
          "internalType": "uint256",
          "name": "",
          "type": "uint256"
        }
      ],
      "stateMutability": "view",
      "type": "function"
    },
    {
      "inputs": [
        {
          "internalType": "address",
          "name": "",
          "type": "address"
        }
      ],
      "name": "allowedLeaders",
      "outputs": [
        {
          "internalType": "bool",
          "name": "",
          "type": "bool"
        }
      ],
      "stateMutability": "view",
      "type": "function"
    },
    {
      "inputs": [
        {
          "internalType": "address",
          "name": "spender",
          "type": "address"
        },
        {
          "internalType": "uint256",
          "name": "amount",
          "type": "uint256"
        }
      ],
      "name": "approve",
      "outputs": [
        {
          "internalType": "bool",
          "name": "",
          "type": "bool"
        }
      ],
      "stateMutability": "nonpayable",
      "type": "function"
    },
    {
      "inputs": [
        {
          "internalType": "address",
          "name": "account",
          "type": "address"
        }
      ],
      "name": "balanceOf",
      "outputs": [
        {
          "internalType": "uint256",
          "name": "",
          "type": "uint256"
        }
      ],
      "stateMutability": "view",
      "type": "function"
    },
    {
      "inputs": [
        {
          "internalType": "uint256",
          "name": "amount",
          "type": "uint256"
        }
      ],
      "name": "burn",
      "outputs": [],
      "stateMutability": "nonpayable",
      "type": "function"
    },
    {
      "inputs": [
        {
          "internalType": "address",
          "name": "account",
          "type": "address"
        },
        {
          "internalType": "uint256",
          "name": "amount",
          "type": "uint256"
        }
      ],
      "name": "burnFrom",
      "outputs": [],
      "stateMutability": "nonpayable",
      "type": "function"
    },
    {
      "inputs": [],
      "name": "decimals",
      "outputs": [
        {
          "internalType": "uint8",
          "name": "",
          "type": "uint8"
        }
      ],
      "stateMutability": "view",
      "type": "function"
    },
    {
      "inputs": [
        {
          "internalType": "address",
          "name": "spender",
          "type": "address"
        },
        {
          "internalType": "uint256",
          "name": "subtractedValue",
          "type": "uint256"
        }
      ],
      "name": "decreaseAllowance",
      "outputs": [
        {
          "internalType": "bool",
          "name": "",
          "type": "bool"
        }
      ],
      "stateMutability": "nonpayable",
      "type": "function"
    },
    {
      "inputs": [
        {
          "internalType": "address",
          "name": "spender",
          "type": "address"
        },
        {
          "internalType": "uint256",
          "name": "addedValue",
          "type": "uint256"
        }
      ],
      "name": "increaseAllowance",
      "outputs": [
        {
          "internalType": "bool",
          "name": "",
          "type": "bool"
        }
      ],
      "stateMutability": "nonpayable",
      "type": "function"
    },
    {
      "inputs": [
        {
          "internalType": "address",
          "name": "_to",
          "type": "address"
        },
        {
          "internalType": "uint256",
          "name": "_amount",
          "type": "uint256"
        },
        {
          "internalType": "uint256",
          "name": "_regenActionID",
          "type": "uint256"
        }
      ],
      "name": "mint",
      "outputs": [],
      "stateMutability": "nonpayable",
      "type": "function"
    },
    {
      "inputs": [],
      "name": "name",
      "outputs": [
        {
          "internalType": "string",
          "name": "",
          "type": "string"
        }
      ],
      "stateMutability": "view",
      "type": "function"
    },
    {
      "inputs": [
        {
          "internalType": "address",
          "name": "owner",
          "type": "address"
        }
      ],
      "name": "nonces",
      "outputs": [
        {
          "internalType": "uint256",
          "name": "",
          "type": "uint256"
        }
      ],
      "stateMutability": "view",
      "type": "function"
    },
    {
      "inputs": [],
      "name": "owner",
      "outputs": [
        {
          "internalType": "address",
          "name": "",
          "type": "address"
        }
      ],
      "stateMutability": "view",
      "type": "function"
    },
    {
      "inputs": [],
      "name": "pause",
      "outputs": [],
      "stateMutability": "nonpayable",
      "type": "function"
    },
    {
      "inputs": [],
      "name": "paused",
      "outputs": [
        {
          "internalType": "bool",
          "name": "",
          "type": "bool"
        }
      ],
      "stateMutability": "view",
      "type": "function"
    },
    {
      "inputs": [
        {
          "internalType": "address",
          "name": "owner",
          "type": "address"
        },
        {
          "internalType": "address",
          "name": "spender",
          "type": "address"
        },
        {
          "internalType": "uint256",
          "name": "value",
          "type": "uint256"
        },
        {
          "internalType": "uint256",
          "name": "deadline",
          "type": "uint256"
        },
        {
          "internalType": "uint8",
          "name": "v",
          "type": "uint8"
        },
        {
          "internalType": "bytes32",
          "name": "r",
          "type": "bytes32"
        },
        {
          "internalType": "bytes32",
          "name": "s",
          "type": "bytes32"
        }
      ],
      "name": "permit",
      "outputs": [],
      "stateMutability": "nonpayable",
      "type": "function"
    },
    {
      "inputs": [],
      "name": "regenActionCounter",
      "outputs": [
        {
          "internalType": "uint256",
          "name": "",
          "type": "uint256"
        }
      ],
      "stateMutability": "view",
      "type": "function"
    },
    {
      "inputs": [
        {
          "internalType": "uint256",
          "name": "",
          "type": "uint256"
        }
      ],
      "name": "regenActionPlanned",
      "outputs": [
        {
          "internalType": "address",
          "name": "leader",
          "type": "address"
        },
        {
          "internalType": "address",
          "name": "nft",
          "type": "address"
        },
        {
          "internalType": "string",
          "name": "title",
          "type": "string"
        },
        {
          "internalType": "string",
          "name": "place",
          "type": "string"
        },
        {
          "internalType": "uint256",
          "name": "when",
          "type": "uint256"
        },
        {
          "internalType": "uint256",
          "name": "totalRewards",
          "type": "uint256"
        },
        {
          "internalType": "uint256",
          "name": "totalRewardsAvailable",
          "type": "uint256"
        },
        {
          "internalType": "bool",
          "name": "stillValid",
          "type": "bool"
        }
      ],
      "stateMutability": "view",
      "type": "function"
    },
    {
      "inputs": [
        {
          "internalType": "address",
          "name": "_oldLeader",
          "type": "address"
        }
      ],
      "name": "removeLeader",
      "outputs": [],
      "stateMutability": "nonpayable",
      "type": "function"
    },
    {
      "inputs": [],
      "name": "renounceOwnership",
      "outputs": [],
      "stateMutability": "nonpayable",
      "type": "function"
    },
    {
      "inputs": [],
      "name": "symbol",
      "outputs": [
        {
          "internalType": "string",
          "name": "",
          "type": "string"
        }
      ],
      "stateMutability": "view",
      "type": "function"
    },
    {
      "inputs": [],
      "name": "totalSupply",
      "outputs": [
        {
          "internalType": "uint256",
          "name": "",
          "type": "uint256"
        }
      ],
      "stateMutability": "view",
      "type": "function"
    },
    {
      "inputs": [
        {
          "internalType": "address",
          "name": "to",
          "type": "address"
        },
        {
          "internalType": "uint256",
          "name": "amount",
          "type": "uint256"
        }
      ],
      "name": "transfer",
      "outputs": [
        {
          "internalType": "bool",
          "name": "",
          "type": "bool"
        }
      ],
      "stateMutability": "nonpayable",
      "type": "function"
    },
    {
      "inputs": [
        {
          "internalType": "address",
          "name": "from",
          "type": "address"
        },
        {
          "internalType": "address",
          "name": "to",
          "type": "address"
        },
        {
          "internalType": "uint256",
          "name": "amount",
          "type": "uint256"
        }
      ],
      "name": "transferFrom",
      "outputs": [
        {
          "internalType": "bool",
          "name": "",
          "type": "bool"
        }
      ],
      "stateMutability": "nonpayable",
      "type": "function"
    },
    {
      "inputs": [
        {
          "internalType": "address",
          "name": "newOwner",
          "type": "address"
        }
      ],
      "name": "transferOwnership",
      "outputs": [],
      "stateMutability": "nonpayable",
      "type": "function"
    },
    {
      "inputs": [],
      "name": "unpause",
      "outputs": [],
      "stateMutability": "nonpayable",
      "type": "function"
    }
  ],
  "bytecode": "0x6101406040523480156200001257600080fd5b506040518060400160405280600f81526020016e4f646f79615265636f6d70656e736160881b81525080604051806040016040528060018152602001603160f81b8152506040518060400160405280601081526020016f4f646f7961205265636f6d70656e736160801b815250604051806040016040528060058152602001644f444f594160d81b8152508160039081620000ae91906200030f565b506004620000bd82826200030f565b50506005805460ff1916905550620000d5336200017b565b815160209283012081519183019190912060e08290526101008190524660a0818152604080517f8b73c3c69bb8fe3d512ecc4cf759cc79239f7b179b0ffacaa9a75d522b39400f818801819052818301969096526060810194909452608080850193909352308483018190528151808603909301835260c094850190915281519190950120905291909152610120525060006009556200017533620001d5565b620003db565b600580546001600160a01b03838116610100818102610100600160a81b031985161790945560405193909204169182907f8be0079c531659141344cd1fd0a4f28419497f9722a3daafe3b4186f6b6457e090600090a35050565b620001df62000203565b6001600160a01b03166000908152600860205260409020805460ff19166001179055565b6005546001600160a01b03610100909104163314620002685760405162461bcd60e51b815260206004820181905260248201527f4f776e61626c653a2063616c6c6572206973206e6f7420746865206f776e6572604482015260640160405180910390fd5b565b634e487b7160e01b600052604160045260246000fd5b600181811c908216806200029557607f821691505b602082108103620002b657634e487b7160e01b600052602260045260246000fd5b50919050565b601f8211156200030a57600081815260208120601f850160051c81016020861015620002e55750805b601f850160051c820191505b818110156200030657828155600101620002f1565b5050505b505050565b81516001600160401b038111156200032b576200032b6200026a565b62000343816200033c845462000280565b84620002bc565b602080601f8311600181146200037b5760008415620003625750858301515b600019600386901b1c1916600185901b17855562000306565b600085815260208120601f198616915b82811015620003ac578886015182559484019460019091019084016200038b565b5085821015620003cb5787850151600019600388901b60f8161c191681555b5050505050600190811b01905550565b60805160a05160c05160e05161010051610120516144f36200042b60003960006114fe0152600061154d015260006115280152600061147f015260006114aa015260006114d501526144f36000f3fe60806040523480156200001157600080fd5b5060043610620001f55760003560e01c8063715018a61162000119578063a0692fa411620000af578063dd62ed3e116200007a578063dd62ed3e146200042a578063e6aef2791462000441578063f1340382146200046e578063f2fde38b146200048557600080fd5b8063a0692fa414620003ce578063a457c2d714620003e5578063a9059cbb14620003fc578063d505accf146200041357600080fd5b80638456cb5911620000f05780638456cb5914620003795780638da5cb5b14620003835780639037f18214620003ad57806395d89b4114620003c457600080fd5b8063715018a6146200034157806379cc6790146200034b5780637ecebe00146200036257600080fd5b80633644e515116200018f57806342966c68116200016657806342966c6814620002cc5780635247906214620002e35780635c975abb146200030957806370a08231146200031557600080fd5b80633644e51514620002a15780633950935114620002ab5780633f4ba83a14620002c257600080fd5b806318160ddd11620001d057806318160ddd146200025d57806323b872dd1462000270578063313ce56714620002875780633619c8dc146200029757600080fd5b806306fdde0314620001fa578063095ea7b3146200021c578063156e29f61462000244575b600080fd5b620002046200049c565b60405162000213919062001b8b565b60405180910390f35b620002336200022d36600462001bc4565b62000536565b604051901515815260200162000213565b6200025b6200025536600462001bf1565b62000552565b005b6002545b60405190815260200162000213565b620002336200028136600462001c27565b620006d1565b6040516012815260200162000213565b6200026160095481565b62000261620006f9565b62000233620002bc36600462001bc4565b6200070a565b6200025b62000732565b6200025b620002dd36600462001c68565b62000748565b62000233620002f436600462001c82565b60086020526000908152604090205460ff1681565b60055460ff1662000233565b620002616200032636600462001c82565b6001600160a01b031660009081526020819052604090205490565b6200025b62000757565b6200025b6200035c36600462001bc4565b6200076d565b620002616200037336600462001c82565b6200078a565b6200025b620007a9565b60055461010090046001600160a01b03166040516001600160a01b03909116815260200162000213565b6200025b620003be36600462001c82565b620007bd565b6200020462000868565b6200025b620003df36600462001d4b565b62000879565b62000233620003f636600462001bc4565b62000b9c565b620002336200040d36600462001bc4565b62000c1d565b6200025b6200042436600462001dda565b62000c2d565b620002616200043b36600462001e53565b62000d9d565b620004586200045236600462001c68565b62000dc8565b6040516200021398979695949392919062001e8b565b6200025b6200047f36600462001c82565b62000f3a565b6200025b6200049636600462001c82565b62000f68565b606060038054620004ad9062001efa565b80601f0160208091040260200160405190810160405280929190818152602001828054620004db9062001efa565b80156200052c5780601f1062000500576101008083540402835291602001916200052c565b820191906000526020600020905b8154815290600101906020018083116200050e57829003601f168201915b5050505050905090565b6000336200054681858562000fe4565b60019150505b92915050565b6200055c6200110c565b6000818152600a60205260409020600781015460ff16620005cf5760405162461bcd60e51b815260206004820152602260248201527f54686520526567656e20416374696f6e206e6565647320746f2062652076616c6044820152611a5960f21b60648201526084015b60405180910390fd5b8281600601541015620006255760405162461bcd60e51b815260206004820152601c60248201527f5468657265206973206e6f2073756666696369656e742066756e6473000000006044820152606401620005c6565b80600401544210156200067b5760405162461bcd60e51b815260206004820152601f60248201527f546865206576656e74206d7573742068617665206765742073746172746564006044820152606401620005c6565b60048101546200068f906201518062001f46565b421115620006a757600701805460ff19169055505050565b828160060154620006b9919062001f5c565b6006820155620006ca84846200116e565b505b505050565b600033620006e18582856200123f565b620006ee858585620012ba565b506001949350505050565b60006200070562001472565b905090565b6000336200054681858562000720838362000d9d565b6200072c919062001f46565b62000fe4565b6200073c6200110c565b620007466200159b565b565b620007543382620015ef565b50565b620007616200110c565b62000746600062001733565b6200077a8233836200123f565b620007868282620015ef565b5050565b6001600160a01b0381166000908152600660205260408120546200054c565b620007b36200110c565b620007466200178d565b620007c76200110c565b6001600160a01b03811660009081526008602052604090205460ff16620008475760405162461bcd60e51b815260206004820152602d60248201527f4f72206c6561646572206e6f74206578697374206f722069742077617320616c60448201526c1c9958591e481c995b5bdd9959609a1b6064820152608401620005c6565b6001600160a01b03166000908152600860205260409020805460ff19169055565b606060048054620004ad9062001efa565b620008836200110c565b6001600160a01b03851660009081526008602052604090205460ff16620008f85760405162461bcd60e51b815260206004820152602260248201527f4c6561646572206d7573742062652070726576696f75736c7920617070726f76604482015261195960f21b6064820152608401620005c6565b428211620009555760405162461bcd60e51b8152602060048201526024808201527f416374696f6e206d75737420626520706c616e6e656420746f207468652066756044820152637475726560e01b6064820152608401620005c6565b60008111620009b75760405162461bcd60e51b815260206004820152602760248201527f546f74616c2052657761726473206d7573742062652067726561746572207468604482015266616e207a65726f60c81b6064820152608401620005c6565b620009c5601260016200206f565b620009d490620f424062002080565b811062000a3b5760405162461bcd60e51b815260206004820152602e60248201527f546f74616c2052657761726473206d757374206265206c657373207468616e2060448201526d3130303030303020746f6b656e7360901b6064820152608401620005c6565b60008462000a4862000868565b60405162000a569062001b35565b62000a639291906200209a565b604051809103906000f08015801562000a80573d6000803e3d6000fd5b5060408051610100810182526001600160a01b03808a16825283166020820152908101879052606081018690526080810185905260a0810184905260c08101849052600160e082015260098054929350909190600062000ae083620020cc565b90915550506009546000908152600a6020908152604091829020835181546001600160a01b03199081166001600160a01b039283161783559285015160018301805490941691161790915590820151829190600282019062000b4390826200213a565b506060820151600382019062000b5a90826200213a565b506080820151600482015560a0820151600582015560c0820151600682015560e0909101516007909101805460ff191691151591909117905550505050505050565b6000338162000bac828662000d9d565b90508381101562000c0e5760405162461bcd60e51b815260206004820152602560248201527f45524332303a2064656372656173656420616c6c6f77616e63652062656c6f77604482015264207a65726f60d81b6064820152608401620005c6565b620006ee828686840362000fe4565b60003362000546818585620012ba565b8342111562000c7f5760405162461bcd60e51b815260206004820152601d60248201527f45524332305065726d69743a206578706972656420646561646c696e650000006044820152606401620005c6565b60007f6e71edae12b1b97f4d1f60370fef10105fa2faae0126114a169c64845d6126c988888862000cb08c620017cd565b6040805160208101969096526001600160a01b0394851690860152929091166060840152608083015260a082015260c0810186905260e001604051602081830303815290604052805190602001209050600062000d0d82620017f5565b9050600062000d1f8287878762001846565b9050896001600160a01b0316816001600160a01b03161462000d845760405162461bcd60e51b815260206004820152601e60248201527f45524332305065726d69743a20696e76616c6964207369676e617475726500006044820152606401620005c6565b62000d918a8a8a62000fe4565b50505050505050505050565b6001600160a01b03918216600090815260016020908152604080832093909416825291909152205490565b600a602052600090815260409020805460018201546002830180546001600160a01b0393841694929093169262000dff9062001efa565b80601f016020809104026020016040519081016040528092919081815260200182805462000e2d9062001efa565b801562000e7e5780601f1062000e525761010080835404028352916020019162000e7e565b820191906000526020600020905b81548152906001019060200180831162000e6057829003601f168201915b50505050509080600301805462000e959062001efa565b80601f016020809104026020016040519081016040528092919081815260200182805462000ec39062001efa565b801562000f145780601f1062000ee85761010080835404028352916020019162000f14565b820191906000526020600020905b81548152906001019060200180831162000ef657829003601f168201915b505050506004830154600584015460068501546007909501549394919390925060ff1688565b62000f446200110c565b6001600160a01b03166000908152600860205260409020805460ff19166001179055565b62000f726200110c565b6001600160a01b03811662000fd95760405162461bcd60e51b815260206004820152602660248201527f4f776e61626c653a206e6577206f776e657220697320746865207a65726f206160448201526564647265737360d01b6064820152608401620005c6565b620007548162001733565b6001600160a01b038316620010485760405162461bcd60e51b8152602060048201526024808201527f45524332303a20617070726f76652066726f6d20746865207a65726f206164646044820152637265737360e01b6064820152608401620005c6565b6001600160a01b038216620010ab5760405162461bcd60e51b815260206004820152602260248201527f45524332303a20617070726f766520746f20746865207a65726f206164647265604482015261737360f01b6064820152608401620005c6565b6001600160a01b0383811660008181526001602090815260408083209487168084529482529182902085905590518481527f8c5be1e5ebec7d5bd14f71427d1e84f3dd0314c0f7b2291e5b200ac8c7c3b925910160405180910390a3505050565b6005546001600160a01b03610100909104163314620007465760405162461bcd60e51b815260206004820181905260248201527f4f776e61626c653a2063616c6c6572206973206e6f7420746865206f776e65726044820152606401620005c6565b6001600160a01b038216620011c65760405162461bcd60e51b815260206004820152601f60248201527f45524332303a206d696e7420746f20746865207a65726f2061646472657373006044820152606401620005c6565b620011d46000838362001872565b8060026000828254620011e8919062001f46565b90915550506001600160a01b038216600081815260208181526040808320805486019055518481527fddf252ad1be2c89b69c2b068fc378daa952ba7f163c4a11628f55a4df523b3ef910160405180910390a35050565b60006200124d848462000d9d565b90506000198114620006ca5781811015620012ab5760405162461bcd60e51b815260206004820152601d60248201527f45524332303a20696e73756666696369656e7420616c6c6f77616e63650000006044820152606401620005c6565b620006ca848484840362000fe4565b6001600160a01b038316620013205760405162461bcd60e51b815260206004820152602560248201527f45524332303a207472616e736665722066726f6d20746865207a65726f206164604482015264647265737360d81b6064820152608401620005c6565b6001600160a01b038216620013845760405162461bcd60e51b815260206004820152602360248201527f45524332303a207472616e7366657220746f20746865207a65726f206164647260448201526265737360e81b6064820152608401620005c6565b6200139183838362001872565b6001600160a01b038316600090815260208190526040902054818110156200140b5760405162461bcd60e51b815260206004820152602660248201527f45524332303a207472616e7366657220616d6f756e7420657863656564732062604482015265616c616e636560d01b6064820152608401620005c6565b6001600160a01b03848116600081815260208181526040808320878703905593871680835291849020805487019055925185815290927fddf252ad1be2c89b69c2b068fc378daa952ba7f163c4a11628f55a4df523b3ef910160405180910390a3620006ca565b6000306001600160a01b037f000000000000000000000000000000000000000000000000000000000000000016148015620014cc57507f000000000000000000000000000000000000000000000000000000000000000046145b15620014f757507f000000000000000000000000000000000000000000000000000000000000000090565b50604080517f00000000000000000000000000000000000000000000000000000000000000006020808301919091527f0000000000000000000000000000000000000000000000000000000000000000828401527f000000000000000000000000000000000000000000000000000000000000000060608301524660808301523060a0808401919091528351808403909101815260c0909201909252805191012090565b620015a56200187c565b6005805460ff191690557f5db9ee0a495bf2e6ff9c91a7834c1ba4fdd244a5e8aa4e537bd38aeae4b073aa335b6040516001600160a01b03909116815260200160405180910390a1565b6001600160a01b038216620016515760405162461bcd60e51b815260206004820152602160248201527f45524332303a206275726e2066726f6d20746865207a65726f206164647265736044820152607360f81b6064820152608401620005c6565b6200165f8260008362001872565b6001600160a01b03821660009081526020819052604090205481811015620016d55760405162461bcd60e51b815260206004820152602260248201527f45524332303a206275726e20616d6f756e7420657863656564732062616c616e604482015261636560f01b6064820152608401620005c6565b6001600160a01b0383166000818152602081815260408083208686039055600280548790039055518581529192917fddf252ad1be2c89b69c2b068fc378daa952ba7f163c4a11628f55a4df523b3ef910160405180910390a3505050565b600580546001600160a01b03838116610100818102610100600160a81b031985161790945560405193909204169182907f8be0079c531659141344cd1fd0a4f28419497f9722a3daafe3b4186f6b6457e090600090a35050565b62001797620018c7565b6005805460ff191660011790557f62e78cea01bee320cd4e420270b5ea74000d11b0c9f74754ebdbfc544b05a258620015d23390565b6001600160a01b03811660009081526006602052604090208054600181018255905b50919050565b60006200054c6200180562001472565b8360405161190160f01b6020820152602281018390526042810182905260009060620160405160208183030381529060405280519060200120905092915050565b600080600062001859878787876200190f565b915091506200186881620019d8565b5095945050505050565b620006cc620018c7565b60055460ff16620007465760405162461bcd60e51b815260206004820152601460248201527314185d5cd8589b194e881b9bdd081c185d5cd95960621b6044820152606401620005c6565b60055460ff1615620007465760405162461bcd60e51b815260206004820152601060248201526f14185d5cd8589b194e881c185d5cd95960821b6044820152606401620005c6565b6000807f7fffffffffffffffffffffffffffffff5d576e7357a4501ddfe92f46681b20a0831115620019485750600090506003620019cf565b6040805160008082526020820180845289905260ff881692820192909252606081018690526080810185905260019060a0016020604051602081039080840390855afa1580156200199d573d6000803e3d6000fd5b5050604051601f1901519150506001600160a01b038116620019c857600060019250925050620019cf565b9150600090505b94509492505050565b6000816004811115620019ef57620019ef62002207565b03620019f85750565b600181600481111562001a0f5762001a0f62002207565b0362001a5e5760405162461bcd60e51b815260206004820152601860248201527f45434453413a20696e76616c6964207369676e617475726500000000000000006044820152606401620005c6565b600281600481111562001a755762001a7562002207565b0362001ac45760405162461bcd60e51b815260206004820152601f60248201527f45434453413a20696e76616c6964207369676e6174757265206c656e677468006044820152606401620005c6565b600381600481111562001adb5762001adb62002207565b03620007545760405162461bcd60e51b815260206004820152602260248201527f45434453413a20696e76616c6964207369676e6174757265202773272076616c604482015261756560f01b6064820152608401620005c6565b6122a0806200221e83390190565b6000815180845260005b8181101562001b6b5760208185018101518683018201520162001b4d565b506000602082860101526020601f19601f83011685010191505092915050565b60208152600062001ba0602083018462001b43565b9392505050565b80356001600160a01b038116811462001bbf57600080fd5b919050565b6000806040838503121562001bd857600080fd5b62001be38362001ba7565b946020939093013593505050565b60008060006060848603121562001c0757600080fd5b62001c128462001ba7565b95602085013595506040909401359392505050565b60008060006060848603121562001c3d57600080fd5b62001c488462001ba7565b925062001c586020850162001ba7565b9150604084013590509250925092565b60006020828403121562001c7b57600080fd5b5035919050565b60006020828403121562001c9557600080fd5b62001ba08262001ba7565b634e487b7160e01b600052604160045260246000fd5b600082601f83011262001cc857600080fd5b813567ffffffffffffffff8082111562001ce65762001ce662001ca0565b604051601f8301601f19908116603f0116810190828211818310171562001d115762001d1162001ca0565b8160405283815286602085880101111562001d2b57600080fd5b836020870160208301376000602085830101528094505050505092915050565b600080600080600060a0868803121562001d6457600080fd5b62001d6f8662001ba7565b9450602086013567ffffffffffffffff8082111562001d8d57600080fd5b62001d9b89838a0162001cb6565b9550604088013591508082111562001db257600080fd5b5062001dc18882890162001cb6565b9598949750949560608101359550608001359392505050565b600080600080600080600060e0888a03121562001df657600080fd5b62001e018862001ba7565b965062001e116020890162001ba7565b95506040880135945060608801359350608088013560ff8116811462001e3657600080fd5b9699959850939692959460a0840135945060c09093013592915050565b6000806040838503121562001e6757600080fd5b62001e728362001ba7565b915062001e826020840162001ba7565b90509250929050565b6001600160a01b038981168252881660208201526101006040820181905260009062001eba8382018a62001b43565b9050828103606084015262001ed0818962001b43565b9150508560808301528460a08301528360c083015282151560e08301529998505050505050505050565b600181811c9082168062001f0f57607f821691505b602082108103620017ef57634e487b7160e01b600052602260045260246000fd5b634e487b7160e01b600052601160045260246000fd5b808201808211156200054c576200054c62001f30565b818103818111156200054c576200054c62001f30565b600181815b8085111562001fb357816000190482111562001f975762001f9762001f30565b8085161562001fa557918102915b93841c939080029062001f77565b509250929050565b60008262001fcc575060016200054c565b8162001fdb575060006200054c565b816001811462001ff4576002811462001fff576200201f565b60019150506200054c565b60ff84111562002013576200201362001f30565b50506001821b6200054c565b5060208310610133831016604e8410600b841016171562002044575081810a6200054c565b62002050838362001f72565b806000190482111562002067576200206762001f30565b029392505050565b600062001ba060ff84168362001fbb565b80820281158282048414176200054c576200054c62001f30565b604081526000620020af604083018562001b43565b8281036020840152620020c3818562001b43565b95945050505050565b600060018201620020e157620020e162001f30565b5060010190565b601f821115620006cc57600081815260208120601f850160051c81016020861015620021115750805b601f850160051c820191505b8181101562002132578281556001016200211d565b505050505050565b815167ffffffffffffffff81111562002157576200215762001ca0565b6200216f8162002168845462001efa565b84620020e8565b602080601f831160018114620021a757600084156200218e5750858301515b600019600386901b1c1916600185901b17855562002132565b600085815260208120601f198616915b82811015620021d857888601518255948401946001909101908401620021b7565b5085821015620021f75787850151600019600388901b60f8161c191681555b5050505050600190811b01905550565b634e487b7160e01b600052602160045260246000fdfe60806040523480156200001157600080fd5b50604051620022a0380380620022a0833981016040819052620000349162000193565b818160006200004483826200028c565b5060016200005382826200028c565b505050620000706200006a6200007860201b60201c565b6200007c565b505062000358565b3390565b600b80546001600160a01b038381166001600160a01b0319831681179093556040519116919082907f8be0079c531659141344cd1fd0a4f28419497f9722a3daafe3b4186f6b6457e090600090a35050565b634e487b7160e01b600052604160045260246000fd5b600082601f830112620000f657600080fd5b81516001600160401b0380821115620001135762000113620000ce565b604051601f8301601f19908116603f011681019082821181831017156200013e576200013e620000ce565b816040528381526020925086838588010111156200015b57600080fd5b600091505b838210156200017f578582018301518183018401529082019062000160565b600093810190920192909252949350505050565b60008060408385031215620001a757600080fd5b82516001600160401b0380821115620001bf57600080fd5b620001cd86838701620000e4565b93506020850151915080821115620001e457600080fd5b50620001f385828601620000e4565b9150509250929050565b600181811c908216806200021257607f821691505b6020821081036200023357634e487b7160e01b600052602260045260246000fd5b50919050565b601f8211156200028757600081815260208120601f850160051c81016020861015620002625750805b601f850160051c820191505b8181101562000283578281556001016200026e565b5050505b505050565b81516001600160401b03811115620002a857620002a8620000ce565b620002c081620002b98454620001fd565b8462000239565b602080601f831160018114620002f85760008415620002df5750858301515b600019600386901b1c1916600185901b17855562000283565b600085815260208120601f198616915b82811015620003295788860151825594840194600190910190840162000308565b5085821015620003485787850151600019600388901b60f8161c191681555b5050505050600190811b01905550565b611f3880620003686000396000f3fe608060405234801561001057600080fd5b50600436106101375760003560e01c80636352211e116100b8578063a22cb4651161007c578063a22cb46514610271578063b88d4fde14610284578063c87b56dd14610297578063d204c45e146102aa578063e985e9c5146102bd578063f2fde38b146102f957600080fd5b80636352211e1461022a57806370a082311461023d578063715018a6146102505780638da5cb5b1461025857806395d89b411461026957600080fd5b806323b872dd116100ff57806323b872dd146101cb5780632f745c59146101de57806342842e0e146101f157806342966c68146102045780634f6ccce71461021757600080fd5b806301ffc9a71461013c57806306fdde0314610164578063081812fc14610179578063095ea7b3146101a457806318160ddd146101b9575b600080fd5b61014f61014a366004611899565b61030c565b60405190151581526020015b60405180910390f35b61016c61031d565b60405161015b9190611906565b61018c610187366004611919565b6103af565b6040516001600160a01b03909116815260200161015b565b6101b76101b236600461194e565b6103d6565b005b6008545b60405190815260200161015b565b6101b76101d9366004611978565b6104f0565b6101bd6101ec36600461194e565b610522565b6101b76101ff366004611978565b6105b8565b6101b7610212366004611919565b6105d3565b6101bd610225366004611919565b610604565b61018c610238366004611919565b610697565b6101bd61024b3660046119b4565b6106f7565b6101b761077d565b600b546001600160a01b031661018c565b61016c610791565b6101b761027f3660046119cf565b6107a0565b6101b7610292366004611a97565b6107af565b61016c6102a5366004611919565b6107e7565b6101b76102b8366004611b13565b6107f2565b61014f6102cb366004611b75565b6001600160a01b03918216600090815260056020908152604080832093909416825291909152205460ff1690565b6101b76103073660046119b4565b610829565b60006103178261089f565b92915050565b60606000805461032c90611ba8565b80601f016020809104026020016040519081016040528092919081815260200182805461035890611ba8565b80156103a55780601f1061037a576101008083540402835291602001916103a5565b820191906000526020600020905b81548152906001019060200180831161038857829003601f168201915b5050505050905090565b60006103ba826108c4565b506000908152600460205260409020546001600160a01b031690565b60006103e182610697565b9050806001600160a01b0316836001600160a01b0316036104535760405162461bcd60e51b815260206004820152602160248201527f4552433732313a20617070726f76616c20746f2063757272656e74206f776e656044820152603960f91b60648201526084015b60405180910390fd5b336001600160a01b038216148061046f575061046f81336102cb565b6104e15760405162461bcd60e51b815260206004820152603d60248201527f4552433732313a20617070726f76652063616c6c6572206973206e6f7420746f60448201527f6b656e206f776e6572206f7220617070726f76656420666f7220616c6c000000606482015260840161044a565b6104eb8383610923565b505050565b6104fb335b82610991565b6105175760405162461bcd60e51b815260040161044a90611be2565b6104eb838383610a10565b600061052d836106f7565b821061058f5760405162461bcd60e51b815260206004820152602b60248201527f455243373231456e756d657261626c653a206f776e657220696e646578206f7560448201526a74206f6620626f756e647360a81b606482015260840161044a565b506001600160a01b03919091166000908152600660209081526040808320938352929052205490565b6104eb838383604051806020016040528060008152506107af565b6105dc336104f5565b6105f85760405162461bcd60e51b815260040161044a90611be2565b61060181610b81565b50565b600061060f60085490565b82106106725760405162461bcd60e51b815260206004820152602c60248201527f455243373231456e756d657261626c653a20676c6f62616c20696e646578206f60448201526b7574206f6620626f756e647360a01b606482015260840161044a565b6008828154811061068557610685611c2f565b90600052602060002001549050919050565b6000818152600260205260408120546001600160a01b0316806103175760405162461bcd60e51b8152602060048201526018602482015277115490cdcc8c4e881a5b9d985b1a59081d1bdad95b88125160421b604482015260640161044a565b60006001600160a01b0382166107615760405162461bcd60e51b815260206004820152602960248201527f4552433732313a2061646472657373207a65726f206973206e6f7420612076616044820152683634b21037bbb732b960b91b606482015260840161044a565b506001600160a01b031660009081526003602052604090205490565b610785610b8a565b61078f6000610be4565b565b60606001805461032c90611ba8565b6107ab338383610c36565b5050565b6107b93383610991565b6107d55760405162461bcd60e51b815260040161044a90611be2565b6107e184848484610d04565b50505050565b606061031782610d37565b6107fa610b8a565b6000610805600c5490565b9050610815600c80546001019055565b61081f8382610e32565b6104eb8183610e4c565b610831610b8a565b6001600160a01b0381166108965760405162461bcd60e51b815260206004820152602660248201527f4f776e61626c653a206e6577206f776e657220697320746865207a65726f206160448201526564647265737360d01b606482015260840161044a565b61060181610be4565b60006001600160e01b0319821663780e9d6360e01b1480610317575061031782610edf565b6000818152600260205260409020546001600160a01b03166106015760405162461bcd60e51b8152602060048201526018602482015277115490cdcc8c4e881a5b9d985b1a59081d1bdad95b88125160421b604482015260640161044a565b600081815260046020526040902080546001600160a01b0319166001600160a01b038416908117909155819061095882610697565b6001600160a01b03167f8c5be1e5ebec7d5bd14f71427d1e84f3dd0314c0f7b2291e5b200ac8c7c3b92560405160405180910390a45050565b60008061099d83610697565b9050806001600160a01b0316846001600160a01b031614806109e457506001600160a01b0380821660009081526005602090815260408083209388168352929052205460ff165b80610a085750836001600160a01b03166109fd846103af565b6001600160a01b0316145b949350505050565b826001600160a01b0316610a2382610697565b6001600160a01b031614610a495760405162461bcd60e51b815260040161044a90611c45565b6001600160a01b038216610aab5760405162461bcd60e51b8152602060048201526024808201527f4552433732313a207472616e7366657220746f20746865207a65726f206164646044820152637265737360e01b606482015260840161044a565b610ab88383836001610f2f565b826001600160a01b0316610acb82610697565b6001600160a01b031614610af15760405162461bcd60e51b815260040161044a90611c45565b600081815260046020908152604080832080546001600160a01b03199081169091556001600160a01b0387811680865260038552838620805460001901905590871680865283862080546001019055868652600290945282852080549092168417909155905184937fddf252ad1be2c89b69c2b068fc378daa952ba7f163c4a11628f55a4df523b3ef91a4505050565b61060181610f3b565b600b546001600160a01b0316331461078f5760405162461bcd60e51b815260206004820181905260248201527f4f776e61626c653a2063616c6c6572206973206e6f7420746865206f776e6572604482015260640161044a565b600b80546001600160a01b038381166001600160a01b0319831681179093556040519116919082907f8be0079c531659141344cd1fd0a4f28419497f9722a3daafe3b4186f6b6457e090600090a35050565b816001600160a01b0316836001600160a01b031603610c975760405162461bcd60e51b815260206004820152601960248201527f4552433732313a20617070726f766520746f2063616c6c657200000000000000604482015260640161044a565b6001600160a01b03838116600081815260056020908152604080832094871680845294825291829020805460ff191686151590811790915591519182527f17307eab39ab6107e8899845ad3d59bd9653f200f220920489ca2b5937696c31910160405180910390a3505050565b610d0f848484610a10565b610d1b84848484610f7b565b6107e15760405162461bcd60e51b815260040161044a90611c8a565b6060610d42826108c4565b6000828152600a602052604081208054610d5b90611ba8565b80601f0160208091040260200160405190810160405280929190818152602001828054610d8790611ba8565b8015610dd45780601f10610da957610100808354040283529160200191610dd4565b820191906000526020600020905b815481529060010190602001808311610db757829003601f168201915b505050505090506000610de561107c565b90508051600003610df7575092915050565b815115610e29578082604051602001610e11929190611cdc565b60405160208183030381529060405292505050919050565b610a088461109c565b6107ab828260405180602001604052806000815250611103565b6000828152600260205260409020546001600160a01b0316610ec75760405162461bcd60e51b815260206004820152602e60248201527f45524337323155524953746f726167653a2055524920736574206f66206e6f6e60448201526d32bc34b9ba32b73a103a37b5b2b760911b606482015260840161044a565b6000828152600a602052604090206104eb8282611d59565b60006001600160e01b031982166380ac58cd60e01b1480610f1057506001600160e01b03198216635b5e139f60e01b145b8061031757506301ffc9a760e01b6001600160e01b0319831614610317565b6107e184848484611136565b610f4481611276565b6000818152600a602052604090208054610f5d90611ba8565b159050610601576000818152600a6020526040812061060191611835565b60006001600160a01b0384163b1561107157604051630a85bd0160e11b81526001600160a01b0385169063150b7a0290610fbf903390899088908890600401611e19565b6020604051808303816000875af1925050508015610ffa575060408051601f3d908101601f19168201909252610ff791810190611e56565b60015b611057573d808015611028576040519150601f19603f3d011682016040523d82523d6000602084013e61102d565b606091505b50805160000361104f5760405162461bcd60e51b815260040161044a90611c8a565b805181602001fd5b6001600160e01b031916630a85bd0160e11b149050610a08565b506001949350505050565b60606040518060600160405280603d8152602001611ec6603d9139905090565b60606110a7826108c4565b60006110b161107c565b905060008151116110d157604051806020016040528060008152506110fc565b806110db84611319565b6040516020016110ec929190611cdc565b6040516020818303038152906040525b9392505050565b61110d83836113ac565b61111a6000848484610f7b565b6104eb5760405162461bcd60e51b815260040161044a90611c8a565b61114284848484611545565b60018111156111b15760405162461bcd60e51b815260206004820152603560248201527f455243373231456e756d657261626c653a20636f6e7365637574697665207472604482015274185b9cd9995c9cc81b9bdd081cdd5c1c1bdc9d1959605a1b606482015260840161044a565b816001600160a01b03851661120d5761120881600880546000838152600960205260408120829055600182018355919091527ff3f7a9fe364faab93b216da50a3214154f22a0a2b415b23a84c8169e8b636ee30155565b611230565b836001600160a01b0316856001600160a01b0316146112305761123085826115cd565b6001600160a01b03841661124c576112478161166a565b61126f565b846001600160a01b0316846001600160a01b03161461126f5761126f8482611719565b5050505050565b600061128182610697565b9050611291816000846001610f2f565b61129a82610697565b600083815260046020908152604080832080546001600160a01b03199081169091556001600160a01b0385168085526003845282852080546000190190558785526002909352818420805490911690555192935084927fddf252ad1be2c89b69c2b068fc378daa952ba7f163c4a11628f55a4df523b3ef908390a45050565b606060006113268361175d565b600101905060008167ffffffffffffffff81111561134657611346611a0b565b6040519080825280601f01601f191660200182016040528015611370576020820181803683370190505b5090508181016020015b600019016f181899199a1a9b1b9c1cb0b131b232b360811b600a86061a8153600a850494508461137a57509392505050565b6001600160a01b0382166114025760405162461bcd60e51b815260206004820181905260248201527f4552433732313a206d696e7420746f20746865207a65726f2061646472657373604482015260640161044a565b6000818152600260205260409020546001600160a01b0316156114675760405162461bcd60e51b815260206004820152601c60248201527f4552433732313a20746f6b656e20616c7265616479206d696e74656400000000604482015260640161044a565b611475600083836001610f2f565b6000818152600260205260409020546001600160a01b0316156114da5760405162461bcd60e51b815260206004820152601c60248201527f4552433732313a20746f6b656e20616c7265616479206d696e74656400000000604482015260640161044a565b6001600160a01b038216600081815260036020908152604080832080546001019055848352600290915280822080546001600160a01b0319168417905551839291907fddf252ad1be2c89b69c2b068fc378daa952ba7f163c4a11628f55a4df523b3ef908290a45050565b60018111156107e1576001600160a01b0384161561158b576001600160a01b03841660009081526003602052604081208054839290611585908490611e89565b90915550505b6001600160a01b038316156107e1576001600160a01b038316600090815260036020526040812080548392906115c2908490611e9c565b909155505050505050565b600060016115da846106f7565b6115e49190611e89565b600083815260076020526040902054909150808214611637576001600160a01b03841660009081526006602090815260408083208584528252808320548484528184208190558352600790915290208190555b5060009182526007602090815260408084208490556001600160a01b039094168352600681528383209183525290812055565b60085460009061167c90600190611e89565b600083815260096020526040812054600880549394509092849081106116a4576116a4611c2f565b9060005260206000200154905080600883815481106116c5576116c5611c2f565b60009182526020808320909101929092558281526009909152604080822084905585825281205560088054806116fd576116fd611eaf565b6001900381819060005260206000200160009055905550505050565b6000611724836106f7565b6001600160a01b039093166000908152600660209081526040808320868452825280832085905593825260079052919091209190915550565b60008072184f03e93ff9f4daa797ed6e38ed64bf6a1f0160401b831061179c5772184f03e93ff9f4daa797ed6e38ed64bf6a1f0160401b830492506040015b6d04ee2d6d415b85acef810000000083106117c8576d04ee2d6d415b85acef8100000000830492506020015b662386f26fc1000083106117e657662386f26fc10000830492506010015b6305f5e10083106117fe576305f5e100830492506008015b612710831061181257612710830492506004015b60648310611824576064830492506002015b600a83106103175760010192915050565b50805461184190611ba8565b6000825580601f10611851575050565b601f01602090049060005260206000209081019061060191905b8082111561187f576000815560010161186b565b5090565b6001600160e01b03198116811461060157600080fd5b6000602082840312156118ab57600080fd5b81356110fc81611883565b60005b838110156118d15781810151838201526020016118b9565b50506000910152565b600081518084526118f28160208601602086016118b6565b601f01601f19169290920160200192915050565b6020815260006110fc60208301846118da565b60006020828403121561192b57600080fd5b5035919050565b80356001600160a01b038116811461194957600080fd5b919050565b6000806040838503121561196157600080fd5b61196a83611932565b946020939093013593505050565b60008060006060848603121561198d57600080fd5b61199684611932565b92506119a460208501611932565b9150604084013590509250925092565b6000602082840312156119c657600080fd5b6110fc82611932565b600080604083850312156119e257600080fd5b6119eb83611932565b915060208301358015158114611a0057600080fd5b809150509250929050565b634e487b7160e01b600052604160045260246000fd5b600067ffffffffffffffff80841115611a3c57611a3c611a0b565b604051601f8501601f19908116603f01168101908282118183101715611a6457611a64611a0b565b81604052809350858152868686011115611a7d57600080fd5b858560208301376000602087830101525050509392505050565b60008060008060808587031215611aad57600080fd5b611ab685611932565b9350611ac460208601611932565b925060408501359150606085013567ffffffffffffffff811115611ae757600080fd5b8501601f81018713611af857600080fd5b611b0787823560208401611a21565b91505092959194509250565b60008060408385031215611b2657600080fd5b611b2f83611932565b9150602083013567ffffffffffffffff811115611b4b57600080fd5b8301601f81018513611b5c57600080fd5b611b6b85823560208401611a21565b9150509250929050565b60008060408385031215611b8857600080fd5b611b9183611932565b9150611b9f60208401611932565b90509250929050565b600181811c90821680611bbc57607f821691505b602082108103611bdc57634e487b7160e01b600052602260045260246000fd5b50919050565b6020808252602d908201527f4552433732313a2063616c6c6572206973206e6f7420746f6b656e206f776e6560408201526c1c881bdc88185c1c1c9bdd9959609a1b606082015260800190565b634e487b7160e01b600052603260045260246000fd5b60208082526025908201527f4552433732313a207472616e736665722066726f6d20696e636f72726563742060408201526437bbb732b960d91b606082015260800190565b60208082526032908201527f4552433732313a207472616e7366657220746f206e6f6e20455243373231526560408201527131b2b4bb32b91034b6b83632b6b2b73a32b960711b606082015260800190565b60008351611cee8184602088016118b6565b835190830190611d028183602088016118b6565b01949350505050565b601f8211156104eb57600081815260208120601f850160051c81016020861015611d325750805b601f850160051c820191505b81811015611d5157828155600101611d3e565b505050505050565b815167ffffffffffffffff811115611d7357611d73611a0b565b611d8781611d818454611ba8565b84611d0b565b602080601f831160018114611dbc5760008415611da45750858301515b600019600386901b1c1916600185901b178555611d51565b600085815260208120601f198616915b82811015611deb57888601518255948401946001909101908401611dcc565b5085821015611e095787850151600019600388901b60f8161c191681555b5050505050600190811b01905550565b6001600160a01b0385811682528416602082015260408101839052608060608201819052600090611e4c908301846118da565b9695505050505050565b600060208284031215611e6857600080fd5b81516110fc81611883565b634e487b7160e01b600052601160045260246000fd5b8181038181111561031757610317611e73565b8082018082111561031757610317611e73565b634e487b7160e01b600052603160045260246000fdfe68747470733a2f2f7467742d6861636b6174686f6e2d63656c6f2e6769746875622e696f2f686172646861742d626f696c6572706c6163652f6e66742fa264697066735822122054311ba0fd4768b25c5df88b484594b39c948a3501bd184a8c6341668785ae5664736f6c63430008110033a26469706673582212206fd6339efd41576ce19e235b56a45842a350cc8ba791a42efe2d55666591cf5764736f6c63430008110033",
  "linkReferences": {},
  "deployedLinkReferences": {}
}