{
  "_format": "hh-sol-artifact-1",
  "contractName": "OdoyaRecompensa",
  "sourceName": "contracts/OdoyaRecompensa.sol",
  "abi": [
    {
      "inputs": [],
      "stateMutability": "nonpayable",
      "type": "constructor"
    },
    {
      "anonymous": false,
      "inputs": [
        {
          "indexed": true,
          "internalType": "address",
          "name": "owner",
          "type": "address"
        },
        {
          "indexed": true,
          "internalType": "address",
          "name": "spender",
          "type": "address"
        },
        {
          "indexed": false,
          "internalType": "uint256",
          "name": "value",
          "type": "uint256"
        }
      ],
      "name": "Approval",
      "type": "event"
    },
    {
      "anonymous": false,
      "inputs": [
        {
          "indexed": false,
          "internalType": "string",
          "name": "title",
          "type": "string"
        },
        {
          "indexed": false,
          "internalType": "uint256",
          "name": "when",
          "type": "uint256"
        },
        {
          "indexed": false,
          "internalType": "string",
          "name": "where",
          "type": "string"
        }
      ],
      "name": "NewRegenAction",
      "type": "event"
    },
    {
      "anonymous": false,
      "inputs": [
        {
          "indexed": true,
          "internalType": "address",
          "name": "previousOwner",
          "type": "address"
        },
        {
          "indexed": true,
          "internalType": "address",
          "name": "newOwner",
          "type": "address"
        }
      ],
      "name": "OwnershipTransferred",
      "type": "event"
    },
    {
      "anonymous": false,
      "inputs": [
        {
          "indexed": false,
          "internalType": "address",
          "name": "account",
          "type": "address"
        }
      ],
      "name": "Paused",
      "type": "event"
    },
    {
      "anonymous": false,
      "inputs": [
        {
          "indexed": true,
          "internalType": "address",
          "name": "from",
          "type": "address"
        },
        {
          "indexed": true,
          "internalType": "address",
          "name": "to",
          "type": "address"
        },
        {
          "indexed": false,
          "internalType": "uint256",
          "name": "value",
          "type": "uint256"
        }
      ],
      "name": "Transfer",
      "type": "event"
    },
    {
      "anonymous": false,
      "inputs": [
        {
          "indexed": false,
          "internalType": "address",
          "name": "account",
          "type": "address"
        }
      ],
      "name": "Unpaused",
      "type": "event"
    },
    {
      "inputs": [],
      "name": "DOMAIN_SEPARATOR",
      "outputs": [
        {
          "internalType": "bytes32",
          "name": "",
          "type": "bytes32"
        }
      ],
      "stateMutability": "view",
      "type": "function"
    },
    {
      "inputs": [],
      "name": "NUMMAXTOKENGIVENPERACTION",
      "outputs": [
        {
          "internalType": "uint256",
          "name": "",
          "type": "uint256"
        }
      ],
      "stateMutability": "view",
      "type": "function"
    },
    {
      "inputs": [
        {
          "internalType": "address",
          "name": "_newLeader",
          "type": "address"
        }
      ],
      "name": "addLeader",
      "outputs": [],
      "stateMutability": "nonpayable",
      "type": "function"
    },
    {
      "inputs": [
        {
          "internalType": "address",
          "name": "_leader",
          "type": "address"
        },
        {
          "internalType": "string",
          "name": "_title",
          "type": "string"
        },
        {
          "internalType": "string",
          "name": "_place",
          "type": "string"
        },
        {
          "internalType": "uint256",
          "name": "_when",
          "type": "uint256"
        },
        {
          "internalType": "uint256",
          "name": "_totalRewards",
          "type": "uint256"
        }
      ],
      "name": "addRegenAction",
      "outputs": [],
      "stateMutability": "nonpayable",
      "type": "function"
    },
    {
      "inputs": [
        {
          "internalType": "address",
          "name": "owner",
          "type": "address"
        },
        {
          "internalType": "address",
          "name": "spender",
          "type": "address"
        }
      ],
      "name": "allowance",
      "outputs": [
        {
          "internalType": "uint256",
          "name": "",
          "type": "uint256"
        }
      ],
      "stateMutability": "view",
      "type": "function"
    },
    {
      "inputs": [
        {
          "internalType": "address",
          "name": "",
          "type": "address"
        }
      ],
      "name": "allowedLeaders",
      "outputs": [
        {
          "internalType": "bool",
          "name": "",
          "type": "bool"
        }
      ],
      "stateMutability": "view",
      "type": "function"
    },
    {
      "inputs": [
        {
          "internalType": "address",
          "name": "spender",
          "type": "address"
        },
        {
          "internalType": "uint256",
          "name": "amount",
          "type": "uint256"
        }
      ],
      "name": "approve",
      "outputs": [
        {
          "internalType": "bool",
          "name": "",
          "type": "bool"
        }
      ],
      "stateMutability": "nonpayable",
      "type": "function"
    },
    {
      "inputs": [
        {
          "internalType": "address",
          "name": "account",
          "type": "address"
        }
      ],
      "name": "balanceOf",
      "outputs": [
        {
          "internalType": "uint256",
          "name": "",
          "type": "uint256"
        }
      ],
      "stateMutability": "view",
      "type": "function"
    },
    {
      "inputs": [
        {
          "internalType": "uint256",
          "name": "amount",
          "type": "uint256"
        }
      ],
      "name": "burn",
      "outputs": [],
      "stateMutability": "nonpayable",
      "type": "function"
    },
    {
      "inputs": [
        {
          "internalType": "address",
          "name": "account",
          "type": "address"
        },
        {
          "internalType": "uint256",
          "name": "amount",
          "type": "uint256"
        }
      ],
      "name": "burnFrom",
      "outputs": [],
      "stateMutability": "nonpayable",
      "type": "function"
    },
    {
      "inputs": [],
      "name": "decimals",
      "outputs": [
        {
          "internalType": "uint8",
          "name": "",
          "type": "uint8"
        }
      ],
      "stateMutability": "view",
      "type": "function"
    },
    {
      "inputs": [
        {
          "internalType": "address",
          "name": "spender",
          "type": "address"
        },
        {
          "internalType": "uint256",
          "name": "subtractedValue",
          "type": "uint256"
        }
      ],
      "name": "decreaseAllowance",
      "outputs": [
        {
          "internalType": "bool",
          "name": "",
          "type": "bool"
        }
      ],
      "stateMutability": "nonpayable",
      "type": "function"
    },
    {
      "inputs": [
        {
          "internalType": "address",
          "name": "spender",
          "type": "address"
        },
        {
          "internalType": "uint256",
          "name": "addedValue",
          "type": "uint256"
        }
      ],
      "name": "increaseAllowance",
      "outputs": [
        {
          "internalType": "bool",
          "name": "",
          "type": "bool"
        }
      ],
      "stateMutability": "nonpayable",
      "type": "function"
    },
    {
      "inputs": [],
      "name": "maxTokensPerAction",
      "outputs": [
        {
          "internalType": "uint256",
          "name": "",
          "type": "uint256"
        }
      ],
      "stateMutability": "view",
      "type": "function"
    },
    {
      "inputs": [
        {
          "internalType": "address",
          "name": "_to",
          "type": "address"
        },
        {
          "internalType": "uint256",
          "name": "_amount",
          "type": "uint256"
        },
        {
          "internalType": "uint256",
          "name": "_regenActionID",
          "type": "uint256"
        }
      ],
      "name": "mint",
      "outputs": [],
      "stateMutability": "nonpayable",
      "type": "function"
    },
    {
      "inputs": [],
      "name": "name",
      "outputs": [
        {
          "internalType": "string",
          "name": "",
          "type": "string"
        }
      ],
      "stateMutability": "view",
      "type": "function"
    },
    {
      "inputs": [
        {
          "internalType": "address",
          "name": "owner",
          "type": "address"
        }
      ],
      "name": "nonces",
      "outputs": [
        {
          "internalType": "uint256",
          "name": "",
          "type": "uint256"
        }
      ],
      "stateMutability": "view",
      "type": "function"
    },
    {
      "inputs": [],
      "name": "owner",
      "outputs": [
        {
          "internalType": "address",
          "name": "",
          "type": "address"
        }
      ],
      "stateMutability": "view",
      "type": "function"
    },
    {
      "inputs": [],
      "name": "pause",
      "outputs": [],
      "stateMutability": "nonpayable",
      "type": "function"
    },
    {
      "inputs": [],
      "name": "paused",
      "outputs": [
        {
          "internalType": "bool",
          "name": "",
          "type": "bool"
        }
      ],
      "stateMutability": "view",
      "type": "function"
    },
    {
      "inputs": [
        {
          "internalType": "address",
          "name": "owner",
          "type": "address"
        },
        {
          "internalType": "address",
          "name": "spender",
          "type": "address"
        },
        {
          "internalType": "uint256",
          "name": "value",
          "type": "uint256"
        },
        {
          "internalType": "uint256",
          "name": "deadline",
          "type": "uint256"
        },
        {
          "internalType": "uint8",
          "name": "v",
          "type": "uint8"
        },
        {
          "internalType": "bytes32",
          "name": "r",
          "type": "bytes32"
        },
        {
          "internalType": "bytes32",
          "name": "s",
          "type": "bytes32"
        }
      ],
      "name": "permit",
      "outputs": [],
      "stateMutability": "nonpayable",
      "type": "function"
    },
    {
      "inputs": [],
      "name": "regenActionCounter",
      "outputs": [
        {
          "internalType": "uint256",
          "name": "",
          "type": "uint256"
        }
      ],
      "stateMutability": "view",
      "type": "function"
    },
    {
      "inputs": [
        {
          "internalType": "uint256",
          "name": "",
          "type": "uint256"
        }
      ],
      "name": "regenActionPlanned",
      "outputs": [
        {
          "internalType": "address",
          "name": "leader",
          "type": "address"
        },
        {
          "internalType": "address",
          "name": "nft",
          "type": "address"
        },
        {
          "internalType": "string",
          "name": "title",
          "type": "string"
        },
        {
          "internalType": "string",
          "name": "place",
          "type": "string"
        },
        {
          "internalType": "uint256",
          "name": "when",
          "type": "uint256"
        },
        {
          "internalType": "uint256",
          "name": "totalRewards",
          "type": "uint256"
        },
        {
          "internalType": "uint256",
          "name": "totalRewardsAvailable",
          "type": "uint256"
        },
        {
          "internalType": "bool",
          "name": "stillValid",
          "type": "bool"
        }
      ],
      "stateMutability": "view",
      "type": "function"
    },
    {
      "inputs": [
        {
          "internalType": "address",
          "name": "_oldLeader",
          "type": "address"
        }
      ],
      "name": "removeLeader",
      "outputs": [],
      "stateMutability": "nonpayable",
      "type": "function"
    },
    {
      "inputs": [],
      "name": "renounceOwnership",
      "outputs": [],
      "stateMutability": "nonpayable",
      "type": "function"
    },
    {
      "inputs": [],
      "name": "symbol",
      "outputs": [
        {
          "internalType": "string",
          "name": "",
          "type": "string"
        }
      ],
      "stateMutability": "view",
      "type": "function"
    },
    {
      "inputs": [],
      "name": "totalSupply",
      "outputs": [
        {
          "internalType": "uint256",
          "name": "",
          "type": "uint256"
        }
      ],
      "stateMutability": "view",
      "type": "function"
    },
    {
      "inputs": [
        {
          "internalType": "address",
          "name": "to",
          "type": "address"
        },
        {
          "internalType": "uint256",
          "name": "amount",
          "type": "uint256"
        }
      ],
      "name": "transfer",
      "outputs": [
        {
          "internalType": "bool",
          "name": "",
          "type": "bool"
        }
      ],
      "stateMutability": "nonpayable",
      "type": "function"
    },
    {
      "inputs": [
        {
          "internalType": "address",
          "name": "from",
          "type": "address"
        },
        {
          "internalType": "address",
          "name": "to",
          "type": "address"
        },
        {
          "internalType": "uint256",
          "name": "amount",
          "type": "uint256"
        }
      ],
      "name": "transferFrom",
      "outputs": [
        {
          "internalType": "bool",
          "name": "",
          "type": "bool"
        }
      ],
      "stateMutability": "nonpayable",
      "type": "function"
    },
    {
      "inputs": [
        {
          "internalType": "address",
          "name": "newOwner",
          "type": "address"
        }
      ],
      "name": "transferOwnership",
      "outputs": [],
      "stateMutability": "nonpayable",
      "type": "function"
    },
    {
      "inputs": [],
      "name": "unpause",
      "outputs": [],
      "stateMutability": "nonpayable",
      "type": "function"
    }
  ],
  "bytecode": "0x6101406040523480156200001257600080fd5b506040518060400160405280600f81526020016e4f646f79615265636f6d70656e736160881b81525080604051806040016040528060018152602001603160f81b8152506040518060400160405280601081526020016f4f646f7961205265636f6d70656e736160801b815250604051806040016040528060058152602001644f444f594160d81b8152508160039081620000ae91906200030f565b506004620000bd82826200030f565b50506005805460ff1916905550620000d5336200017b565b815160209283012081519183019190912060e08290526101008190524660a0818152604080517f8b73c3c69bb8fe3d512ecc4cf759cc79239f7b179b0ffacaa9a75d522b39400f818801819052818301969096526060810194909452608080850193909352308483018190528151808603909301835260c094850190915281519190950120905291909152610120525060006009556200017533620001d5565b620003db565b600580546001600160a01b03838116610100818102610100600160a81b031985161790945560405193909204169182907f8be0079c531659141344cd1fd0a4f28419497f9722a3daafe3b4186f6b6457e090600090a35050565b620001df62000203565b6001600160a01b03166000908152600860205260409020805460ff19166001179055565b6005546001600160a01b03610100909104163314620002685760405162461bcd60e51b815260206004820181905260248201527f4f776e61626c653a2063616c6c6572206973206e6f7420746865206f776e6572604482015260640160405180910390fd5b565b634e487b7160e01b600052604160045260246000fd5b600181811c908216806200029557607f821691505b602082108103620002b657634e487b7160e01b600052602260045260246000fd5b50919050565b601f8211156200030a57600081815260208120601f850160051c81016020861015620002e55750805b601f850160051c820191505b818110156200030657828155600101620002f1565b5050505b505050565b81516001600160401b038111156200032b576200032b6200026a565b62000343816200033c845462000280565b84620002bc565b602080601f8311600181146200037b5760008415620003625750858301515b600019600386901b1c1916600185901b17855562000306565b600085815260208120601f198616915b82811015620003ac578886015182559484019460019091019084016200038b565b5085821015620003cb5787850151600019600388901b60f8161c191681555b5050505050600190811b01905550565b60805160a05160c05160e05161010051610120516143e86200042b60003960006115df0152600061162e01526000611609015260006115600152600061158b015260006115b601526143e86000f3fe60806040523480156200001157600080fd5b50600436106200020d5760003560e01c8063715018a61162000125578063a0692fa411620000af578063dd62ed3e116200007a578063dd62ed3e1462000456578063e6aef279146200046d578063f1340382146200049a578063f2fde38b14620004b157600080fd5b8063a0692fa414620003fa578063a457c2d71462000411578063a9059cbb1462000428578063d505accf146200043f57600080fd5b80638456cb5911620000f05780638456cb5914620003a55780638da5cb5b14620003af5780639037f18214620003d957806395d89b4114620003f057600080fd5b8063715018a6146200036357806377cc190b146200036d57806379cc679014620003775780637ecebe00146200038e57600080fd5b80633644e51511620001a75780635247906211620001725780635247906214620002fb5780635a7c4c1014620003215780635c975abb146200032b57806370a08231146200033757600080fd5b80633644e51514620002b95780633950935114620002c35780633f4ba83a14620002da57806342966c6814620002e457600080fd5b806318160ddd11620001e857806318160ddd146200027557806323b872dd1462000288578063313ce567146200029f5780633619c8dc14620002af57600080fd5b806306fdde031462000212578063095ea7b31462000234578063156e29f6146200025c575b600080fd5b6200021c620004c8565b6040516200022b919062001c6c565b60405180910390f35b6200024b6200024536600462001ca5565b62000562565b60405190151581526020016200022b565b620002736200026d36600462001cd2565b6200057e565b005b6002545b6040519081526020016200022b565b6200024b6200029936600462001d08565b62000763565b604051601281526020016200022b565b6200027960095481565b620002796200078b565b6200024b620002d436600462001ca5565b6200079c565b62000273620007c4565b62000273620002f536600462001d49565b620007da565b6200024b6200030c36600462001d63565b60086020526000908152604090205460ff1681565b62000279620007e9565b60055460ff166200024b565b620002796200034836600462001d63565b6001600160a01b031660009081526020819052604090205490565b6200027362000807565b620002796103e881565b620002736200038836600462001ca5565b6200081d565b620002796200039f36600462001d63565b6200083a565b6200027362000859565b60055461010090046001600160a01b03166040516001600160a01b0390911681526020016200022b565b62000273620003ea36600462001d63565b6200086d565b6200021c62000918565b620002736200040b36600462001e2c565b62000929565b6200024b6200042236600462001ca5565b62000c77565b6200024b6200043936600462001ca5565b62000cf8565b620002736200045036600462001ebb565b62000d08565b620002796200046736600462001f34565b62000e78565b620004846200047e36600462001d49565b62000ea3565b6040516200022b98979695949392919062001f6c565b62000273620004ab36600462001d63565b62001015565b62000273620004c236600462001d63565b62001043565b606060038054620004d99062001fdb565b80601f0160208091040260200160405190810160405280929190818152602001828054620005079062001fdb565b8015620005585780601f106200052c5761010080835404028352916020019162000558565b820191906000526020600020905b8154815290600101906020018083116200053a57829003601f168201915b5050505050905090565b60003362000572818585620010bf565b60019150505b92915050565b62000588620011e7565b6000818152600a60205260409020600781015460ff16620005fb5760405162461bcd60e51b815260206004820152602260248201527f54686520526567656e20416374696f6e206e6565647320746f2062652076616c6044820152611a5960f21b60648201526084015b60405180910390fd5b8281600601541015620006515760405162461bcd60e51b815260206004820152601c60248201527f5468657265206973206e6f2073756666696369656e742066756e6473000000006044820152606401620005f2565b8060040154421015620006a75760405162461bcd60e51b815260206004820152601f60248201527f546865206576656e74206d7573742068617665206765742073746172746564006044820152606401620005f2565b6004810154620006bb906201518062002027565b421115620006d357600701805460ff19169055505050565b828160060154620006e591906200203d565b6006820155620006f6848462001249565b60018101546040516340d097c360e01b81526001600160a01b0386811660048301529091169081906340d097c390602401600060405180830381600087803b1580156200074257600080fd5b505af115801562000757573d6000803e3d6000fd5b5050505050505b505050565b600033620007738582856200131a565b620007808585856200139b565b506001949350505050565b60006200079762001553565b905090565b60003362000572818585620007b2838362000e78565b620007be919062002027565b620010bf565b620007ce620011e7565b620007d86200167c565b565b620007e63382620016d0565b50565b6000620007f96012600a62002150565b62000797906103e862002161565b62000811620011e7565b620007d8600062001814565b6200082a8233836200131a565b620008368282620016d0565b5050565b6001600160a01b03811660009081526006602052604081205462000578565b62000863620011e7565b620007d86200186e565b62000877620011e7565b6001600160a01b03811660009081526008602052604090205460ff16620008f75760405162461bcd60e51b815260206004820152602d60248201527f4f72206c6561646572206e6f74206578697374206f722069742077617320616c60448201526c1c9958591e481c995b5bdd9959609a1b6064820152608401620005f2565b6001600160a01b03166000908152600860205260409020805460ff19169055565b606060048054620004d99062001fdb565b62000933620011e7565b6001600160a01b03851660009081526008602052604090205460ff16620009a85760405162461bcd60e51b815260206004820152602260248201527f4c6561646572206d7573742062652070726576696f75736c7920617070726f76604482015261195960f21b6064820152608401620005f2565b42821162000a055760405162461bcd60e51b8152602060048201526024808201527f416374696f6e206d75737420626520706c616e6e656420746f207468652066756044820152637475726560e01b6064820152608401620005f2565b6000811162000a675760405162461bcd60e51b815260206004820152602760248201527f546f74616c2052657761726473206d7573742062652067726561746572207468604482015266616e207a65726f60c81b6064820152608401620005f2565b62000a71620007e9565b811062000ad85760405162461bcd60e51b815260206004820152602e60248201527f546f74616c2052657761726473206d757374206265206c657373207468616e2060448201526d3130303030303020746f6b656e7360901b6064820152608401620005f2565b60008462000ae562000918565b60405162000af39062001c16565b62000b009291906200217b565b604051809103906000f08015801562000b1d573d6000803e3d6000fd5b5060408051610100810182526001600160a01b03808a16825283166020820152908101879052606081018690526080810185905260a0810184905260c08101849052600160e082015260098054929350909190600062000b7d83620021ad565b90915550506009546000908152600a6020908152604091829020835181546001600160a01b03199081166001600160a01b039283161783559285015160018301805490941691161790915590820151829190600282019062000be090826200221b565b506060820151600382019062000bf790826200221b565b506080820151600482015560a0820151600582015560c0820151600682015560e0909101516007909101805460ff19169115159190911790556040517fae72f4f3bc8123f4bbd5f2a50a2a52aa9a944c7db4d4050904409b224b12141b9062000c6690889087908990620022e8565b60405180910390a150505050505050565b6000338162000c87828662000e78565b90508381101562000ce95760405162461bcd60e51b815260206004820152602560248201527f45524332303a2064656372656173656420616c6c6f77616e63652062656c6f77604482015264207a65726f60d81b6064820152608401620005f2565b620007808286868403620010bf565b600033620005728185856200139b565b8342111562000d5a5760405162461bcd60e51b815260206004820152601d60248201527f45524332305065726d69743a206578706972656420646561646c696e650000006044820152606401620005f2565b60007f6e71edae12b1b97f4d1f60370fef10105fa2faae0126114a169c64845d6126c988888862000d8b8c620018ae565b6040805160208101969096526001600160a01b0394851690860152929091166060840152608083015260a082015260c0810186905260e001604051602081830303815290604052805190602001209050600062000de882620018d6565b9050600062000dfa8287878762001927565b9050896001600160a01b0316816001600160a01b03161462000e5f5760405162461bcd60e51b815260206004820152601e60248201527f45524332305065726d69743a20696e76616c6964207369676e617475726500006044820152606401620005f2565b62000e6c8a8a8a620010bf565b50505050505050505050565b6001600160a01b03918216600090815260016020908152604080832093909416825291909152205490565b600a602052600090815260409020805460018201546002830180546001600160a01b0393841694929093169262000eda9062001fdb565b80601f016020809104026020016040519081016040528092919081815260200182805462000f089062001fdb565b801562000f595780601f1062000f2d5761010080835404028352916020019162000f59565b820191906000526020600020905b81548152906001019060200180831162000f3b57829003601f168201915b50505050509080600301805462000f709062001fdb565b80601f016020809104026020016040519081016040528092919081815260200182805462000f9e9062001fdb565b801562000fef5780601f1062000fc35761010080835404028352916020019162000fef565b820191906000526020600020905b81548152906001019060200180831162000fd157829003601f168201915b505050506004830154600584015460068501546007909501549394919390925060ff1688565b6200101f620011e7565b6001600160a01b03166000908152600860205260409020805460ff19166001179055565b6200104d620011e7565b6001600160a01b038116620010b45760405162461bcd60e51b815260206004820152602660248201527f4f776e61626c653a206e6577206f776e657220697320746865207a65726f206160448201526564647265737360d01b6064820152608401620005f2565b620007e68162001814565b6001600160a01b038316620011235760405162461bcd60e51b8152602060048201526024808201527f45524332303a20617070726f76652066726f6d20746865207a65726f206164646044820152637265737360e01b6064820152608401620005f2565b6001600160a01b038216620011865760405162461bcd60e51b815260206004820152602260248201527f45524332303a20617070726f766520746f20746865207a65726f206164647265604482015261737360f01b6064820152608401620005f2565b6001600160a01b0383811660008181526001602090815260408083209487168084529482529182902085905590518481527f8c5be1e5ebec7d5bd14f71427d1e84f3dd0314c0f7b2291e5b200ac8c7c3b925910160405180910390a3505050565b6005546001600160a01b03610100909104163314620007d85760405162461bcd60e51b815260206004820181905260248201527f4f776e61626c653a2063616c6c6572206973206e6f7420746865206f776e65726044820152606401620005f2565b6001600160a01b038216620012a15760405162461bcd60e51b815260206004820152601f60248201527f45524332303a206d696e7420746f20746865207a65726f2061646472657373006044820152606401620005f2565b620012af6000838362001953565b8060026000828254620012c3919062002027565b90915550506001600160a01b038216600081815260208181526040808320805486019055518481527fddf252ad1be2c89b69c2b068fc378daa952ba7f163c4a11628f55a4df523b3ef910160405180910390a35050565b600062001328848462000e78565b90506000198114620013955781811015620013865760405162461bcd60e51b815260206004820152601d60248201527f45524332303a20696e73756666696369656e7420616c6c6f77616e63650000006044820152606401620005f2565b620013958484848403620010bf565b50505050565b6001600160a01b038316620014015760405162461bcd60e51b815260206004820152602560248201527f45524332303a207472616e736665722066726f6d20746865207a65726f206164604482015264647265737360d81b6064820152608401620005f2565b6001600160a01b038216620014655760405162461bcd60e51b815260206004820152602360248201527f45524332303a207472616e7366657220746f20746865207a65726f206164647260448201526265737360e81b6064820152608401620005f2565b6200147283838362001953565b6001600160a01b03831660009081526020819052604090205481811015620014ec5760405162461bcd60e51b815260206004820152602660248201527f45524332303a207472616e7366657220616d6f756e7420657863656564732062604482015265616c616e636560d01b6064820152608401620005f2565b6001600160a01b03848116600081815260208181526040808320878703905593871680835291849020805487019055925185815290927fddf252ad1be2c89b69c2b068fc378daa952ba7f163c4a11628f55a4df523b3ef910160405180910390a362001395565b6000306001600160a01b037f000000000000000000000000000000000000000000000000000000000000000016148015620015ad57507f000000000000000000000000000000000000000000000000000000000000000046145b15620015d857507f000000000000000000000000000000000000000000000000000000000000000090565b50604080517f00000000000000000000000000000000000000000000000000000000000000006020808301919091527f0000000000000000000000000000000000000000000000000000000000000000828401527f000000000000000000000000000000000000000000000000000000000000000060608301524660808301523060a0808401919091528351808403909101815260c0909201909252805191012090565b620016866200195d565b6005805460ff191690557f5db9ee0a495bf2e6ff9c91a7834c1ba4fdd244a5e8aa4e537bd38aeae4b073aa335b6040516001600160a01b03909116815260200160405180910390a1565b6001600160a01b038216620017325760405162461bcd60e51b815260206004820152602160248201527f45524332303a206275726e2066726f6d20746865207a65726f206164647265736044820152607360f81b6064820152608401620005f2565b620017408260008362001953565b6001600160a01b03821660009081526020819052604090205481811015620017b65760405162461bcd60e51b815260206004820152602260248201527f45524332303a206275726e20616d6f756e7420657863656564732062616c616e604482015261636560f01b6064820152608401620005f2565b6001600160a01b0383166000818152602081815260408083208686039055600280548790039055518581529192917fddf252ad1be2c89b69c2b068fc378daa952ba7f163c4a11628f55a4df523b3ef910160405180910390a3505050565b600580546001600160a01b03838116610100818102610100600160a81b031985161790945560405193909204169182907f8be0079c531659141344cd1fd0a4f28419497f9722a3daafe3b4186f6b6457e090600090a35050565b62001878620019a8565b6005805460ff191660011790557f62e78cea01bee320cd4e420270b5ea74000d11b0c9f74754ebdbfc544b05a258620016b33390565b6001600160a01b03811660009081526006602052604090208054600181018255905b50919050565b600062000578620018e662001553565b8360405161190160f01b6020820152602281018390526042810182905260009060620160405160208183030381529060405280519060200120905092915050565b60008060006200193a87878787620019f0565b91509150620019498162001ab9565b5095945050505050565b6200075e620019a8565b60055460ff16620007d85760405162461bcd60e51b815260206004820152601460248201527314185d5cd8589b194e881b9bdd081c185d5cd95960621b6044820152606401620005f2565b60055460ff1615620007d85760405162461bcd60e51b815260206004820152601060248201526f14185d5cd8589b194e881c185d5cd95960821b6044820152606401620005f2565b6000807f7fffffffffffffffffffffffffffffff5d576e7357a4501ddfe92f46681b20a083111562001a29575060009050600362001ab0565b6040805160008082526020820180845289905260ff881692820192909252606081018690526080810185905260019060a0016020604051602081039080840390855afa15801562001a7e573d6000803e3d6000fd5b5050604051601f1901519150506001600160a01b03811662001aa95760006001925092505062001ab0565b9150600090505b94509492505050565b600081600481111562001ad05762001ad062002321565b0362001ad95750565b600181600481111562001af05762001af062002321565b0362001b3f5760405162461bcd60e51b815260206004820152601860248201527f45434453413a20696e76616c6964207369676e617475726500000000000000006044820152606401620005f2565b600281600481111562001b565762001b5662002321565b0362001ba55760405162461bcd60e51b815260206004820152601f60248201527f45434453413a20696e76616c6964207369676e6174757265206c656e677468006044820152606401620005f2565b600381600481111562001bbc5762001bbc62002321565b03620007e65760405162461bcd60e51b815260206004820152602260248201527f45434453413a20696e76616c6964207369676e6174757265202773272076616c604482015261756560f01b6064820152608401620005f2565b61207b806200233883390190565b6000815180845260005b8181101562001c4c5760208185018101518683018201520162001c2e565b506000602082860101526020601f19601f83011685010191505092915050565b60208152600062001c81602083018462001c24565b9392505050565b80356001600160a01b038116811462001ca057600080fd5b919050565b6000806040838503121562001cb957600080fd5b62001cc48362001c88565b946020939093013593505050565b60008060006060848603121562001ce857600080fd5b62001cf38462001c88565b95602085013595506040909401359392505050565b60008060006060848603121562001d1e57600080fd5b62001d298462001c88565b925062001d396020850162001c88565b9150604084013590509250925092565b60006020828403121562001d5c57600080fd5b5035919050565b60006020828403121562001d7657600080fd5b62001c818262001c88565b634e487b7160e01b600052604160045260246000fd5b600082601f83011262001da957600080fd5b813567ffffffffffffffff8082111562001dc75762001dc762001d81565b604051601f8301601f19908116603f0116810190828211818310171562001df25762001df262001d81565b8160405283815286602085880101111562001e0c57600080fd5b836020870160208301376000602085830101528094505050505092915050565b600080600080600060a0868803121562001e4557600080fd5b62001e508662001c88565b9450602086013567ffffffffffffffff8082111562001e6e57600080fd5b62001e7c89838a0162001d97565b9550604088013591508082111562001e9357600080fd5b5062001ea28882890162001d97565b9598949750949560608101359550608001359392505050565b600080600080600080600060e0888a03121562001ed757600080fd5b62001ee28862001c88565b965062001ef26020890162001c88565b95506040880135945060608801359350608088013560ff8116811462001f1757600080fd5b9699959850939692959460a0840135945060c09093013592915050565b6000806040838503121562001f4857600080fd5b62001f538362001c88565b915062001f636020840162001c88565b90509250929050565b6001600160a01b038981168252881660208201526101006040820181905260009062001f9b8382018a62001c24565b9050828103606084015262001fb1818962001c24565b9150508560808301528460a08301528360c083015282151560e08301529998505050505050505050565b600181811c9082168062001ff057607f821691505b602082108103620018d057634e487b7160e01b600052602260045260246000fd5b634e487b7160e01b600052601160045260246000fd5b8082018082111562000578576200057862002011565b8181038181111562000578576200057862002011565b600181815b808511156200209457816000190482111562002078576200207862002011565b808516156200208657918102915b93841c939080029062002058565b509250929050565b600082620020ad5750600162000578565b81620020bc5750600062000578565b8160018114620020d55760028114620020e05762002100565b600191505062000578565b60ff841115620020f457620020f462002011565b50506001821b62000578565b5060208310610133831016604e8410600b841016171562002125575081810a62000578565b62002131838362002053565b806000190482111562002148576200214862002011565b029392505050565b600062001c8160ff8416836200209c565b808202811582820484141762000578576200057862002011565b60408152600062002190604083018562001c24565b8281036020840152620021a4818562001c24565b95945050505050565b600060018201620021c257620021c262002011565b5060010190565b601f8211156200075e57600081815260208120601f850160051c81016020861015620021f25750805b601f850160051c820191505b818110156200221357828155600101620021fe565b505050505050565b815167ffffffffffffffff81111562002238576200223862001d81565b620022508162002249845462001fdb565b84620021c9565b602080601f8311600181146200228857600084156200226f5750858301515b600019600386901b1c1916600185901b17855562002213565b600085815260208120601f198616915b82811015620022b95788860151825594840194600190910190840162002298565b5085821015620022d85787850151600019600388901b60f8161c191681555b5050505050600190811b01905550565b606081526000620022fd606083018662001c24565b846020840152828103604084015262002317818562001c24565b9695505050505050565b634e487b7160e01b600052602160045260246000fdfe60806040523480156200001157600080fd5b506040516200207b3803806200207b833981016040819052620000349162000193565b818160006200004483826200028c565b5060016200005382826200028c565b505050620000706200006a6200007860201b60201c565b6200007c565b505062000358565b3390565b600b80546001600160a01b038381166001600160a01b0319831681179093556040519116919082907f8be0079c531659141344cd1fd0a4f28419497f9722a3daafe3b4186f6b6457e090600090a35050565b634e487b7160e01b600052604160045260246000fd5b600082601f830112620000f657600080fd5b81516001600160401b0380821115620001135762000113620000ce565b604051601f8301601f19908116603f011681019082821181831017156200013e576200013e620000ce565b816040528381526020925086838588010111156200015b57600080fd5b600091505b838210156200017f578582018301518183018401529082019062000160565b600093810190920192909252949350505050565b60008060408385031215620001a757600080fd5b82516001600160401b0380821115620001bf57600080fd5b620001cd86838701620000e4565b93506020850151915080821115620001e457600080fd5b50620001f385828601620000e4565b9150509250929050565b600181811c908216806200021257607f821691505b6020821081036200023357634e487b7160e01b600052602260045260246000fd5b50919050565b601f8211156200028757600081815260208120601f850160051c81016020861015620002625750805b601f850160051c820191505b8181101562000283578281556001016200026e565b5050505b505050565b81516001600160401b03811115620002a857620002a8620000ce565b620002c081620002b98454620001fd565b8462000239565b602080601f831160018114620002f85760008415620002df5750858301515b600019600386901b1c1916600185901b17855562000283565b600085815260208120601f198616915b82811015620003295788860151825594840194600190910190840162000308565b5085821015620003485787850151600019600388901b60f8161c191681555b5050505050600190811b01905550565b611d1380620003686000396000f3fe608060405234801561001057600080fd5b50600436106101375760003560e01c80634f6ccce7116100b857806395d89b411161007c57806395d89b411461027c578063a22cb46514610284578063b88d4fde14610297578063c87b56dd146102ab578063e985e9c5146102be578063f2fde38b146102fa57600080fd5b80634f6ccce71461022a5780636352211e1461023d57806370a0823114610250578063715018a6146102635780638da5cb5b1461026b57600080fd5b806323b872dd116100ff57806323b872dd146101cb5780632f745c59146101de57806340d097c3146101f157806342842e0e1461020457806342966c681461021757600080fd5b806301ffc9a71461013c57806306fdde0314610164578063081812fc14610179578063095ea7b3146101a457806318160ddd146101b9575b600080fd5b61014f61014a3660046116d8565b61030d565b60405190151581526020015b60405180910390f35b61016c61031e565b60405161015b919061174c565b61018c61018736600461175f565b6103b0565b6040516001600160a01b03909116815260200161015b565b6101b76101b2366004611794565b6103d7565b005b6008545b60405190815260200161015b565b6101b76101d93660046117be565b6104ec565b6101bd6101ec366004611794565b61051e565b6101b76101ff3660046117fa565b6105b4565b6101b76102123660046117be565b505050565b6101b761022536600461175f565b610617565b6101bd61023836600461175f565b610648565b61018c61024b36600461175f565b6106db565b6101bd61025e3660046117fa565b61073b565b6101b76107c1565b600b546001600160a01b031661018c565b61016c6107d5565b6101b7610292366004611815565b6107e4565b6101b76102a5366004611867565b50505050565b61016c6102b936600461175f565b6107f3565b61014f6102cc366004611943565b6001600160a01b03918216600090815260056020908152604080832093909416825291909152205460ff1690565b6101b76103083660046117fa565b6107fd565b600061031882610873565b92915050565b60606000805461032d90611976565b80601f016020809104026020016040519081016040528092919081815260200182805461035990611976565b80156103a65780601f1061037b576101008083540402835291602001916103a6565b820191906000526020600020905b81548152906001019060200180831161038957829003601f168201915b5050505050905090565b60006103bb82610898565b506000908152600460205260409020546001600160a01b031690565b60006103e2826106db565b9050806001600160a01b0316836001600160a01b0316036104545760405162461bcd60e51b815260206004820152602160248201527f4552433732313a20617070726f76616c20746f2063757272656e74206f776e656044820152603960f91b60648201526084015b60405180910390fd5b336001600160a01b0382161480610470575061047081336102cc565b6104e25760405162461bcd60e51b815260206004820152603d60248201527f4552433732313a20617070726f76652063616c6c6572206973206e6f7420746f60448201527f6b656e206f776e6572206f7220617070726f76656420666f7220616c6c000000606482015260840161044b565b61021283836108f7565b6104f7335b82610965565b6105135760405162461bcd60e51b815260040161044b906119b0565b6102128383836109e4565b60006105298361073b565b821061058b5760405162461bcd60e51b815260206004820152602b60248201527f455243373231456e756d657261626c653a206f776e657220696e646578206f7560448201526a74206f6620626f756e647360a81b606482015260840161044b565b506001600160a01b03919091166000908152600660209081526040808320938352929052205490565b6105bc610b55565b60006105c7600c5490565b90506105d7600c80546001019055565b6105e18282610baf565b60006105ec82610bc9565b6040516020016105fc91906119fd565b60405160208183030381529060405290506102128282610c5c565b610620336104f1565b61063c5760405162461bcd60e51b815260040161044b906119b0565b61064581610cef565b50565b600061065360085490565b82106106b65760405162461bcd60e51b815260206004820152602c60248201527f455243373231456e756d657261626c653a20676c6f62616c20696e646578206f60448201526b7574206f6620626f756e647360a01b606482015260840161044b565b600882815481106106c9576106c9611a26565b90600052602060002001549050919050565b6000818152600260205260408120546001600160a01b0316806103185760405162461bcd60e51b8152602060048201526018602482015277115490cdcc8c4e881a5b9d985b1a59081d1bdad95b88125160421b604482015260640161044b565b60006001600160a01b0382166107a55760405162461bcd60e51b815260206004820152602960248201527f4552433732313a2061646472657373207a65726f206973206e6f7420612076616044820152683634b21037bbb732b960b91b606482015260840161044b565b506001600160a01b031660009081526003602052604090205490565b6107c9610b55565b6107d36000610cf8565b565b60606001805461032d90611976565b6107ef338383610d4a565b5050565b6060610318610e18565b610805610b55565b6001600160a01b03811661086a5760405162461bcd60e51b815260206004820152602660248201527f4f776e61626c653a206e6577206f776e657220697320746865207a65726f206160448201526564647265737360d01b606482015260840161044b565b61064581610cf8565b60006001600160e01b0319821663780e9d6360e01b1480610318575061031882610e38565b6000818152600260205260409020546001600160a01b03166106455760405162461bcd60e51b8152602060048201526018602482015277115490cdcc8c4e881a5b9d985b1a59081d1bdad95b88125160421b604482015260640161044b565b600081815260046020526040902080546001600160a01b0319166001600160a01b038416908117909155819061092c826106db565b6001600160a01b03167f8c5be1e5ebec7d5bd14f71427d1e84f3dd0314c0f7b2291e5b200ac8c7c3b92560405160405180910390a45050565b600080610971836106db565b9050806001600160a01b0316846001600160a01b031614806109b857506001600160a01b0380821660009081526005602090815260408083209388168352929052205460ff165b806109dc5750836001600160a01b03166109d1846103b0565b6001600160a01b0316145b949350505050565b826001600160a01b03166109f7826106db565b6001600160a01b031614610a1d5760405162461bcd60e51b815260040161044b90611a3c565b6001600160a01b038216610a7f5760405162461bcd60e51b8152602060048201526024808201527f4552433732313a207472616e7366657220746f20746865207a65726f206164646044820152637265737360e01b606482015260840161044b565b610a8c8383836001610e88565b826001600160a01b0316610a9f826106db565b6001600160a01b031614610ac55760405162461bcd60e51b815260040161044b90611a3c565b600081815260046020908152604080832080546001600160a01b03199081169091556001600160a01b0387811680865260038552838620805460001901905590871680865283862080546001019055868652600290945282852080549092168417909155905184937fddf252ad1be2c89b69c2b068fc378daa952ba7f163c4a11628f55a4df523b3ef91a4505050565b600b546001600160a01b031633146107d35760405162461bcd60e51b815260206004820181905260248201527f4f776e61626c653a2063616c6c6572206973206e6f7420746865206f776e6572604482015260640161044b565b6107ef828260405180602001604052806000815250610e94565b60606000610bd683610ec7565b600101905060008167ffffffffffffffff811115610bf657610bf6611851565b6040519080825280601f01601f191660200182016040528015610c20576020820181803683370190505b5090508181016020015b600019016f181899199a1a9b1b9c1cb0b131b232b360811b600a86061a8153600a8504945084610c2a57509392505050565b6000828152600260205260409020546001600160a01b0316610cd75760405162461bcd60e51b815260206004820152602e60248201527f45524337323155524953746f726167653a2055524920736574206f66206e6f6e60448201526d32bc34b9ba32b73a103a37b5b2b760911b606482015260840161044b565b6000828152600a602052604090206102128282611acf565b61064581610f9f565b600b80546001600160a01b038381166001600160a01b0319831681179093556040519116919082907f8be0079c531659141344cd1fd0a4f28419497f9722a3daafe3b4186f6b6457e090600090a35050565b816001600160a01b0316836001600160a01b031603610dab5760405162461bcd60e51b815260206004820152601960248201527f4552433732313a20617070726f766520746f2063616c6c657200000000000000604482015260640161044b565b6001600160a01b03838116600081815260056020908152604080832094871680845294825291829020805460ff191686151590811790915591519182527f17307eab39ab6107e8899845ad3d59bd9653f200f220920489ca2b5937696c31910160405180910390a3505050565b6060604051806080016040528060508152602001611c8e60509139905090565b60006001600160e01b031982166380ac58cd60e01b1480610e6957506001600160e01b03198216635b5e139f60e01b145b8061031857506301ffc9a760e01b6001600160e01b0319831614610318565b6102a584848484610fdf565b610e9e838361111f565b610eab60008484846112b8565b6102125760405162461bcd60e51b815260040161044b90611b8f565b60008072184f03e93ff9f4daa797ed6e38ed64bf6a1f0160401b8310610f065772184f03e93ff9f4daa797ed6e38ed64bf6a1f0160401b830492506040015b6d04ee2d6d415b85acef81000000008310610f32576d04ee2d6d415b85acef8100000000830492506020015b662386f26fc100008310610f5057662386f26fc10000830492506010015b6305f5e1008310610f68576305f5e100830492506008015b6127108310610f7c57612710830492506004015b60648310610f8e576064830492506002015b600a83106103185760010192915050565b610fa8816113b9565b6000818152600a602052604090208054610fc190611976565b159050610645576000818152600a6020526040812061064591611674565b610feb8484848461145c565b600181111561105a5760405162461bcd60e51b815260206004820152603560248201527f455243373231456e756d657261626c653a20636f6e7365637574697665207472604482015274185b9cd9995c9cc81b9bdd081cdd5c1c1bdc9d1959605a1b606482015260840161044b565b816001600160a01b0385166110b6576110b181600880546000838152600960205260408120829055600182018355919091527ff3f7a9fe364faab93b216da50a3214154f22a0a2b415b23a84c8169e8b636ee30155565b6110d9565b836001600160a01b0316856001600160a01b0316146110d9576110d985826114e4565b6001600160a01b0384166110f5576110f081611581565b611118565b846001600160a01b0316846001600160a01b031614611118576111188482611630565b5050505050565b6001600160a01b0382166111755760405162461bcd60e51b815260206004820181905260248201527f4552433732313a206d696e7420746f20746865207a65726f2061646472657373604482015260640161044b565b6000818152600260205260409020546001600160a01b0316156111da5760405162461bcd60e51b815260206004820152601c60248201527f4552433732313a20746f6b656e20616c7265616479206d696e74656400000000604482015260640161044b565b6111e8600083836001610e88565b6000818152600260205260409020546001600160a01b03161561124d5760405162461bcd60e51b815260206004820152601c60248201527f4552433732313a20746f6b656e20616c7265616479206d696e74656400000000604482015260640161044b565b6001600160a01b038216600081815260036020908152604080832080546001019055848352600290915280822080546001600160a01b0319168417905551839291907fddf252ad1be2c89b69c2b068fc378daa952ba7f163c4a11628f55a4df523b3ef908290a45050565b60006001600160a01b0384163b156113ae57604051630a85bd0160e11b81526001600160a01b0385169063150b7a02906112fc903390899088908890600401611be1565b6020604051808303816000875af1925050508015611337575060408051601f3d908101601f1916820190925261133491810190611c1e565b60015b611394573d808015611365576040519150601f19603f3d011682016040523d82523d6000602084013e61136a565b606091505b50805160000361138c5760405162461bcd60e51b815260040161044b90611b8f565b805181602001fd5b6001600160e01b031916630a85bd0160e11b1490506109dc565b506001949350505050565b60006113c4826106db565b90506113d4816000846001610e88565b6113dd826106db565b600083815260046020908152604080832080546001600160a01b03199081169091556001600160a01b0385168085526003845282852080546000190190558785526002909352818420805490911690555192935084927fddf252ad1be2c89b69c2b068fc378daa952ba7f163c4a11628f55a4df523b3ef908390a45050565b60018111156102a5576001600160a01b038416156114a2576001600160a01b0384166000908152600360205260408120805483929061149c908490611c51565b90915550505b6001600160a01b038316156102a5576001600160a01b038316600090815260036020526040812080548392906114d9908490611c64565b909155505050505050565b600060016114f18461073b565b6114fb9190611c51565b60008381526007602052604090205490915080821461154e576001600160a01b03841660009081526006602090815260408083208584528252808320548484528184208190558352600790915290208190555b5060009182526007602090815260408084208490556001600160a01b039094168352600681528383209183525290812055565b60085460009061159390600190611c51565b600083815260096020526040812054600880549394509092849081106115bb576115bb611a26565b9060005260206000200154905080600883815481106115dc576115dc611a26565b600091825260208083209091019290925582815260099091526040808220849055858252812055600880548061161457611614611c77565b6001900381819060005260206000200160009055905550505050565b600061163b8361073b565b6001600160a01b039093166000908152600660209081526040808320868452825280832085905593825260079052919091209190915550565b50805461168090611976565b6000825580601f10611690575050565b601f01602090049060005260206000209081019061064591905b808211156116be57600081556001016116aa565b5090565b6001600160e01b03198116811461064557600080fd5b6000602082840312156116ea57600080fd5b81356116f5816116c2565b9392505050565b60005b838110156117175781810151838201526020016116ff565b50506000910152565b600081518084526117388160208601602086016116fc565b601f01601f19169290920160200192915050565b6020815260006116f56020830184611720565b60006020828403121561177157600080fd5b5035919050565b80356001600160a01b038116811461178f57600080fd5b919050565b600080604083850312156117a757600080fd5b6117b083611778565b946020939093013593505050565b6000806000606084860312156117d357600080fd5b6117dc84611778565b92506117ea60208501611778565b9150604084013590509250925092565b60006020828403121561180c57600080fd5b6116f582611778565b6000806040838503121561182857600080fd5b61183183611778565b91506020830135801515811461184657600080fd5b809150509250929050565b634e487b7160e01b600052604160045260246000fd5b6000806000806080858703121561187d57600080fd5b61188685611778565b935061189460208601611778565b925060408501359150606085013567ffffffffffffffff808211156118b857600080fd5b818701915087601f8301126118cc57600080fd5b8135818111156118de576118de611851565b604051601f8201601f19908116603f0116810190838211818310171561190657611906611851565b816040528281528a602084870101111561191f57600080fd5b82602086016020830137600060208483010152809550505050505092959194509250565b6000806040838503121561195657600080fd5b61195f83611778565b915061196d60208401611778565b90509250929050565b600181811c9082168061198a57607f821691505b6020821081036119aa57634e487b7160e01b600052602260045260246000fd5b50919050565b6020808252602d908201527f4552433732313a2063616c6c6572206973206e6f7420746f6b656e206f776e6560408201526c1c881bdc88185c1c1c9bdd9959609a1b606082015260800190565b60008251611a0f8184602087016116fc565b64173539b7b760d91b920191825250600501919050565b634e487b7160e01b600052603260045260246000fd5b60208082526025908201527f4552433732313a207472616e736665722066726f6d20696e636f72726563742060408201526437bbb732b960d91b606082015260800190565b601f82111561021257600081815260208120601f850160051c81016020861015611aa85750805b601f850160051c820191505b81811015611ac757828155600101611ab4565b505050505050565b815167ffffffffffffffff811115611ae957611ae9611851565b611afd81611af78454611976565b84611a81565b602080601f831160018114611b325760008415611b1a5750858301515b600019600386901b1c1916600185901b178555611ac7565b600085815260208120601f198616915b82811015611b6157888601518255948401946001909101908401611b42565b5085821015611b7f5787850151600019600388901b60f8161c191681555b5050505050600190811b01905550565b60208082526032908201527f4552433732313a207472616e7366657220746f206e6f6e20455243373231526560408201527131b2b4bb32b91034b6b83632b6b2b73a32b960711b606082015260800190565b6001600160a01b0385811682528416602082015260408101839052608060608201819052600090611c1490830184611720565b9695505050505050565b600060208284031215611c3057600080fd5b81516116f5816116c2565b634e487b7160e01b600052601160045260246000fd5b8181038181111561031857610318611c3b565b8082018082111561031857610318611c3b565b634e487b7160e01b600052603160045260246000fdfe68747470733a2f2f676174657761792e70696e6174612e636c6f75642f697066732f516d6645745a374e6f615552365041385753655645476437316a6b6963476a5350675a686a57324c6762426f5355a26469706673582212204fa4d87d1db1c263754df2df708a32594c54c24d7819d7c5b85b4629e7839aad64736f6c63430008110033a26469706673582212206efaa70c5f552a04eed1bd4b7b8a055425e9dc446b082c6abc72dc4b2b0cfb9a64736f6c63430008110033",
  "linkReferences": {},
  "deployedLinkReferences": {}
}